{
  "contracts/KryptoPunks.sol": {
    "KryptoPunks": {
      "abi": [
        {
          "inputs": [
            {
              "internalType": "uint256",
              "name": "_maxSupply",
              "type": "uint256"
            },
            {
              "internalType": "uint256",
              "name": "_cost",
              "type": "uint256"
            },
            {
              "internalType": "uint256",
              "name": "_maxMintAmountPerTx",
              "type": "uint256"
            }
          ],
          "stateMutability": "nonpayable",
          "type": "constructor"
        },
        {
          "inputs": [],
          "name": "ApprovalCallerNotOwnerNorApproved",
          "type": "error"
        },
        {
          "inputs": [],
          "name": "ApprovalQueryForNonexistentToken",
          "type": "error"
        },
        {
          "inputs": [],
          "name": "BalanceQueryForZeroAddress",
          "type": "error"
        },
        {
          "inputs": [],
          "name": "InvalidQueryRange",
          "type": "error"
        },
        {
          "inputs": [],
          "name": "KryptoPunks__ContractIsPaused",
          "type": "error"
        },
        {
          "inputs": [],
          "name": "KryptoPunks__InsufficientFunds",
          "type": "error"
        },
        {
          "inputs": [],
          "name": "KryptoPunks__InvalidMintAmount",
          "type": "error"
        },
        {
          "inputs": [],
          "name": "KryptoPunks__MaxMintAmountExceeded",
          "type": "error"
        },
        {
          "inputs": [],
          "name": "KryptoPunks__NftSupplyLimitExceeded",
          "type": "error"
        },
        {
          "inputs": [],
          "name": "KryptoPunks__QueryForNonExistentToken",
          "type": "error"
        },
        {
          "inputs": [],
          "name": "MintERC2309QuantityExceedsLimit",
          "type": "error"
        },
        {
          "inputs": [],
          "name": "MintToZeroAddress",
          "type": "error"
        },
        {
          "inputs": [],
          "name": "MintZeroQuantity",
          "type": "error"
        },
        {
          "inputs": [],
          "name": "NotCompatibleWithSpotMints",
          "type": "error"
        },
        {
          "inputs": [],
          "name": "OwnerQueryForNonexistentToken",
          "type": "error"
        },
        {
          "inputs": [],
          "name": "OwnershipNotInitializedForExtraData",
          "type": "error"
        },
        {
          "inputs": [],
          "name": "SequentialMintExceedsLimit",
          "type": "error"
        },
        {
          "inputs": [],
          "name": "SequentialUpToTooSmall",
          "type": "error"
        },
        {
          "inputs": [],
          "name": "SpotMintTokenIdTooSmall",
          "type": "error"
        },
        {
          "inputs": [],
          "name": "TokenAlreadyExists",
          "type": "error"
        },
        {
          "inputs": [],
          "name": "TransferCallerNotOwnerNorApproved",
          "type": "error"
        },
        {
          "inputs": [],
          "name": "TransferFromIncorrectOwner",
          "type": "error"
        },
        {
          "inputs": [],
          "name": "TransferToNonERC721ReceiverImplementer",
          "type": "error"
        },
        {
          "inputs": [],
          "name": "TransferToZeroAddress",
          "type": "error"
        },
        {
          "inputs": [],
          "name": "URIQueryForNonexistentToken",
          "type": "error"
        },
        {
          "anonymous": false,
          "inputs": [
            {
              "indexed": true,
              "internalType": "address",
              "name": "owner",
              "type": "address"
            },
            {
              "indexed": true,
              "internalType": "address",
              "name": "approved",
              "type": "address"
            },
            {
              "indexed": true,
              "internalType": "uint256",
              "name": "tokenId",
              "type": "uint256"
            }
          ],
          "name": "Approval",
          "type": "event"
        },
        {
          "anonymous": false,
          "inputs": [
            {
              "indexed": true,
              "internalType": "address",
              "name": "owner",
              "type": "address"
            },
            {
              "indexed": true,
              "internalType": "address",
              "name": "operator",
              "type": "address"
            },
            {
              "indexed": false,
              "internalType": "bool",
              "name": "approved",
              "type": "bool"
            }
          ],
          "name": "ApprovalForAll",
          "type": "event"
        },
        {
          "anonymous": false,
          "inputs": [
            {
              "indexed": true,
              "internalType": "uint256",
              "name": "fromTokenId",
              "type": "uint256"
            },
            {
              "indexed": false,
              "internalType": "uint256",
              "name": "toTokenId",
              "type": "uint256"
            },
            {
              "indexed": true,
              "internalType": "address",
              "name": "from",
              "type": "address"
            },
            {
              "indexed": true,
              "internalType": "address",
              "name": "to",
              "type": "address"
            }
          ],
          "name": "ConsecutiveTransfer",
          "type": "event"
        },
        {
          "anonymous": false,
          "inputs": [
            {
              "indexed": true,
              "internalType": "address",
              "name": "previousOwner",
              "type": "address"
            },
            {
              "indexed": true,
              "internalType": "address",
              "name": "newOwner",
              "type": "address"
            }
          ],
          "name": "OwnershipTransferred",
          "type": "event"
        },
        {
          "anonymous": false,
          "inputs": [
            {
              "indexed": true,
              "internalType": "address",
              "name": "from",
              "type": "address"
            },
            {
              "indexed": true,
              "internalType": "address",
              "name": "to",
              "type": "address"
            },
            {
              "indexed": true,
              "internalType": "uint256",
              "name": "tokenId",
              "type": "uint256"
            }
          ],
          "name": "Transfer",
          "type": "event"
        },
        {
          "inputs": [
            {
              "internalType": "address",
              "name": "to",
              "type": "address"
            },
            {
              "internalType": "uint256",
              "name": "tokenId",
              "type": "uint256"
            }
          ],
          "name": "approve",
          "outputs": [],
          "stateMutability": "payable",
          "type": "function"
        },
        {
          "inputs": [
            {
              "internalType": "address",
              "name": "owner",
              "type": "address"
            }
          ],
          "name": "balanceOf",
          "outputs": [
            {
              "internalType": "uint256",
              "name": "",
              "type": "uint256"
            }
          ],
          "stateMutability": "view",
          "type": "function"
        },
        {
          "inputs": [],
          "name": "baseExtension",
          "outputs": [
            {
              "internalType": "string",
              "name": "",
              "type": "string"
            }
          ],
          "stateMutability": "view",
          "type": "function"
        },
        {
          "inputs": [],
          "name": "baseURI",
          "outputs": [
            {
              "internalType": "string",
              "name": "",
              "type": "string"
            }
          ],
          "stateMutability": "view",
          "type": "function"
        },
        {
          "inputs": [],
          "name": "cost",
          "outputs": [
            {
              "internalType": "uint256",
              "name": "",
              "type": "uint256"
            }
          ],
          "stateMutability": "view",
          "type": "function"
        },
        {
          "inputs": [
            {
              "internalType": "uint256",
              "name": "tokenId",
              "type": "uint256"
            }
          ],
          "name": "explicitOwnershipOf",
          "outputs": [
            {
              "components": [
                {
                  "internalType": "address",
                  "name": "addr",
                  "type": "address"
                },
                {
                  "internalType": "uint64",
                  "name": "startTimestamp",
                  "type": "uint64"
                },
                {
                  "internalType": "bool",
                  "name": "burned",
                  "type": "bool"
                },
                {
                  "internalType": "uint24",
                  "name": "extraData",
                  "type": "uint24"
                }
              ],
              "internalType": "struct IERC721A.TokenOwnership",
              "name": "ownership",
              "type": "tuple"
            }
          ],
          "stateMutability": "view",
          "type": "function"
        },
        {
          "inputs": [
            {
              "internalType": "uint256[]",
              "name": "tokenIds",
              "type": "uint256[]"
            }
          ],
          "name": "explicitOwnershipsOf",
          "outputs": [
            {
              "components": [
                {
                  "internalType": "address",
                  "name": "addr",
                  "type": "address"
                },
                {
                  "internalType": "uint64",
                  "name": "startTimestamp",
                  "type": "uint64"
                },
                {
                  "internalType": "bool",
                  "name": "burned",
                  "type": "bool"
                },
                {
                  "internalType": "uint24",
                  "name": "extraData",
                  "type": "uint24"
                }
              ],
              "internalType": "struct IERC721A.TokenOwnership[]",
              "name": "",
              "type": "tuple[]"
            }
          ],
          "stateMutability": "view",
          "type": "function"
        },
        {
          "inputs": [
            {
              "internalType": "uint256",
              "name": "tokenId",
              "type": "uint256"
            }
          ],
          "name": "getApproved",
          "outputs": [
            {
              "internalType": "address",
              "name": "",
              "type": "address"
            }
          ],
          "stateMutability": "view",
          "type": "function"
        },
        {
          "inputs": [
            {
              "internalType": "address",
              "name": "owner",
              "type": "address"
            },
            {
              "internalType": "address",
              "name": "operator",
              "type": "address"
            }
          ],
          "name": "isApprovedForAll",
          "outputs": [
            {
              "internalType": "bool",
              "name": "",
              "type": "bool"
            }
          ],
          "stateMutability": "view",
          "type": "function"
        },
        {
          "inputs": [],
          "name": "maxMintAmountPerTx",
          "outputs": [
            {
              "internalType": "uint256",
              "name": "",
              "type": "uint256"
            }
          ],
          "stateMutability": "view",
          "type": "function"
        },
        {
          "inputs": [],
          "name": "maxSupply",
          "outputs": [
            {
              "internalType": "uint256",
              "name": "",
              "type": "uint256"
            }
          ],
          "stateMutability": "view",
          "type": "function"
        },
        {
          "inputs": [
            {
              "internalType": "uint256",
              "name": "_mintAmount",
              "type": "uint256"
            }
          ],
          "name": "mint",
          "outputs": [],
          "stateMutability": "payable",
          "type": "function"
        },
        {
          "inputs": [],
          "name": "name",
          "outputs": [
            {
              "internalType": "string",
              "name": "",
              "type": "string"
            }
          ],
          "stateMutability": "view",
          "type": "function"
        },
        {
          "inputs": [],
          "name": "owner",
          "outputs": [
            {
              "internalType": "address",
              "name": "",
              "type": "address"
            }
          ],
          "stateMutability": "view",
          "type": "function"
        },
        {
          "inputs": [
            {
              "internalType": "uint256",
              "name": "tokenId",
              "type": "uint256"
            }
          ],
          "name": "ownerOf",
          "outputs": [
            {
              "internalType": "address",
              "name": "",
              "type": "address"
            }
          ],
          "stateMutability": "view",
          "type": "function"
        },
        {
          "inputs": [
            {
              "internalType": "uint256",
              "name": "_state",
              "type": "uint256"
            }
          ],
          "name": "pause",
          "outputs": [],
          "stateMutability": "payable",
          "type": "function"
        },
        {
          "inputs": [],
          "name": "paused",
          "outputs": [
            {
              "internalType": "uint256",
              "name": "",
              "type": "uint256"
            }
          ],
          "stateMutability": "view",
          "type": "function"
        },
        {
          "inputs": [],
          "name": "renounceOwnership",
          "outputs": [],
          "stateMutability": "nonpayable",
          "type": "function"
        },
        {
          "inputs": [
            {
              "internalType": "address",
              "name": "from",
              "type": "address"
            },
            {
              "internalType": "address",
              "name": "to",
              "type": "address"
            },
            {
              "internalType": "uint256",
              "name": "tokenId",
              "type": "uint256"
            }
          ],
          "name": "safeTransferFrom",
          "outputs": [],
          "stateMutability": "payable",
          "type": "function"
        },
        {
          "inputs": [
            {
              "internalType": "address",
              "name": "from",
              "type": "address"
            },
            {
              "internalType": "address",
              "name": "to",
              "type": "address"
            },
            {
              "internalType": "uint256",
              "name": "tokenId",
              "type": "uint256"
            },
            {
              "internalType": "bytes",
              "name": "_data",
              "type": "bytes"
            }
          ],
          "name": "safeTransferFrom",
          "outputs": [],
          "stateMutability": "payable",
          "type": "function"
        },
        {
          "inputs": [
            {
              "internalType": "address",
              "name": "operator",
              "type": "address"
            },
            {
              "internalType": "bool",
              "name": "approved",
              "type": "bool"
            }
          ],
          "name": "setApprovalForAll",
          "outputs": [],
          "stateMutability": "nonpayable",
          "type": "function"
        },
        {
          "inputs": [
            {
              "internalType": "string",
              "name": "_newBaseURI",
              "type": "string"
            }
          ],
          "name": "setBaseURI",
          "outputs": [],
          "stateMutability": "payable",
          "type": "function"
        },
        {
          "inputs": [
            {
              "internalType": "uint256",
              "name": "_newCost",
              "type": "uint256"
            }
          ],
          "name": "setCost",
          "outputs": [],
          "stateMutability": "payable",
          "type": "function"
        },
        {
          "inputs": [
            {
              "internalType": "uint256",
              "name": "_newmaxMintAmount",
              "type": "uint256"
            }
          ],
          "name": "setMaxMintAmountPerTx",
          "outputs": [],
          "stateMutability": "payable",
          "type": "function"
        },
        {
          "inputs": [
            {
              "internalType": "bytes4",
              "name": "interfaceId",
              "type": "bytes4"
            }
          ],
          "name": "supportsInterface",
          "outputs": [
            {
              "internalType": "bool",
              "name": "",
              "type": "bool"
            }
          ],
          "stateMutability": "view",
          "type": "function"
        },
        {
          "inputs": [],
          "name": "symbol",
          "outputs": [
            {
              "internalType": "string",
              "name": "",
              "type": "string"
            }
          ],
          "stateMutability": "view",
          "type": "function"
        },
        {
          "inputs": [
            {
              "internalType": "uint256",
              "name": "tokenId",
              "type": "uint256"
            }
          ],
          "name": "tokenURI",
          "outputs": [
            {
              "internalType": "string",
              "name": "",
              "type": "string"
            }
          ],
          "stateMutability": "view",
          "type": "function"
        },
        {
          "inputs": [
            {
              "internalType": "address",
              "name": "owner",
              "type": "address"
            }
          ],
          "name": "tokensOfOwner",
          "outputs": [
            {
              "internalType": "uint256[]",
              "name": "",
              "type": "uint256[]"
            }
          ],
          "stateMutability": "view",
          "type": "function"
        },
        {
          "inputs": [
            {
              "internalType": "address",
              "name": "owner",
              "type": "address"
            },
            {
              "internalType": "uint256",
              "name": "start",
              "type": "uint256"
            },
            {
              "internalType": "uint256",
              "name": "stop",
              "type": "uint256"
            }
          ],
          "name": "tokensOfOwnerIn",
          "outputs": [
            {
              "internalType": "uint256[]",
              "name": "",
              "type": "uint256[]"
            }
          ],
          "stateMutability": "view",
          "type": "function"
        },
        {
          "inputs": [],
          "name": "totalSupply",
          "outputs": [
            {
              "internalType": "uint256",
              "name": "result",
              "type": "uint256"
            }
          ],
          "stateMutability": "view",
          "type": "function"
        },
        {
          "inputs": [
            {
              "internalType": "address",
              "name": "from",
              "type": "address"
            },
            {
              "internalType": "address",
              "name": "to",
              "type": "address"
            },
            {
              "internalType": "uint256",
              "name": "tokenId",
              "type": "uint256"
            }
          ],
          "name": "transferFrom",
          "outputs": [],
          "stateMutability": "payable",
          "type": "function"
        },
        {
          "inputs": [
            {
              "internalType": "address",
              "name": "newOwner",
              "type": "address"
            }
          ],
          "name": "transferOwnership",
          "outputs": [],
          "stateMutability": "nonpayable",
          "type": "function"
        },
        {
          "inputs": [],
          "name": "withdraw",
          "outputs": [],
          "stateMutability": "payable",
          "type": "function"
        }
      ],
      "evm": {
        "bytecode": {
          "linkReferences": {},
          "object": "60a06040526001600d553480156200001657600080fd5b50604051620038433803806200384383398181016040528101906200003c91906200033d565b6040518060400160405280601881526020017f4b727970746f2050756e6b7320436f6c6c65637469626c6500000000000000008152506040518060400160405280600381526020017f4b504300000000000000000000000000000000000000000000000000000000008152508160029080519060200190620000c092919062000276565b508060039080519060200190620000d992919062000276565b50620000ea6200017160201b60201c565b600081905550620001006200017160201b60201c565b620001106200017660201b60201c565b101562000130576200012f63fed8210f60e01b6200019e60201b60201c565b5b50506200015262000146620001a860201b60201c565b620001b060201b60201c565b81600b8190555080600c81905550826080818152505050505062000427565b600090565b60007fffffffffffffffffffffffffffffffffffffffffffffffffffffffffffffffff905090565b8060005260046000fd5b600033905090565b6000600960009054906101000a900473ffffffffffffffffffffffffffffffffffffffff16905081600960006101000a81548173ffffffffffffffffffffffffffffffffffffffff021916908373ffffffffffffffffffffffffffffffffffffffff1602179055508173ffffffffffffffffffffffffffffffffffffffff168173ffffffffffffffffffffffffffffffffffffffff167f8be0079c531659141344cd1fd0a4f28419497f9722a3daafe3b4186f6b6457e060405160405180910390a35050565b8280546200028490620003a3565b90600052602060002090601f016020900481019282620002a85760008555620002f4565b82601f10620002c357805160ff1916838001178555620002f4565b82800160010185558215620002f4579182015b82811115620002f3578251825591602001919060010190620002d6565b5b50905062000303919062000307565b5090565b5b808211156200032257600081600090555060010162000308565b5090565b60008151905062000337816200040d565b92915050565b60008060006060848603121562000359576200035862000408565b5b6000620003698682870162000326565b93505060206200037c8682870162000326565b92505060406200038f8682870162000326565b9150509250925092565b6000819050919050565b60006002820490506001821680620003bc57607f821691505b60208210811415620003d357620003d2620003d9565b5b50919050565b7f4e487b7100000000000000000000000000000000000000000000000000000000600052602260045260246000fd5b600080fd5b620004188162000399565b81146200042457600080fd5b50565b6080516133f96200044a6000396000818161101c015261140301526133f96000f3fe6080604052600436106101ee5760003560e01c806370a082311161010d578063a22cb465116100a0578063c66828621161006f578063c668286214610679578063c87b56dd146106a4578063d5abeb01146106e1578063e985e9c51461070c578063f2fde38b14610749576101ee565b8063a22cb465146105db578063b071401b14610604578063b88d4fde14610620578063c23dc68f1461063c576101ee565b806394354fd0116100dc57806394354fd01461052c57806395d89b411461055757806399a2557a14610582578063a0712d68146105bf576101ee565b806370a0823114610470578063715018a6146104ad5780638462151c146104c45780638da5cb5b14610501576101ee565b80633ccfd60b116101855780635bbb2177116101545780635bbb2177146103a05780635c975abb146103dd5780636352211e146104085780636c0360eb14610445576101ee565b80633ccfd60b1461034257806342842e0e1461034c57806344a0d68a1461036857806355f804b314610384576101ee565b8063136439dd116101c1578063136439dd146102b457806313faede6146102d057806318160ddd146102fb57806323b872dd14610326576101ee565b806301ffc9a7146101f357806306fdde0314610230578063081812fc1461025b578063095ea7b314610298575b600080fd5b3480156101ff57600080fd5b5061021a60048036038101906102159190612808565b610772565b6040516102279190612ce3565b60405180910390f35b34801561023c57600080fd5b50610245610804565b6040516102529190612cfe565b60405180910390f35b34801561026757600080fd5b50610282600480360381019061027d91906128ab565b610896565b60405161028f9190612c38565b60405180910390f35b6102b260048036038101906102ad9190612728565b6108f4565b005b6102ce60048036038101906102c991906128ab565b610904565b005b3480156102dc57600080fd5b506102e5610916565b6040516102f29190612d7b565b60405180910390f35b34801561030757600080fd5b5061031061091c565b60405161031d9190612d7b565b60405180910390f35b610340600480360381019061033b9190612612565b610969565b005b61034a610c2d565b005b61036660048036038101906103619190612612565b610cb5565b005b610382600480360381019061037d91906128ab565b610cd5565b005b61039e60048036038101906103999190612862565b610ce7565b005b3480156103ac57600080fd5b506103c760048036038101906103c291906127bb565b610d09565b6040516103d49190612c9f565b60405180910390f35b3480156103e957600080fd5b506103f2610d69565b6040516103ff9190612d7b565b60405180910390f35b34801561041457600080fd5b5061042f600480360381019061042a91906128ab565b610d6f565b60405161043c9190612c38565b60405180910390f35b34801561045157600080fd5b5061045a610d81565b6040516104679190612cfe565b60405180910390f35b34801561047c57600080fd5b50610497600480360381019061049291906125a5565b610e0f565b6040516104a49190612d7b565b60405180910390f35b3480156104b957600080fd5b506104c2610ea7565b005b3480156104d057600080fd5b506104eb60048036038101906104e691906125a5565b610ebb565b6040516104f89190612cc1565b60405180910390f35b34801561050d57600080fd5b50610516610f36565b6040516105239190612c38565b60405180910390f35b34801561053857600080fd5b50610541610f60565b60405161054e9190612d7b565b60405180910390f35b34801561056357600080fd5b5061056c610f66565b6040516105799190612cfe565b60405180910390f35b34801561058e57600080fd5b506105a960048036038101906105a49190612768565b610ff8565b6040516105b69190612cc1565b60405180910390f35b6105d960048036038101906105d491906128ab565b61100e565b005b3480156105e757600080fd5b5061060260048036038101906105fd91906126e8565b61110f565b005b61061e600480360381019061061991906128ab565b61121a565b005b61063a60048036038101906106359190612665565b61122c565b005b34801561064857600080fd5b50610663600480360381019061065e91906128ab565b61127e565b6040516106709190612d60565b60405180910390f35b34801561068557600080fd5b5061068e6112f3565b60405161069b9190612cfe565b60405180910390f35b3480156106b057600080fd5b506106cb60048036038101906106c691906128ab565b61132c565b6040516106d89190612cfe565b60405180910390f35b3480156106ed57600080fd5b506106f6611401565b6040516107039190612d7b565b60405180910390f35b34801561071857600080fd5b50610733600480360381019061072e91906125d2565b611425565b6040516107409190612ce3565b60405180910390f35b34801561075557600080fd5b50610770600480360381019061076b91906125a5565b6114b9565b005b60006301ffc9a760e01b827bffffffffffffffffffffffffffffffffffffffffffffffffffffffff191614806107cd57506380ac58cd60e01b827bffffffffffffffffffffffffffffffffffffffffffffffffffffffff1916145b806107fd5750635b5e139f60e01b827bffffffffffffffffffffffffffffffffffffffffffffffffffffffff1916145b9050919050565b606060028054610813906130f5565b80601f016020809104026020016040519081016040528092919081815260200182805461083f906130f5565b801561088c5780601f106108615761010080835404028352916020019161088c565b820191906000526020600020905b81548152906001019060200180831161086f57829003601f168201915b5050505050905090565b60006108a18261153d565b6108b6576108b563cf4700e460e01b6115ea565b5b6006600083815260200190815260200160002060000160009054906101000a900473ffffffffffffffffffffffffffffffffffffffff169050919050565b610900828260016115f4565b5050565b61090c611723565b80600d8190555050565b600b5481565b60006109266117a1565b600154600054030390507fffffffffffffffffffffffffffffffffffffffffffffffffffffffffffffffff6109596117a6565b1461096657600854810190505b90565b6000610974826117ce565b905073ffffffffffffffffffffffffffffffffffffffff8473ffffffffffffffffffffffffffffffffffffffff161693508373ffffffffffffffffffffffffffffffffffffffff168173ffffffffffffffffffffffffffffffffffffffff16146109e9576109e863a114810060e01b6115ea565b5b6000806109f5846118fd565b91509150610a0b8187610a06611924565b61192c565b610a3657610a2086610a1b611924565b611425565b610a3557610a346359c896be60e01b6115ea565b5b5b610a438686866001611970565b8015610a4e57600082555b600560008773ffffffffffffffffffffffffffffffffffffffff1673ffffffffffffffffffffffffffffffffffffffff168152602001908152602001600020600081546001900391905081905550600560008673ffffffffffffffffffffffffffffffffffffffff1673ffffffffffffffffffffffffffffffffffffffff1681526020019081526020016000206000815460010191905081905550610b1c85610af8888887611976565b7c02000000000000000000000000000000000000000000000000000000001761199e565b600460008681526020019081526020016000208190555060007c020000000000000000000000000000000000000000000000000000000084161415610ba4576000600185019050600060046000838152602001908152602001600020541415610ba2576000548114610ba1578360046000838152602001908152602001600020819055505b5b505b600073ffffffffffffffffffffffffffffffffffffffff8673ffffffffffffffffffffffffffffffffffffffff161690508481887fddf252ad1be2c89b69c2b068fc378daa952ba7f163c4a11628f55a4df523b3ef600080a46000811415610c1757610c1663ea553b3460e01b6115ea565b5b610c2487878760016119c9565b50505050505050565b610c35611723565b6000610c3f610f36565b73ffffffffffffffffffffffffffffffffffffffff1647604051610c6290612c23565b60006040518083038185875af1925050503d8060008114610c9f576040519150601f19603f3d011682016040523d82523d6000602084013e610ca4565b606091505b5050905080610cb257600080fd5b50565b610cd08383836040518060200160405280600081525061122c565b505050565b610cdd611723565b80600b8190555050565b610cef611723565b80600a9080519060200190610d05929190612314565b5050565b606080600084849050905060405191508082528060051b90508060208301016040525b60008114610d5e5760006020820391508186013590506000610d4d8261127e565b905080836020860101525050610d2c565b819250505092915050565b600d5481565b6000610d7a826117ce565b9050919050565b600a8054610d8e906130f5565b80601f0160208091040260200160405190810160405280929190818152602001828054610dba906130f5565b8015610e075780601f10610ddc57610100808354040283529160200191610e07565b820191906000526020600020905b815481529060010190602001808311610dea57829003601f168201915b505050505081565b60008073ffffffffffffffffffffffffffffffffffffffff168273ffffffffffffffffffffffffffffffffffffffff161415610e5657610e55638f4eb60460e01b6115ea565b5b67ffffffffffffffff600560008473ffffffffffffffffffffffffffffffffffffffff1673ffffffffffffffffffffffffffffffffffffffff16815260200190815260200160002054169050919050565b610eaf611723565b610eb960006119cf565b565b60607fffffffffffffffffffffffffffffffffffffffffffffffffffffffffffffffff610ee66117a6565b14610efc57610efb63bdba09d760e01b6115ea565b5b6000610f066117a1565b90506000610f12611a95565b90506060818314610f2b57610f28858484611a9e565b90505b809350505050919050565b6000600960009054906101000a900473ffffffffffffffffffffffffffffffffffffffff16905090565b600c5481565b606060038054610f75906130f5565b80601f0160208091040260200160405190810160405280929190818152602001828054610fa1906130f5565b8015610fee5780601f10610fc357610100808354040283529160200191610fee565b820191906000526020600020905b815481529060010190602001808311610fd157829003601f168201915b5050505050905090565b6060611005848484611a9e565b90509392505050565b600061101861091c565b90507f000000000000000000000000000000000000000000000000000000000000000082826110479190612edd565b111561107f576040517f96bd0f2300000000000000000000000000000000000000000000000000000000815260040160405180910390fd5b611087610f36565b73ffffffffffffffffffffffffffffffffffffffff163373ffffffffffffffffffffffffffffffffffffffff16146111015781600b546110c79190612f64565b341015611100576040517f45bd468900000000000000000000000000000000000000000000000000000000815260040160405180910390fd5b5b61110b3383611c5c565b5050565b806007600061111c611924565b73ffffffffffffffffffffffffffffffffffffffff1673ffffffffffffffffffffffffffffffffffffffff16815260200190815260200160002060008473ffffffffffffffffffffffffffffffffffffffff1673ffffffffffffffffffffffffffffffffffffffff16815260200190815260200160002060006101000a81548160ff0219169083151502179055508173ffffffffffffffffffffffffffffffffffffffff166111c9611924565b73ffffffffffffffffffffffffffffffffffffffff167f17307eab39ab6107e8899845ad3d59bd9653f200f220920489ca2b5937696c318360405161120e9190612ce3565b60405180910390a35050565b611222611723565b80600c8190555050565b611237848484610969565b60008373ffffffffffffffffffffffffffffffffffffffff163b146112785761126284848484611c7a565b6112775761127663d1a57ed660e01b6115ea565b5b5b50505050565b61128661239a565b61128e6117a1565b82106112ed5761129c6117a6565b8211156112b3576112ac82611db9565b90506112ee565b6112bb611a95565b8210156112ec575b6112cc82611de4565b6112dc57816001900391506112c3565b6112e582611db9565b90506112ee565b5b5b919050565b6040518060400160405280600581526020017f2e6a736f6e00000000000000000000000000000000000000000000000000000081525081565b60606113378261153d565b61136d576040517f77b1a4e000000000000000000000000000000000000000000000000000000000815260040160405180910390fd5b6000611377611e04565b9050600081511161139757604051806020016040528060008152506113f9565b806113a184611e96565b6040518060400160405280600581526020017f2e6a736f6e0000000000000000000000000000000000000000000000000000008152506040516020016113e993929190612bf2565b6040516020818303038152906040525b915050919050565b7f000000000000000000000000000000000000000000000000000000000000000081565b6000600760008473ffffffffffffffffffffffffffffffffffffffff1673ffffffffffffffffffffffffffffffffffffffff16815260200190815260200160002060008373ffffffffffffffffffffffffffffffffffffffff1673ffffffffffffffffffffffffffffffffffffffff16815260200190815260200160002060009054906101000a900460ff16905092915050565b6114c1611723565b600073ffffffffffffffffffffffffffffffffffffffff168173ffffffffffffffffffffffffffffffffffffffff161415611531576040517f08c379a000000000000000000000000000000000000000000000000000000000815260040161152890612d20565b60405180910390fd5b61153a816119cf565b50565b6000816115486117a1565b116115e4576115556117a6565b82111561157f576115786004600084815260200190815260200160002054611ff7565b90506115e5565b6000548210156115e35760005b6000600460008581526020019081526020016000205491508114156115bc57826115b5906130cb565b925061158c565b60007c01000000000000000000000000000000000000000000000000000000008216149150505b5b5b919050565b8060005260046000fd5b60006115ff83610d6f565b905081801561164157508073ffffffffffffffffffffffffffffffffffffffff16611628611924565b73ffffffffffffffffffffffffffffffffffffffff1614155b1561166d5761165781611652611924565b611425565b61166c5761166b63cfb3b94260e01b6115ea565b5b5b836006600085815260200190815260200160002060000160006101000a81548173ffffffffffffffffffffffffffffffffffffffff021916908373ffffffffffffffffffffffffffffffffffffffff160217905550828473ffffffffffffffffffffffffffffffffffffffff168273ffffffffffffffffffffffffffffffffffffffff167f8c5be1e5ebec7d5bd14f71427d1e84f3dd0314c0f7b2291e5b200ac8c7c3b92560405160405180910390a450505050565b61172b612038565b73ffffffffffffffffffffffffffffffffffffffff16611749610f36565b73ffffffffffffffffffffffffffffffffffffffff161461179f576040517f08c379a000000000000000000000000000000000000000000000000000000000815260040161179690612d40565b60405180910390fd5b565b600090565b60007fffffffffffffffffffffffffffffffffffffffffffffffffffffffffffffffff905090565b6000816117d96117a1565b116118e757600460008381526020019081526020016000205490506117fc6117a6565b8211156118275761180c81611ff7565b15611816576118f8565b61182663df2d9b4260e01b6115ea565b5b60008114156118b957600054821061184a5761184963df2d9b4260e01b6115ea565b5b5b60046000836001900393508381526020019081526020016000205490506000811415611876576118b4565b60007c0100000000000000000000000000000000000000000000000000000000821614156118a3576118f8565b6118b363df2d9b4260e01b6115ea565b5b61184b565b60007c0100000000000000000000000000000000000000000000000000000000821614156118e6576118f8565b5b6118f763df2d9b4260e01b6115ea565b5b919050565b60008060006006600085815260200190815260200160002090508092508254915050915091565b600033905090565b600073ffffffffffffffffffffffffffffffffffffffff8316925073ffffffffffffffffffffffffffffffffffffffff821691508382148383141790509392505050565b50505050565b60008060e883901c905060e861198d868684612040565b62ffffff16901b9150509392505050565b600073ffffffffffffffffffffffffffffffffffffffff83169250814260a01b178317905092915050565b50505050565b6000600960009054906101000a900473ffffffffffffffffffffffffffffffffffffffff16905081600960006101000a81548173ffffffffffffffffffffffffffffffffffffffff021916908373ffffffffffffffffffffffffffffffffffffffff1602179055508173ffffffffffffffffffffffffffffffffffffffff168173ffffffffffffffffffffffffffffffffffffffff167f8be0079c531659141344cd1fd0a4f28419497f9722a3daafe3b4186f6b6457e060405160405180910390a35050565b60008054905090565b6060818310611ab857611ab76332c1995a60e01b6115ea565b5b611ac06117a1565b831015611ad257611acf6117a1565b92505b6000611adc611a95565b905060007fffffffffffffffffffffffffffffffffffffffffffffffffffffffffffffffff611b096117a6565b1415611b155781611b17565b835b9050808410611b24578093505b6000611b2f87610e0f565b9050848610611b3d57600090505b60008114611c52578086860311611b545785850390505b600060405194506001820160051b85019050806040526000611b758861127e565b905060008160400151611b8a57816000015190505b60005b7fffffffffffffffffffffffffffffffffffffffffffffffffffffffffffffffff611bb66117a6565b14611be657868a1415611bd1576001611bcd6117a6565b0199505b611bd96117a6565b8a1115611be557600091505b5b611bef8a611db9565b9250604083015160008114611c075760009250611c2d565b835115611c1357835192505b8b831860601b611c2c576001820191508a8260051b8a01525b5b5060018a01995083604052888a1480611c4557508481145b15611b8d57808852505050505b5050509392505050565b611c76828260405180602001604052806000815250612049565b5050565b60008373ffffffffffffffffffffffffffffffffffffffff1663150b7a02611ca0611924565b8786866040518563ffffffff1660e01b8152600401611cc29493929190612c53565b602060405180830381600087803b158015611cdc57600080fd5b505af1925050508015611d0d57506040513d601f19601f82011682018060405250810190611d0a9190612835565b60015b611d66573d8060008114611d3d576040519150601f19603f3d011682016040523d82523d6000602084013e611d42565b606091505b50600081511415611d5e57611d5d63d1a57ed660e01b6115ea565b5b805181602001fd5b63150b7a0260e01b7bffffffffffffffffffffffffffffffffffffffffffffffffffffffff1916817bffffffffffffffffffffffffffffffffffffffffffffffffffffffff191614915050949350505050565b611dc161239a565b611ddd60046000848152602001908152602001600020546120c5565b9050919050565b600080600460008481526020019081526020016000205414159050919050565b6060600a8054611e13906130f5565b80601f0160208091040260200160405190810160405280929190818152602001828054611e3f906130f5565b8015611e8c5780601f10611e6157610100808354040283529160200191611e8c565b820191906000526020600020905b815481529060010190602001808311611e6f57829003601f168201915b5050505050905090565b60606000821415611ede576040518060400160405280600181526020017f30000000000000000000000000000000000000000000000000000000000000008152509050611ff2565b600082905060005b60008214611f10578080611ef990613158565b915050600a82611f099190612f33565b9150611ee6565b60008167ffffffffffffffff811115611f2c57611f2b61328e565b5b6040519080825280601f01601f191660200182016040528015611f5e5781602001600182028036833780820191505090505b5090505b60008514611feb57600182611f779190612fbe565b9150600a85611f8691906131a1565b6030611f929190612edd565b60f81b818381518110611fa857611fa761325f565b5b60200101907effffffffffffffffffffffffffffffffffffffffffffffffffffffffffffff1916908160001a905350600a85611fe49190612f33565b9450611f62565b8093505050505b919050565b60007c0100000000000000000000000000000000000000000000000000000000821673ffffffffffffffffffffffffffffffffffffffff8316119050919050565b600033905090565b60009392505050565b612053838361217b565b60008373ffffffffffffffffffffffffffffffffffffffff163b146120c057600080549050600083820390505b6120936000868380600101945086611c7a565b6120a8576120a763d1a57ed660e01b6115ea565b5b8181106120805781600054146120bd57600080fd5b50505b505050565b6120cd61239a565b81816000019073ffffffffffffffffffffffffffffffffffffffff16908173ffffffffffffffffffffffffffffffffffffffff168152505060a082901c816020019067ffffffffffffffff16908167ffffffffffffffff168152505060007c01000000000000000000000000000000000000000000000000000000008316141581604001901515908115158152505060e882901c816060019062ffffff16908162ffffff1681525050919050565b600080549050600082141561219b5761219a63b562e8dd60e01b6115ea565b5b6121a86000848385611970565b6121c8836121b96000866000611976565b6121c285612304565b1761199e565b6004600083815260200190815260200160002081905550600160406001901b178202600560008573ffffffffffffffffffffffffffffffffffffffff1673ffffffffffffffffffffffffffffffffffffffff16815260200190815260200160002060008282540192505081905550600073ffffffffffffffffffffffffffffffffffffffff8473ffffffffffffffffffffffffffffffffffffffff16169050600081141561228157612280632e07630060e01b6115ea565b5b6000838301905060008390506122956117a6565b6001830311156122b0576122af6381647e3a60e01b6115ea565b5b5b808360007fddf252ad1be2c89b69c2b068fc378daa952ba7f163c4a11628f55a4df523b3ef600080a4818160010191508114156122b157816000819055505050506122ff60008483856119c9565b505050565b60006001821460e11b9050919050565b828054612320906130f5565b90600052602060002090601f0160209004810192826123425760008555612389565b82601f1061235b57805160ff1916838001178555612389565b82800160010185558215612389579182015b8281111561238857825182559160200191906001019061236d565b5b50905061239691906123e9565b5090565b6040518060800160405280600073ffffffffffffffffffffffffffffffffffffffff168152602001600067ffffffffffffffff168152602001600015158152602001600062ffffff1681525090565b5b808211156124025760008160009055506001016123ea565b5090565b600061241961241484612dbb565b612d96565b905082815260208101848484011115612435576124346132cc565b5b612440848285613089565b509392505050565b600061245b61245684612dec565b612d96565b905082815260208101848484011115612477576124766132cc565b5b612482848285613089565b509392505050565b60008135905061249981613367565b92915050565b60008083601f8401126124b5576124b46132c2565b5b8235905067ffffffffffffffff8111156124d2576124d16132bd565b5b6020830191508360208202830111156124ee576124ed6132c7565b5b9250929050565b6000813590506125048161337e565b92915050565b60008135905061251981613395565b92915050565b60008151905061252e81613395565b92915050565b600082601f830112612549576125486132c2565b5b8135612559848260208601612406565b91505092915050565b600082601f830112612577576125766132c2565b5b8135612587848260208601612448565b91505092915050565b60008135905061259f816133ac565b92915050565b6000602082840312156125bb576125ba6132d6565b5b60006125c98482850161248a565b91505092915050565b600080604083850312156125e9576125e86132d6565b5b60006125f78582860161248a565b92505060206126088582860161248a565b9150509250929050565b60008060006060848603121561262b5761262a6132d6565b5b60006126398682870161248a565b935050602061264a8682870161248a565b925050604061265b86828701612590565b9150509250925092565b6000806000806080858703121561267f5761267e6132d6565b5b600061268d8782880161248a565b945050602061269e8782880161248a565b93505060406126af87828801612590565b925050606085013567ffffffffffffffff8111156126d0576126cf6132d1565b5b6126dc87828801612534565b91505092959194509250565b600080604083850312156126ff576126fe6132d6565b5b600061270d8582860161248a565b925050602061271e858286016124f5565b9150509250929050565b6000806040838503121561273f5761273e6132d6565b5b600061274d8582860161248a565b925050602061275e85828601612590565b9150509250929050565b600080600060608486031215612781576127806132d6565b5b600061278f8682870161248a565b93505060206127a086828701612590565b92505060406127b186828701612590565b9150509250925092565b600080602083850312156127d2576127d16132d6565b5b600083013567ffffffffffffffff8111156127f0576127ef6132d1565b5b6127fc8582860161249f565b92509250509250929050565b60006020828403121561281e5761281d6132d6565b5b600061282c8482850161250a565b91505092915050565b60006020828403121561284b5761284a6132d6565b5b60006128598482850161251f565b91505092915050565b600060208284031215612878576128776132d6565b5b600082013567ffffffffffffffff811115612896576128956132d1565b5b6128a284828501612562565b91505092915050565b6000602082840312156128c1576128c06132d6565b5b60006128cf84828501612590565b91505092915050565b60006128e48383612b0c565b60808301905092915050565b60006128fc8383612bc5565b60208301905092915050565b61291181612ff2565b82525050565b61292081612ff2565b82525050565b600061293182612e3d565b61293b8185612e83565b935061294683612e1d565b8060005b8381101561297757815161295e88826128d8565b975061296983612e69565b92505060018101905061294a565b5085935050505092915050565b600061298f82612e48565b6129998185612e94565b93506129a483612e2d565b8060005b838110156129d55781516129bc88826128f0565b97506129c783612e76565b9250506001810190506129a8565b5085935050505092915050565b6129eb81613004565b82525050565b6129fa81613004565b82525050565b6000612a0b82612e53565b612a158185612ea5565b9350612a25818560208601613098565b612a2e816132db565b840191505092915050565b6000612a4482612e5e565b612a4e8185612ec1565b9350612a5e818560208601613098565b612a67816132db565b840191505092915050565b6000612a7d82612e5e565b612a878185612ed2565b9350612a97818560208601613098565b80840191505092915050565b6000612ab0602683612ec1565b9150612abb826132ec565b604082019050919050565b6000612ad3602083612ec1565b9150612ade8261333b565b602082019050919050565b6000612af6600083612eb6565b9150612b0182613364565b600082019050919050565b608082016000820151612b226000850182612908565b506020820151612b356020850182612be3565b506040820151612b4860408501826129e2565b506060820151612b5b6060850182612bb6565b50505050565b608082016000820151612b776000850182612908565b506020820151612b8a6020850182612be3565b506040820151612b9d60408501826129e2565b506060820151612bb06060850182612bb6565b50505050565b612bbf8161305c565b82525050565b612bce8161306b565b82525050565b612bdd8161306b565b82525050565b612bec81613075565b82525050565b6000612bfe8286612a72565b9150612c0a8285612a72565b9150612c168284612a72565b9150819050949350505050565b6000612c2e82612ae9565b9150819050919050565b6000602082019050612c4d6000830184612917565b92915050565b6000608082019050612c686000830187612917565b612c756020830186612917565b612c826040830185612bd4565b8181036060830152612c948184612a00565b905095945050505050565b60006020820190508181036000830152612cb98184612926565b905092915050565b60006020820190508181036000830152612cdb8184612984565b905092915050565b6000602082019050612cf860008301846129f1565b92915050565b60006020820190508181036000830152612d188184612a39565b905092915050565b60006020820190508181036000830152612d3981612aa3565b9050919050565b60006020820190508181036000830152612d5981612ac6565b9050919050565b6000608082019050612d756000830184612b61565b92915050565b6000602082019050612d906000830184612bd4565b92915050565b6000612da0612db1565b9050612dac8282613127565b919050565b6000604051905090565b600067ffffffffffffffff821115612dd657612dd561328e565b5b612ddf826132db565b9050602081019050919050565b600067ffffffffffffffff821115612e0757612e0661328e565b5b612e10826132db565b9050602081019050919050565b6000819050602082019050919050565b6000819050602082019050919050565b600081519050919050565b600081519050919050565b600081519050919050565b600081519050919050565b6000602082019050919050565b6000602082019050919050565b600082825260208201905092915050565b600082825260208201905092915050565b600082825260208201905092915050565b600081905092915050565b600082825260208201905092915050565b600081905092915050565b6000612ee88261306b565b9150612ef38361306b565b9250827fffffffffffffffffffffffffffffffffffffffffffffffffffffffffffffffff03821115612f2857612f276131d2565b5b828201905092915050565b6000612f3e8261306b565b9150612f498361306b565b925082612f5957612f58613201565b5b828204905092915050565b6000612f6f8261306b565b9150612f7a8361306b565b9250817fffffffffffffffffffffffffffffffffffffffffffffffffffffffffffffffff0483118215151615612fb357612fb26131d2565b5b828202905092915050565b6000612fc98261306b565b9150612fd48361306b565b925082821015612fe757612fe66131d2565b5b828203905092915050565b6000612ffd8261303c565b9050919050565b60008115159050919050565b60007fffffffff0000000000000000000000000000000000000000000000000000000082169050919050565b600073ffffffffffffffffffffffffffffffffffffffff82169050919050565b600062ffffff82169050919050565b6000819050919050565b600067ffffffffffffffff82169050919050565b82818337600083830152505050565b60005b838110156130b657808201518184015260208101905061309b565b838111156130c5576000848401525b50505050565b60006130d68261306b565b915060008214156130ea576130e96131d2565b5b600182039050919050565b6000600282049050600182168061310d57607f821691505b6020821081141561312157613120613230565b5b50919050565b613130826132db565b810181811067ffffffffffffffff8211171561314f5761314e61328e565b5b80604052505050565b60006131638261306b565b91507fffffffffffffffffffffffffffffffffffffffffffffffffffffffffffffffff821415613196576131956131d2565b5b600182019050919050565b60006131ac8261306b565b91506131b78361306b565b9250826131c7576131c6613201565b5b828206905092915050565b7f4e487b7100000000000000000000000000000000000000000000000000000000600052601160045260246000fd5b7f4e487b7100000000000000000000000000000000000000000000000000000000600052601260045260246000fd5b7f4e487b7100000000000000000000000000000000000000000000000000000000600052602260045260246000fd5b7f4e487b7100000000000000000000000000000000000000000000000000000000600052603260045260246000fd5b7f4e487b7100000000000000000000000000000000000000000000000000000000600052604160045260246000fd5b600080fd5b600080fd5b600080fd5b600080fd5b600080fd5b600080fd5b6000601f19601f8301169050919050565b7f4f776e61626c653a206e6577206f776e657220697320746865207a65726f206160008201527f6464726573730000000000000000000000000000000000000000000000000000602082015250565b7f4f776e61626c653a2063616c6c6572206973206e6f7420746865206f776e6572600082015250565b50565b61337081612ff2565b811461337b57600080fd5b50565b61338781613004565b811461339257600080fd5b50565b61339e81613010565b81146133a957600080fd5b50565b6133b58161306b565b81146133c057600080fd5b5056fea2646970667358221220aace2acbb7c182c6b3b1c96bc794f50780e07808b10186a3544af651c697a1e764736f6c63430008070033",
          "opcodes": "PUSH1 0xA0 PUSH1 0x40 MSTORE PUSH1 0x1 PUSH1 0xD SSTORE CALLVALUE DUP1 ISZERO PUSH3 0x16 JUMPI PUSH1 0x0 DUP1 REVERT JUMPDEST POP PUSH1 0x40 MLOAD PUSH3 0x3843 CODESIZE SUB DUP1 PUSH3 0x3843 DUP4 CODECOPY DUP2 DUP2 ADD PUSH1 0x40 MSTORE DUP2 ADD SWAP1 PUSH3 0x3C SWAP2 SWAP1 PUSH3 0x33D JUMP JUMPDEST PUSH1 0x40 MLOAD DUP1 PUSH1 0x40 ADD PUSH1 0x40 MSTORE DUP1 PUSH1 0x18 DUP2 MSTORE PUSH1 0x20 ADD PUSH32 0x4B727970746F2050756E6B7320436F6C6C65637469626C650000000000000000 DUP2 MSTORE POP PUSH1 0x40 MLOAD DUP1 PUSH1 0x40 ADD PUSH1 0x40 MSTORE DUP1 PUSH1 0x3 DUP2 MSTORE PUSH1 0x20 ADD PUSH32 0x4B50430000000000000000000000000000000000000000000000000000000000 DUP2 MSTORE POP DUP2 PUSH1 0x2 SWAP1 DUP1 MLOAD SWAP1 PUSH1 0x20 ADD SWAP1 PUSH3 0xC0 SWAP3 SWAP2 SWAP1 PUSH3 0x276 JUMP JUMPDEST POP DUP1 PUSH1 0x3 SWAP1 DUP1 MLOAD SWAP1 PUSH1 0x20 ADD SWAP1 PUSH3 0xD9 SWAP3 SWAP2 SWAP1 PUSH3 0x276 JUMP JUMPDEST POP PUSH3 0xEA PUSH3 0x171 PUSH1 0x20 SHL PUSH1 0x20 SHR JUMP JUMPDEST PUSH1 0x0 DUP2 SWAP1 SSTORE POP PUSH3 0x100 PUSH3 0x171 PUSH1 0x20 SHL PUSH1 0x20 SHR JUMP JUMPDEST PUSH3 0x110 PUSH3 0x176 PUSH1 0x20 SHL PUSH1 0x20 SHR JUMP JUMPDEST LT ISZERO PUSH3 0x130 JUMPI PUSH3 0x12F PUSH4 0xFED8210F PUSH1 0xE0 SHL PUSH3 0x19E PUSH1 0x20 SHL PUSH1 0x20 SHR JUMP JUMPDEST JUMPDEST POP POP PUSH3 0x152 PUSH3 0x146 PUSH3 0x1A8 PUSH1 0x20 SHL PUSH1 0x20 SHR JUMP JUMPDEST PUSH3 0x1B0 PUSH1 0x20 SHL PUSH1 0x20 SHR JUMP JUMPDEST DUP2 PUSH1 0xB DUP2 SWAP1 SSTORE POP DUP1 PUSH1 0xC DUP2 SWAP1 SSTORE POP DUP3 PUSH1 0x80 DUP2 DUP2 MSTORE POP POP POP POP POP PUSH3 0x427 JUMP JUMPDEST PUSH1 0x0 SWAP1 JUMP JUMPDEST PUSH1 0x0 PUSH32 0xFFFFFFFFFFFFFFFFFFFFFFFFFFFFFFFFFFFFFFFFFFFFFFFFFFFFFFFFFFFFFFFF SWAP1 POP SWAP1 JUMP JUMPDEST DUP1 PUSH1 0x0 MSTORE PUSH1 0x4 PUSH1 0x0 REVERT JUMPDEST PUSH1 0x0 CALLER SWAP1 POP SWAP1 JUMP JUMPDEST PUSH1 0x0 PUSH1 0x9 PUSH1 0x0 SWAP1 SLOAD SWAP1 PUSH2 0x100 EXP SWAP1 DIV PUSH20 0xFFFFFFFFFFFFFFFFFFFFFFFFFFFFFFFFFFFFFFFF AND SWAP1 POP DUP2 PUSH1 0x9 PUSH1 0x0 PUSH2 0x100 EXP DUP2 SLOAD DUP2 PUSH20 0xFFFFFFFFFFFFFFFFFFFFFFFFFFFFFFFFFFFFFFFF MUL NOT AND SWAP1 DUP4 PUSH20 0xFFFFFFFFFFFFFFFFFFFFFFFFFFFFFFFFFFFFFFFF AND MUL OR SWAP1 SSTORE POP DUP2 PUSH20 0xFFFFFFFFFFFFFFFFFFFFFFFFFFFFFFFFFFFFFFFF AND DUP2 PUSH20 0xFFFFFFFFFFFFFFFFFFFFFFFFFFFFFFFFFFFFFFFF AND PUSH32 0x8BE0079C531659141344CD1FD0A4F28419497F9722A3DAAFE3B4186F6B6457E0 PUSH1 0x40 MLOAD PUSH1 0x40 MLOAD DUP1 SWAP2 SUB SWAP1 LOG3 POP POP JUMP JUMPDEST DUP3 DUP1 SLOAD PUSH3 0x284 SWAP1 PUSH3 0x3A3 JUMP JUMPDEST SWAP1 PUSH1 0x0 MSTORE PUSH1 0x20 PUSH1 0x0 KECCAK256 SWAP1 PUSH1 0x1F ADD PUSH1 0x20 SWAP1 DIV DUP2 ADD SWAP3 DUP3 PUSH3 0x2A8 JUMPI PUSH1 0x0 DUP6 SSTORE PUSH3 0x2F4 JUMP JUMPDEST DUP3 PUSH1 0x1F LT PUSH3 0x2C3 JUMPI DUP1 MLOAD PUSH1 0xFF NOT AND DUP4 DUP1 ADD OR DUP6 SSTORE PUSH3 0x2F4 JUMP JUMPDEST DUP3 DUP1 ADD PUSH1 0x1 ADD DUP6 SSTORE DUP3 ISZERO PUSH3 0x2F4 JUMPI SWAP2 DUP3 ADD JUMPDEST DUP3 DUP2 GT ISZERO PUSH3 0x2F3 JUMPI DUP3 MLOAD DUP3 SSTORE SWAP2 PUSH1 0x20 ADD SWAP2 SWAP1 PUSH1 0x1 ADD SWAP1 PUSH3 0x2D6 JUMP JUMPDEST JUMPDEST POP SWAP1 POP PUSH3 0x303 SWAP2 SWAP1 PUSH3 0x307 JUMP JUMPDEST POP SWAP1 JUMP JUMPDEST JUMPDEST DUP1 DUP3 GT ISZERO PUSH3 0x322 JUMPI PUSH1 0x0 DUP2 PUSH1 0x0 SWAP1 SSTORE POP PUSH1 0x1 ADD PUSH3 0x308 JUMP JUMPDEST POP SWAP1 JUMP JUMPDEST PUSH1 0x0 DUP2 MLOAD SWAP1 POP PUSH3 0x337 DUP2 PUSH3 0x40D JUMP JUMPDEST SWAP3 SWAP2 POP POP JUMP JUMPDEST PUSH1 0x0 DUP1 PUSH1 0x0 PUSH1 0x60 DUP5 DUP7 SUB SLT ISZERO PUSH3 0x359 JUMPI PUSH3 0x358 PUSH3 0x408 JUMP JUMPDEST JUMPDEST PUSH1 0x0 PUSH3 0x369 DUP7 DUP3 DUP8 ADD PUSH3 0x326 JUMP JUMPDEST SWAP4 POP POP PUSH1 0x20 PUSH3 0x37C DUP7 DUP3 DUP8 ADD PUSH3 0x326 JUMP JUMPDEST SWAP3 POP POP PUSH1 0x40 PUSH3 0x38F DUP7 DUP3 DUP8 ADD PUSH3 0x326 JUMP JUMPDEST SWAP2 POP POP SWAP3 POP SWAP3 POP SWAP3 JUMP JUMPDEST PUSH1 0x0 DUP2 SWAP1 POP SWAP2 SWAP1 POP JUMP JUMPDEST PUSH1 0x0 PUSH1 0x2 DUP3 DIV SWAP1 POP PUSH1 0x1 DUP3 AND DUP1 PUSH3 0x3BC JUMPI PUSH1 0x7F DUP3 AND SWAP2 POP JUMPDEST PUSH1 0x20 DUP3 LT DUP2 EQ ISZERO PUSH3 0x3D3 JUMPI PUSH3 0x3D2 PUSH3 0x3D9 JUMP JUMPDEST JUMPDEST POP SWAP2 SWAP1 POP JUMP JUMPDEST PUSH32 0x4E487B7100000000000000000000000000000000000000000000000000000000 PUSH1 0x0 MSTORE PUSH1 0x22 PUSH1 0x4 MSTORE PUSH1 0x24 PUSH1 0x0 REVERT JUMPDEST PUSH1 0x0 DUP1 REVERT JUMPDEST PUSH3 0x418 DUP2 PUSH3 0x399 JUMP JUMPDEST DUP2 EQ PUSH3 0x424 JUMPI PUSH1 0x0 DUP1 REVERT JUMPDEST POP JUMP JUMPDEST PUSH1 0x80 MLOAD PUSH2 0x33F9 PUSH3 0x44A PUSH1 0x0 CODECOPY PUSH1 0x0 DUP2 DUP2 PUSH2 0x101C ADD MSTORE PUSH2 0x1403 ADD MSTORE PUSH2 0x33F9 PUSH1 0x0 RETURN INVALID PUSH1 0x80 PUSH1 0x40 MSTORE PUSH1 0x4 CALLDATASIZE LT PUSH2 0x1EE JUMPI PUSH1 0x0 CALLDATALOAD PUSH1 0xE0 SHR DUP1 PUSH4 0x70A08231 GT PUSH2 0x10D JUMPI DUP1 PUSH4 0xA22CB465 GT PUSH2 0xA0 JUMPI DUP1 PUSH4 0xC6682862 GT PUSH2 0x6F JUMPI DUP1 PUSH4 0xC6682862 EQ PUSH2 0x679 JUMPI DUP1 PUSH4 0xC87B56DD EQ PUSH2 0x6A4 JUMPI DUP1 PUSH4 0xD5ABEB01 EQ PUSH2 0x6E1 JUMPI DUP1 PUSH4 0xE985E9C5 EQ PUSH2 0x70C JUMPI DUP1 PUSH4 0xF2FDE38B EQ PUSH2 0x749 JUMPI PUSH2 0x1EE JUMP JUMPDEST DUP1 PUSH4 0xA22CB465 EQ PUSH2 0x5DB JUMPI DUP1 PUSH4 0xB071401B EQ PUSH2 0x604 JUMPI DUP1 PUSH4 0xB88D4FDE EQ PUSH2 0x620 JUMPI DUP1 PUSH4 0xC23DC68F EQ PUSH2 0x63C JUMPI PUSH2 0x1EE JUMP JUMPDEST DUP1 PUSH4 0x94354FD0 GT PUSH2 0xDC JUMPI DUP1 PUSH4 0x94354FD0 EQ PUSH2 0x52C JUMPI DUP1 PUSH4 0x95D89B41 EQ PUSH2 0x557 JUMPI DUP1 PUSH4 0x99A2557A EQ PUSH2 0x582 JUMPI DUP1 PUSH4 0xA0712D68 EQ PUSH2 0x5BF JUMPI PUSH2 0x1EE JUMP JUMPDEST DUP1 PUSH4 0x70A08231 EQ PUSH2 0x470 JUMPI DUP1 PUSH4 0x715018A6 EQ PUSH2 0x4AD JUMPI DUP1 PUSH4 0x8462151C EQ PUSH2 0x4C4 JUMPI DUP1 PUSH4 0x8DA5CB5B EQ PUSH2 0x501 JUMPI PUSH2 0x1EE JUMP JUMPDEST DUP1 PUSH4 0x3CCFD60B GT PUSH2 0x185 JUMPI DUP1 PUSH4 0x5BBB2177 GT PUSH2 0x154 JUMPI DUP1 PUSH4 0x5BBB2177 EQ PUSH2 0x3A0 JUMPI DUP1 PUSH4 0x5C975ABB EQ PUSH2 0x3DD JUMPI DUP1 PUSH4 0x6352211E EQ PUSH2 0x408 JUMPI DUP1 PUSH4 0x6C0360EB EQ PUSH2 0x445 JUMPI PUSH2 0x1EE JUMP JUMPDEST DUP1 PUSH4 0x3CCFD60B EQ PUSH2 0x342 JUMPI DUP1 PUSH4 0x42842E0E EQ PUSH2 0x34C JUMPI DUP1 PUSH4 0x44A0D68A EQ PUSH2 0x368 JUMPI DUP1 PUSH4 0x55F804B3 EQ PUSH2 0x384 JUMPI PUSH2 0x1EE JUMP JUMPDEST DUP1 PUSH4 0x136439DD GT PUSH2 0x1C1 JUMPI DUP1 PUSH4 0x136439DD EQ PUSH2 0x2B4 JUMPI DUP1 PUSH4 0x13FAEDE6 EQ PUSH2 0x2D0 JUMPI DUP1 PUSH4 0x18160DDD EQ PUSH2 0x2FB JUMPI DUP1 PUSH4 0x23B872DD EQ PUSH2 0x326 JUMPI PUSH2 0x1EE JUMP JUMPDEST DUP1 PUSH4 0x1FFC9A7 EQ PUSH2 0x1F3 JUMPI DUP1 PUSH4 0x6FDDE03 EQ PUSH2 0x230 JUMPI DUP1 PUSH4 0x81812FC EQ PUSH2 0x25B JUMPI DUP1 PUSH4 0x95EA7B3 EQ PUSH2 0x298 JUMPI JUMPDEST PUSH1 0x0 DUP1 REVERT JUMPDEST CALLVALUE DUP1 ISZERO PUSH2 0x1FF JUMPI PUSH1 0x0 DUP1 REVERT JUMPDEST POP PUSH2 0x21A PUSH1 0x4 DUP1 CALLDATASIZE SUB DUP2 ADD SWAP1 PUSH2 0x215 SWAP2 SWAP1 PUSH2 0x2808 JUMP JUMPDEST PUSH2 0x772 JUMP JUMPDEST PUSH1 0x40 MLOAD PUSH2 0x227 SWAP2 SWAP1 PUSH2 0x2CE3 JUMP JUMPDEST PUSH1 0x40 MLOAD DUP1 SWAP2 SUB SWAP1 RETURN JUMPDEST CALLVALUE DUP1 ISZERO PUSH2 0x23C JUMPI PUSH1 0x0 DUP1 REVERT JUMPDEST POP PUSH2 0x245 PUSH2 0x804 JUMP JUMPDEST PUSH1 0x40 MLOAD PUSH2 0x252 SWAP2 SWAP1 PUSH2 0x2CFE JUMP JUMPDEST PUSH1 0x40 MLOAD DUP1 SWAP2 SUB SWAP1 RETURN JUMPDEST CALLVALUE DUP1 ISZERO PUSH2 0x267 JUMPI PUSH1 0x0 DUP1 REVERT JUMPDEST POP PUSH2 0x282 PUSH1 0x4 DUP1 CALLDATASIZE SUB DUP2 ADD SWAP1 PUSH2 0x27D SWAP2 SWAP1 PUSH2 0x28AB JUMP JUMPDEST PUSH2 0x896 JUMP JUMPDEST PUSH1 0x40 MLOAD PUSH2 0x28F SWAP2 SWAP1 PUSH2 0x2C38 JUMP JUMPDEST PUSH1 0x40 MLOAD DUP1 SWAP2 SUB SWAP1 RETURN JUMPDEST PUSH2 0x2B2 PUSH1 0x4 DUP1 CALLDATASIZE SUB DUP2 ADD SWAP1 PUSH2 0x2AD SWAP2 SWAP1 PUSH2 0x2728 JUMP JUMPDEST PUSH2 0x8F4 JUMP JUMPDEST STOP JUMPDEST PUSH2 0x2CE PUSH1 0x4 DUP1 CALLDATASIZE SUB DUP2 ADD SWAP1 PUSH2 0x2C9 SWAP2 SWAP1 PUSH2 0x28AB JUMP JUMPDEST PUSH2 0x904 JUMP JUMPDEST STOP JUMPDEST CALLVALUE DUP1 ISZERO PUSH2 0x2DC JUMPI PUSH1 0x0 DUP1 REVERT JUMPDEST POP PUSH2 0x2E5 PUSH2 0x916 JUMP JUMPDEST PUSH1 0x40 MLOAD PUSH2 0x2F2 SWAP2 SWAP1 PUSH2 0x2D7B JUMP JUMPDEST PUSH1 0x40 MLOAD DUP1 SWAP2 SUB SWAP1 RETURN JUMPDEST CALLVALUE DUP1 ISZERO PUSH2 0x307 JUMPI PUSH1 0x0 DUP1 REVERT JUMPDEST POP PUSH2 0x310 PUSH2 0x91C JUMP JUMPDEST PUSH1 0x40 MLOAD PUSH2 0x31D SWAP2 SWAP1 PUSH2 0x2D7B JUMP JUMPDEST PUSH1 0x40 MLOAD DUP1 SWAP2 SUB SWAP1 RETURN JUMPDEST PUSH2 0x340 PUSH1 0x4 DUP1 CALLDATASIZE SUB DUP2 ADD SWAP1 PUSH2 0x33B SWAP2 SWAP1 PUSH2 0x2612 JUMP JUMPDEST PUSH2 0x969 JUMP JUMPDEST STOP JUMPDEST PUSH2 0x34A PUSH2 0xC2D JUMP JUMPDEST STOP JUMPDEST PUSH2 0x366 PUSH1 0x4 DUP1 CALLDATASIZE SUB DUP2 ADD SWAP1 PUSH2 0x361 SWAP2 SWAP1 PUSH2 0x2612 JUMP JUMPDEST PUSH2 0xCB5 JUMP JUMPDEST STOP JUMPDEST PUSH2 0x382 PUSH1 0x4 DUP1 CALLDATASIZE SUB DUP2 ADD SWAP1 PUSH2 0x37D SWAP2 SWAP1 PUSH2 0x28AB JUMP JUMPDEST PUSH2 0xCD5 JUMP JUMPDEST STOP JUMPDEST PUSH2 0x39E PUSH1 0x4 DUP1 CALLDATASIZE SUB DUP2 ADD SWAP1 PUSH2 0x399 SWAP2 SWAP1 PUSH2 0x2862 JUMP JUMPDEST PUSH2 0xCE7 JUMP JUMPDEST STOP JUMPDEST CALLVALUE DUP1 ISZERO PUSH2 0x3AC JUMPI PUSH1 0x0 DUP1 REVERT JUMPDEST POP PUSH2 0x3C7 PUSH1 0x4 DUP1 CALLDATASIZE SUB DUP2 ADD SWAP1 PUSH2 0x3C2 SWAP2 SWAP1 PUSH2 0x27BB JUMP JUMPDEST PUSH2 0xD09 JUMP JUMPDEST PUSH1 0x40 MLOAD PUSH2 0x3D4 SWAP2 SWAP1 PUSH2 0x2C9F JUMP JUMPDEST PUSH1 0x40 MLOAD DUP1 SWAP2 SUB SWAP1 RETURN JUMPDEST CALLVALUE DUP1 ISZERO PUSH2 0x3E9 JUMPI PUSH1 0x0 DUP1 REVERT JUMPDEST POP PUSH2 0x3F2 PUSH2 0xD69 JUMP JUMPDEST PUSH1 0x40 MLOAD PUSH2 0x3FF SWAP2 SWAP1 PUSH2 0x2D7B JUMP JUMPDEST PUSH1 0x40 MLOAD DUP1 SWAP2 SUB SWAP1 RETURN JUMPDEST CALLVALUE DUP1 ISZERO PUSH2 0x414 JUMPI PUSH1 0x0 DUP1 REVERT JUMPDEST POP PUSH2 0x42F PUSH1 0x4 DUP1 CALLDATASIZE SUB DUP2 ADD SWAP1 PUSH2 0x42A SWAP2 SWAP1 PUSH2 0x28AB JUMP JUMPDEST PUSH2 0xD6F JUMP JUMPDEST PUSH1 0x40 MLOAD PUSH2 0x43C SWAP2 SWAP1 PUSH2 0x2C38 JUMP JUMPDEST PUSH1 0x40 MLOAD DUP1 SWAP2 SUB SWAP1 RETURN JUMPDEST CALLVALUE DUP1 ISZERO PUSH2 0x451 JUMPI PUSH1 0x0 DUP1 REVERT JUMPDEST POP PUSH2 0x45A PUSH2 0xD81 JUMP JUMPDEST PUSH1 0x40 MLOAD PUSH2 0x467 SWAP2 SWAP1 PUSH2 0x2CFE JUMP JUMPDEST PUSH1 0x40 MLOAD DUP1 SWAP2 SUB SWAP1 RETURN JUMPDEST CALLVALUE DUP1 ISZERO PUSH2 0x47C JUMPI PUSH1 0x0 DUP1 REVERT JUMPDEST POP PUSH2 0x497 PUSH1 0x4 DUP1 CALLDATASIZE SUB DUP2 ADD SWAP1 PUSH2 0x492 SWAP2 SWAP1 PUSH2 0x25A5 JUMP JUMPDEST PUSH2 0xE0F JUMP JUMPDEST PUSH1 0x40 MLOAD PUSH2 0x4A4 SWAP2 SWAP1 PUSH2 0x2D7B JUMP JUMPDEST PUSH1 0x40 MLOAD DUP1 SWAP2 SUB SWAP1 RETURN JUMPDEST CALLVALUE DUP1 ISZERO PUSH2 0x4B9 JUMPI PUSH1 0x0 DUP1 REVERT JUMPDEST POP PUSH2 0x4C2 PUSH2 0xEA7 JUMP JUMPDEST STOP JUMPDEST CALLVALUE DUP1 ISZERO PUSH2 0x4D0 JUMPI PUSH1 0x0 DUP1 REVERT JUMPDEST POP PUSH2 0x4EB PUSH1 0x4 DUP1 CALLDATASIZE SUB DUP2 ADD SWAP1 PUSH2 0x4E6 SWAP2 SWAP1 PUSH2 0x25A5 JUMP JUMPDEST PUSH2 0xEBB JUMP JUMPDEST PUSH1 0x40 MLOAD PUSH2 0x4F8 SWAP2 SWAP1 PUSH2 0x2CC1 JUMP JUMPDEST PUSH1 0x40 MLOAD DUP1 SWAP2 SUB SWAP1 RETURN JUMPDEST CALLVALUE DUP1 ISZERO PUSH2 0x50D JUMPI PUSH1 0x0 DUP1 REVERT JUMPDEST POP PUSH2 0x516 PUSH2 0xF36 JUMP JUMPDEST PUSH1 0x40 MLOAD PUSH2 0x523 SWAP2 SWAP1 PUSH2 0x2C38 JUMP JUMPDEST PUSH1 0x40 MLOAD DUP1 SWAP2 SUB SWAP1 RETURN JUMPDEST CALLVALUE DUP1 ISZERO PUSH2 0x538 JUMPI PUSH1 0x0 DUP1 REVERT JUMPDEST POP PUSH2 0x541 PUSH2 0xF60 JUMP JUMPDEST PUSH1 0x40 MLOAD PUSH2 0x54E SWAP2 SWAP1 PUSH2 0x2D7B JUMP JUMPDEST PUSH1 0x40 MLOAD DUP1 SWAP2 SUB SWAP1 RETURN JUMPDEST CALLVALUE DUP1 ISZERO PUSH2 0x563 JUMPI PUSH1 0x0 DUP1 REVERT JUMPDEST POP PUSH2 0x56C PUSH2 0xF66 JUMP JUMPDEST PUSH1 0x40 MLOAD PUSH2 0x579 SWAP2 SWAP1 PUSH2 0x2CFE JUMP JUMPDEST PUSH1 0x40 MLOAD DUP1 SWAP2 SUB SWAP1 RETURN JUMPDEST CALLVALUE DUP1 ISZERO PUSH2 0x58E JUMPI PUSH1 0x0 DUP1 REVERT JUMPDEST POP PUSH2 0x5A9 PUSH1 0x4 DUP1 CALLDATASIZE SUB DUP2 ADD SWAP1 PUSH2 0x5A4 SWAP2 SWAP1 PUSH2 0x2768 JUMP JUMPDEST PUSH2 0xFF8 JUMP JUMPDEST PUSH1 0x40 MLOAD PUSH2 0x5B6 SWAP2 SWAP1 PUSH2 0x2CC1 JUMP JUMPDEST PUSH1 0x40 MLOAD DUP1 SWAP2 SUB SWAP1 RETURN JUMPDEST PUSH2 0x5D9 PUSH1 0x4 DUP1 CALLDATASIZE SUB DUP2 ADD SWAP1 PUSH2 0x5D4 SWAP2 SWAP1 PUSH2 0x28AB JUMP JUMPDEST PUSH2 0x100E JUMP JUMPDEST STOP JUMPDEST CALLVALUE DUP1 ISZERO PUSH2 0x5E7 JUMPI PUSH1 0x0 DUP1 REVERT JUMPDEST POP PUSH2 0x602 PUSH1 0x4 DUP1 CALLDATASIZE SUB DUP2 ADD SWAP1 PUSH2 0x5FD SWAP2 SWAP1 PUSH2 0x26E8 JUMP JUMPDEST PUSH2 0x110F JUMP JUMPDEST STOP JUMPDEST PUSH2 0x61E PUSH1 0x4 DUP1 CALLDATASIZE SUB DUP2 ADD SWAP1 PUSH2 0x619 SWAP2 SWAP1 PUSH2 0x28AB JUMP JUMPDEST PUSH2 0x121A JUMP JUMPDEST STOP JUMPDEST PUSH2 0x63A PUSH1 0x4 DUP1 CALLDATASIZE SUB DUP2 ADD SWAP1 PUSH2 0x635 SWAP2 SWAP1 PUSH2 0x2665 JUMP JUMPDEST PUSH2 0x122C JUMP JUMPDEST STOP JUMPDEST CALLVALUE DUP1 ISZERO PUSH2 0x648 JUMPI PUSH1 0x0 DUP1 REVERT JUMPDEST POP PUSH2 0x663 PUSH1 0x4 DUP1 CALLDATASIZE SUB DUP2 ADD SWAP1 PUSH2 0x65E SWAP2 SWAP1 PUSH2 0x28AB JUMP JUMPDEST PUSH2 0x127E JUMP JUMPDEST PUSH1 0x40 MLOAD PUSH2 0x670 SWAP2 SWAP1 PUSH2 0x2D60 JUMP JUMPDEST PUSH1 0x40 MLOAD DUP1 SWAP2 SUB SWAP1 RETURN JUMPDEST CALLVALUE DUP1 ISZERO PUSH2 0x685 JUMPI PUSH1 0x0 DUP1 REVERT JUMPDEST POP PUSH2 0x68E PUSH2 0x12F3 JUMP JUMPDEST PUSH1 0x40 MLOAD PUSH2 0x69B SWAP2 SWAP1 PUSH2 0x2CFE JUMP JUMPDEST PUSH1 0x40 MLOAD DUP1 SWAP2 SUB SWAP1 RETURN JUMPDEST CALLVALUE DUP1 ISZERO PUSH2 0x6B0 JUMPI PUSH1 0x0 DUP1 REVERT JUMPDEST POP PUSH2 0x6CB PUSH1 0x4 DUP1 CALLDATASIZE SUB DUP2 ADD SWAP1 PUSH2 0x6C6 SWAP2 SWAP1 PUSH2 0x28AB JUMP JUMPDEST PUSH2 0x132C JUMP JUMPDEST PUSH1 0x40 MLOAD PUSH2 0x6D8 SWAP2 SWAP1 PUSH2 0x2CFE JUMP JUMPDEST PUSH1 0x40 MLOAD DUP1 SWAP2 SUB SWAP1 RETURN JUMPDEST CALLVALUE DUP1 ISZERO PUSH2 0x6ED JUMPI PUSH1 0x0 DUP1 REVERT JUMPDEST POP PUSH2 0x6F6 PUSH2 0x1401 JUMP JUMPDEST PUSH1 0x40 MLOAD PUSH2 0x703 SWAP2 SWAP1 PUSH2 0x2D7B JUMP JUMPDEST PUSH1 0x40 MLOAD DUP1 SWAP2 SUB SWAP1 RETURN JUMPDEST CALLVALUE DUP1 ISZERO PUSH2 0x718 JUMPI PUSH1 0x0 DUP1 REVERT JUMPDEST POP PUSH2 0x733 PUSH1 0x4 DUP1 CALLDATASIZE SUB DUP2 ADD SWAP1 PUSH2 0x72E SWAP2 SWAP1 PUSH2 0x25D2 JUMP JUMPDEST PUSH2 0x1425 JUMP JUMPDEST PUSH1 0x40 MLOAD PUSH2 0x740 SWAP2 SWAP1 PUSH2 0x2CE3 JUMP JUMPDEST PUSH1 0x40 MLOAD DUP1 SWAP2 SUB SWAP1 RETURN JUMPDEST CALLVALUE DUP1 ISZERO PUSH2 0x755 JUMPI PUSH1 0x0 DUP1 REVERT JUMPDEST POP PUSH2 0x770 PUSH1 0x4 DUP1 CALLDATASIZE SUB DUP2 ADD SWAP1 PUSH2 0x76B SWAP2 SWAP1 PUSH2 0x25A5 JUMP JUMPDEST PUSH2 0x14B9 JUMP JUMPDEST STOP JUMPDEST PUSH1 0x0 PUSH4 0x1FFC9A7 PUSH1 0xE0 SHL DUP3 PUSH28 0xFFFFFFFFFFFFFFFFFFFFFFFFFFFFFFFFFFFFFFFFFFFFFFFFFFFFFFFF NOT AND EQ DUP1 PUSH2 0x7CD JUMPI POP PUSH4 0x80AC58CD PUSH1 0xE0 SHL DUP3 PUSH28 0xFFFFFFFFFFFFFFFFFFFFFFFFFFFFFFFFFFFFFFFFFFFFFFFFFFFFFFFF NOT AND EQ JUMPDEST DUP1 PUSH2 0x7FD JUMPI POP PUSH4 0x5B5E139F PUSH1 0xE0 SHL DUP3 PUSH28 0xFFFFFFFFFFFFFFFFFFFFFFFFFFFFFFFFFFFFFFFFFFFFFFFFFFFFFFFF NOT AND EQ JUMPDEST SWAP1 POP SWAP2 SWAP1 POP JUMP JUMPDEST PUSH1 0x60 PUSH1 0x2 DUP1 SLOAD PUSH2 0x813 SWAP1 PUSH2 0x30F5 JUMP JUMPDEST DUP1 PUSH1 0x1F ADD PUSH1 0x20 DUP1 SWAP2 DIV MUL PUSH1 0x20 ADD PUSH1 0x40 MLOAD SWAP1 DUP2 ADD PUSH1 0x40 MSTORE DUP1 SWAP3 SWAP2 SWAP1 DUP2 DUP2 MSTORE PUSH1 0x20 ADD DUP3 DUP1 SLOAD PUSH2 0x83F SWAP1 PUSH2 0x30F5 JUMP JUMPDEST DUP1 ISZERO PUSH2 0x88C JUMPI DUP1 PUSH1 0x1F LT PUSH2 0x861 JUMPI PUSH2 0x100 DUP1 DUP4 SLOAD DIV MUL DUP4 MSTORE SWAP2 PUSH1 0x20 ADD SWAP2 PUSH2 0x88C JUMP JUMPDEST DUP3 ADD SWAP2 SWAP1 PUSH1 0x0 MSTORE PUSH1 0x20 PUSH1 0x0 KECCAK256 SWAP1 JUMPDEST DUP2 SLOAD DUP2 MSTORE SWAP1 PUSH1 0x1 ADD SWAP1 PUSH1 0x20 ADD DUP1 DUP4 GT PUSH2 0x86F JUMPI DUP3 SWAP1 SUB PUSH1 0x1F AND DUP3 ADD SWAP2 JUMPDEST POP POP POP POP POP SWAP1 POP SWAP1 JUMP JUMPDEST PUSH1 0x0 PUSH2 0x8A1 DUP3 PUSH2 0x153D JUMP JUMPDEST PUSH2 0x8B6 JUMPI PUSH2 0x8B5 PUSH4 0xCF4700E4 PUSH1 0xE0 SHL PUSH2 0x15EA JUMP JUMPDEST JUMPDEST PUSH1 0x6 PUSH1 0x0 DUP4 DUP2 MSTORE PUSH1 0x20 ADD SWAP1 DUP2 MSTORE PUSH1 0x20 ADD PUSH1 0x0 KECCAK256 PUSH1 0x0 ADD PUSH1 0x0 SWAP1 SLOAD SWAP1 PUSH2 0x100 EXP SWAP1 DIV PUSH20 0xFFFFFFFFFFFFFFFFFFFFFFFFFFFFFFFFFFFFFFFF AND SWAP1 POP SWAP2 SWAP1 POP JUMP JUMPDEST PUSH2 0x900 DUP3 DUP3 PUSH1 0x1 PUSH2 0x15F4 JUMP JUMPDEST POP POP JUMP JUMPDEST PUSH2 0x90C PUSH2 0x1723 JUMP JUMPDEST DUP1 PUSH1 0xD DUP2 SWAP1 SSTORE POP POP JUMP JUMPDEST PUSH1 0xB SLOAD DUP2 JUMP JUMPDEST PUSH1 0x0 PUSH2 0x926 PUSH2 0x17A1 JUMP JUMPDEST PUSH1 0x1 SLOAD PUSH1 0x0 SLOAD SUB SUB SWAP1 POP PUSH32 0xFFFFFFFFFFFFFFFFFFFFFFFFFFFFFFFFFFFFFFFFFFFFFFFFFFFFFFFFFFFFFFFF PUSH2 0x959 PUSH2 0x17A6 JUMP JUMPDEST EQ PUSH2 0x966 JUMPI PUSH1 0x8 SLOAD DUP2 ADD SWAP1 POP JUMPDEST SWAP1 JUMP JUMPDEST PUSH1 0x0 PUSH2 0x974 DUP3 PUSH2 0x17CE JUMP JUMPDEST SWAP1 POP PUSH20 0xFFFFFFFFFFFFFFFFFFFFFFFFFFFFFFFFFFFFFFFF DUP5 PUSH20 0xFFFFFFFFFFFFFFFFFFFFFFFFFFFFFFFFFFFFFFFF AND AND SWAP4 POP DUP4 PUSH20 0xFFFFFFFFFFFFFFFFFFFFFFFFFFFFFFFFFFFFFFFF AND DUP2 PUSH20 0xFFFFFFFFFFFFFFFFFFFFFFFFFFFFFFFFFFFFFFFF AND EQ PUSH2 0x9E9 JUMPI PUSH2 0x9E8 PUSH4 0xA1148100 PUSH1 0xE0 SHL PUSH2 0x15EA JUMP JUMPDEST JUMPDEST PUSH1 0x0 DUP1 PUSH2 0x9F5 DUP5 PUSH2 0x18FD JUMP JUMPDEST SWAP2 POP SWAP2 POP PUSH2 0xA0B DUP2 DUP8 PUSH2 0xA06 PUSH2 0x1924 JUMP JUMPDEST PUSH2 0x192C JUMP JUMPDEST PUSH2 0xA36 JUMPI PUSH2 0xA20 DUP7 PUSH2 0xA1B PUSH2 0x1924 JUMP JUMPDEST PUSH2 0x1425 JUMP JUMPDEST PUSH2 0xA35 JUMPI PUSH2 0xA34 PUSH4 0x59C896BE PUSH1 0xE0 SHL PUSH2 0x15EA JUMP JUMPDEST JUMPDEST JUMPDEST PUSH2 0xA43 DUP7 DUP7 DUP7 PUSH1 0x1 PUSH2 0x1970 JUMP JUMPDEST DUP1 ISZERO PUSH2 0xA4E JUMPI PUSH1 0x0 DUP3 SSTORE JUMPDEST PUSH1 0x5 PUSH1 0x0 DUP8 PUSH20 0xFFFFFFFFFFFFFFFFFFFFFFFFFFFFFFFFFFFFFFFF AND PUSH20 0xFFFFFFFFFFFFFFFFFFFFFFFFFFFFFFFFFFFFFFFF AND DUP2 MSTORE PUSH1 0x20 ADD SWAP1 DUP2 MSTORE PUSH1 0x20 ADD PUSH1 0x0 KECCAK256 PUSH1 0x0 DUP2 SLOAD PUSH1 0x1 SWAP1 SUB SWAP2 SWAP1 POP DUP2 SWAP1 SSTORE POP PUSH1 0x5 PUSH1 0x0 DUP7 PUSH20 0xFFFFFFFFFFFFFFFFFFFFFFFFFFFFFFFFFFFFFFFF AND PUSH20 0xFFFFFFFFFFFFFFFFFFFFFFFFFFFFFFFFFFFFFFFF AND DUP2 MSTORE PUSH1 0x20 ADD SWAP1 DUP2 MSTORE PUSH1 0x20 ADD PUSH1 0x0 KECCAK256 PUSH1 0x0 DUP2 SLOAD PUSH1 0x1 ADD SWAP2 SWAP1 POP DUP2 SWAP1 SSTORE POP PUSH2 0xB1C DUP6 PUSH2 0xAF8 DUP9 DUP9 DUP8 PUSH2 0x1976 JUMP JUMPDEST PUSH29 0x200000000000000000000000000000000000000000000000000000000 OR PUSH2 0x199E JUMP JUMPDEST PUSH1 0x4 PUSH1 0x0 DUP7 DUP2 MSTORE PUSH1 0x20 ADD SWAP1 DUP2 MSTORE PUSH1 0x20 ADD PUSH1 0x0 KECCAK256 DUP2 SWAP1 SSTORE POP PUSH1 0x0 PUSH29 0x200000000000000000000000000000000000000000000000000000000 DUP5 AND EQ ISZERO PUSH2 0xBA4 JUMPI PUSH1 0x0 PUSH1 0x1 DUP6 ADD SWAP1 POP PUSH1 0x0 PUSH1 0x4 PUSH1 0x0 DUP4 DUP2 MSTORE PUSH1 0x20 ADD SWAP1 DUP2 MSTORE PUSH1 0x20 ADD PUSH1 0x0 KECCAK256 SLOAD EQ ISZERO PUSH2 0xBA2 JUMPI PUSH1 0x0 SLOAD DUP2 EQ PUSH2 0xBA1 JUMPI DUP4 PUSH1 0x4 PUSH1 0x0 DUP4 DUP2 MSTORE PUSH1 0x20 ADD SWAP1 DUP2 MSTORE PUSH1 0x20 ADD PUSH1 0x0 KECCAK256 DUP2 SWAP1 SSTORE POP JUMPDEST JUMPDEST POP JUMPDEST PUSH1 0x0 PUSH20 0xFFFFFFFFFFFFFFFFFFFFFFFFFFFFFFFFFFFFFFFF DUP7 PUSH20 0xFFFFFFFFFFFFFFFFFFFFFFFFFFFFFFFFFFFFFFFF AND AND SWAP1 POP DUP5 DUP2 DUP9 PUSH32 0xDDF252AD1BE2C89B69C2B068FC378DAA952BA7F163C4A11628F55A4DF523B3EF PUSH1 0x0 DUP1 LOG4 PUSH1 0x0 DUP2 EQ ISZERO PUSH2 0xC17 JUMPI PUSH2 0xC16 PUSH4 0xEA553B34 PUSH1 0xE0 SHL PUSH2 0x15EA JUMP JUMPDEST JUMPDEST PUSH2 0xC24 DUP8 DUP8 DUP8 PUSH1 0x1 PUSH2 0x19C9 JUMP JUMPDEST POP POP POP POP POP POP POP JUMP JUMPDEST PUSH2 0xC35 PUSH2 0x1723 JUMP JUMPDEST PUSH1 0x0 PUSH2 0xC3F PUSH2 0xF36 JUMP JUMPDEST PUSH20 0xFFFFFFFFFFFFFFFFFFFFFFFFFFFFFFFFFFFFFFFF AND SELFBALANCE PUSH1 0x40 MLOAD PUSH2 0xC62 SWAP1 PUSH2 0x2C23 JUMP JUMPDEST PUSH1 0x0 PUSH1 0x40 MLOAD DUP1 DUP4 SUB DUP2 DUP6 DUP8 GAS CALL SWAP3 POP POP POP RETURNDATASIZE DUP1 PUSH1 0x0 DUP2 EQ PUSH2 0xC9F JUMPI PUSH1 0x40 MLOAD SWAP2 POP PUSH1 0x1F NOT PUSH1 0x3F RETURNDATASIZE ADD AND DUP3 ADD PUSH1 0x40 MSTORE RETURNDATASIZE DUP3 MSTORE RETURNDATASIZE PUSH1 0x0 PUSH1 0x20 DUP5 ADD RETURNDATACOPY PUSH2 0xCA4 JUMP JUMPDEST PUSH1 0x60 SWAP2 POP JUMPDEST POP POP SWAP1 POP DUP1 PUSH2 0xCB2 JUMPI PUSH1 0x0 DUP1 REVERT JUMPDEST POP JUMP JUMPDEST PUSH2 0xCD0 DUP4 DUP4 DUP4 PUSH1 0x40 MLOAD DUP1 PUSH1 0x20 ADD PUSH1 0x40 MSTORE DUP1 PUSH1 0x0 DUP2 MSTORE POP PUSH2 0x122C JUMP JUMPDEST POP POP POP JUMP JUMPDEST PUSH2 0xCDD PUSH2 0x1723 JUMP JUMPDEST DUP1 PUSH1 0xB DUP2 SWAP1 SSTORE POP POP JUMP JUMPDEST PUSH2 0xCEF PUSH2 0x1723 JUMP JUMPDEST DUP1 PUSH1 0xA SWAP1 DUP1 MLOAD SWAP1 PUSH1 0x20 ADD SWAP1 PUSH2 0xD05 SWAP3 SWAP2 SWAP1 PUSH2 0x2314 JUMP JUMPDEST POP POP JUMP JUMPDEST PUSH1 0x60 DUP1 PUSH1 0x0 DUP5 DUP5 SWAP1 POP SWAP1 POP PUSH1 0x40 MLOAD SWAP2 POP DUP1 DUP3 MSTORE DUP1 PUSH1 0x5 SHL SWAP1 POP DUP1 PUSH1 0x20 DUP4 ADD ADD PUSH1 0x40 MSTORE JUMPDEST PUSH1 0x0 DUP2 EQ PUSH2 0xD5E JUMPI PUSH1 0x0 PUSH1 0x20 DUP3 SUB SWAP2 POP DUP2 DUP7 ADD CALLDATALOAD SWAP1 POP PUSH1 0x0 PUSH2 0xD4D DUP3 PUSH2 0x127E JUMP JUMPDEST SWAP1 POP DUP1 DUP4 PUSH1 0x20 DUP7 ADD ADD MSTORE POP POP PUSH2 0xD2C JUMP JUMPDEST DUP2 SWAP3 POP POP POP SWAP3 SWAP2 POP POP JUMP JUMPDEST PUSH1 0xD SLOAD DUP2 JUMP JUMPDEST PUSH1 0x0 PUSH2 0xD7A DUP3 PUSH2 0x17CE JUMP JUMPDEST SWAP1 POP SWAP2 SWAP1 POP JUMP JUMPDEST PUSH1 0xA DUP1 SLOAD PUSH2 0xD8E SWAP1 PUSH2 0x30F5 JUMP JUMPDEST DUP1 PUSH1 0x1F ADD PUSH1 0x20 DUP1 SWAP2 DIV MUL PUSH1 0x20 ADD PUSH1 0x40 MLOAD SWAP1 DUP2 ADD PUSH1 0x40 MSTORE DUP1 SWAP3 SWAP2 SWAP1 DUP2 DUP2 MSTORE PUSH1 0x20 ADD DUP3 DUP1 SLOAD PUSH2 0xDBA SWAP1 PUSH2 0x30F5 JUMP JUMPDEST DUP1 ISZERO PUSH2 0xE07 JUMPI DUP1 PUSH1 0x1F LT PUSH2 0xDDC JUMPI PUSH2 0x100 DUP1 DUP4 SLOAD DIV MUL DUP4 MSTORE SWAP2 PUSH1 0x20 ADD SWAP2 PUSH2 0xE07 JUMP JUMPDEST DUP3 ADD SWAP2 SWAP1 PUSH1 0x0 MSTORE PUSH1 0x20 PUSH1 0x0 KECCAK256 SWAP1 JUMPDEST DUP2 SLOAD DUP2 MSTORE SWAP1 PUSH1 0x1 ADD SWAP1 PUSH1 0x20 ADD DUP1 DUP4 GT PUSH2 0xDEA JUMPI DUP3 SWAP1 SUB PUSH1 0x1F AND DUP3 ADD SWAP2 JUMPDEST POP POP POP POP POP DUP2 JUMP JUMPDEST PUSH1 0x0 DUP1 PUSH20 0xFFFFFFFFFFFFFFFFFFFFFFFFFFFFFFFFFFFFFFFF AND DUP3 PUSH20 0xFFFFFFFFFFFFFFFFFFFFFFFFFFFFFFFFFFFFFFFF AND EQ ISZERO PUSH2 0xE56 JUMPI PUSH2 0xE55 PUSH4 0x8F4EB604 PUSH1 0xE0 SHL PUSH2 0x15EA JUMP JUMPDEST JUMPDEST PUSH8 0xFFFFFFFFFFFFFFFF PUSH1 0x5 PUSH1 0x0 DUP5 PUSH20 0xFFFFFFFFFFFFFFFFFFFFFFFFFFFFFFFFFFFFFFFF AND PUSH20 0xFFFFFFFFFFFFFFFFFFFFFFFFFFFFFFFFFFFFFFFF AND DUP2 MSTORE PUSH1 0x20 ADD SWAP1 DUP2 MSTORE PUSH1 0x20 ADD PUSH1 0x0 KECCAK256 SLOAD AND SWAP1 POP SWAP2 SWAP1 POP JUMP JUMPDEST PUSH2 0xEAF PUSH2 0x1723 JUMP JUMPDEST PUSH2 0xEB9 PUSH1 0x0 PUSH2 0x19CF JUMP JUMPDEST JUMP JUMPDEST PUSH1 0x60 PUSH32 0xFFFFFFFFFFFFFFFFFFFFFFFFFFFFFFFFFFFFFFFFFFFFFFFFFFFFFFFFFFFFFFFF PUSH2 0xEE6 PUSH2 0x17A6 JUMP JUMPDEST EQ PUSH2 0xEFC JUMPI PUSH2 0xEFB PUSH4 0xBDBA09D7 PUSH1 0xE0 SHL PUSH2 0x15EA JUMP JUMPDEST JUMPDEST PUSH1 0x0 PUSH2 0xF06 PUSH2 0x17A1 JUMP JUMPDEST SWAP1 POP PUSH1 0x0 PUSH2 0xF12 PUSH2 0x1A95 JUMP JUMPDEST SWAP1 POP PUSH1 0x60 DUP2 DUP4 EQ PUSH2 0xF2B JUMPI PUSH2 0xF28 DUP6 DUP5 DUP5 PUSH2 0x1A9E JUMP JUMPDEST SWAP1 POP JUMPDEST DUP1 SWAP4 POP POP POP POP SWAP2 SWAP1 POP JUMP JUMPDEST PUSH1 0x0 PUSH1 0x9 PUSH1 0x0 SWAP1 SLOAD SWAP1 PUSH2 0x100 EXP SWAP1 DIV PUSH20 0xFFFFFFFFFFFFFFFFFFFFFFFFFFFFFFFFFFFFFFFF AND SWAP1 POP SWAP1 JUMP JUMPDEST PUSH1 0xC SLOAD DUP2 JUMP JUMPDEST PUSH1 0x60 PUSH1 0x3 DUP1 SLOAD PUSH2 0xF75 SWAP1 PUSH2 0x30F5 JUMP JUMPDEST DUP1 PUSH1 0x1F ADD PUSH1 0x20 DUP1 SWAP2 DIV MUL PUSH1 0x20 ADD PUSH1 0x40 MLOAD SWAP1 DUP2 ADD PUSH1 0x40 MSTORE DUP1 SWAP3 SWAP2 SWAP1 DUP2 DUP2 MSTORE PUSH1 0x20 ADD DUP3 DUP1 SLOAD PUSH2 0xFA1 SWAP1 PUSH2 0x30F5 JUMP JUMPDEST DUP1 ISZERO PUSH2 0xFEE JUMPI DUP1 PUSH1 0x1F LT PUSH2 0xFC3 JUMPI PUSH2 0x100 DUP1 DUP4 SLOAD DIV MUL DUP4 MSTORE SWAP2 PUSH1 0x20 ADD SWAP2 PUSH2 0xFEE JUMP JUMPDEST DUP3 ADD SWAP2 SWAP1 PUSH1 0x0 MSTORE PUSH1 0x20 PUSH1 0x0 KECCAK256 SWAP1 JUMPDEST DUP2 SLOAD DUP2 MSTORE SWAP1 PUSH1 0x1 ADD SWAP1 PUSH1 0x20 ADD DUP1 DUP4 GT PUSH2 0xFD1 JUMPI DUP3 SWAP1 SUB PUSH1 0x1F AND DUP3 ADD SWAP2 JUMPDEST POP POP POP POP POP SWAP1 POP SWAP1 JUMP JUMPDEST PUSH1 0x60 PUSH2 0x1005 DUP5 DUP5 DUP5 PUSH2 0x1A9E JUMP JUMPDEST SWAP1 POP SWAP4 SWAP3 POP POP POP JUMP JUMPDEST PUSH1 0x0 PUSH2 0x1018 PUSH2 0x91C JUMP JUMPDEST SWAP1 POP PUSH32 0x0 DUP3 DUP3 PUSH2 0x1047 SWAP2 SWAP1 PUSH2 0x2EDD JUMP JUMPDEST GT ISZERO PUSH2 0x107F JUMPI PUSH1 0x40 MLOAD PUSH32 0x96BD0F2300000000000000000000000000000000000000000000000000000000 DUP2 MSTORE PUSH1 0x4 ADD PUSH1 0x40 MLOAD DUP1 SWAP2 SUB SWAP1 REVERT JUMPDEST PUSH2 0x1087 PUSH2 0xF36 JUMP JUMPDEST PUSH20 0xFFFFFFFFFFFFFFFFFFFFFFFFFFFFFFFFFFFFFFFF AND CALLER PUSH20 0xFFFFFFFFFFFFFFFFFFFFFFFFFFFFFFFFFFFFFFFF AND EQ PUSH2 0x1101 JUMPI DUP2 PUSH1 0xB SLOAD PUSH2 0x10C7 SWAP2 SWAP1 PUSH2 0x2F64 JUMP JUMPDEST CALLVALUE LT ISZERO PUSH2 0x1100 JUMPI PUSH1 0x40 MLOAD PUSH32 0x45BD468900000000000000000000000000000000000000000000000000000000 DUP2 MSTORE PUSH1 0x4 ADD PUSH1 0x40 MLOAD DUP1 SWAP2 SUB SWAP1 REVERT JUMPDEST JUMPDEST PUSH2 0x110B CALLER DUP4 PUSH2 0x1C5C JUMP JUMPDEST POP POP JUMP JUMPDEST DUP1 PUSH1 0x7 PUSH1 0x0 PUSH2 0x111C PUSH2 0x1924 JUMP JUMPDEST PUSH20 0xFFFFFFFFFFFFFFFFFFFFFFFFFFFFFFFFFFFFFFFF AND PUSH20 0xFFFFFFFFFFFFFFFFFFFFFFFFFFFFFFFFFFFFFFFF AND DUP2 MSTORE PUSH1 0x20 ADD SWAP1 DUP2 MSTORE PUSH1 0x20 ADD PUSH1 0x0 KECCAK256 PUSH1 0x0 DUP5 PUSH20 0xFFFFFFFFFFFFFFFFFFFFFFFFFFFFFFFFFFFFFFFF AND PUSH20 0xFFFFFFFFFFFFFFFFFFFFFFFFFFFFFFFFFFFFFFFF AND DUP2 MSTORE PUSH1 0x20 ADD SWAP1 DUP2 MSTORE PUSH1 0x20 ADD PUSH1 0x0 KECCAK256 PUSH1 0x0 PUSH2 0x100 EXP DUP2 SLOAD DUP2 PUSH1 0xFF MUL NOT AND SWAP1 DUP4 ISZERO ISZERO MUL OR SWAP1 SSTORE POP DUP2 PUSH20 0xFFFFFFFFFFFFFFFFFFFFFFFFFFFFFFFFFFFFFFFF AND PUSH2 0x11C9 PUSH2 0x1924 JUMP JUMPDEST PUSH20 0xFFFFFFFFFFFFFFFFFFFFFFFFFFFFFFFFFFFFFFFF AND PUSH32 0x17307EAB39AB6107E8899845AD3D59BD9653F200F220920489CA2B5937696C31 DUP4 PUSH1 0x40 MLOAD PUSH2 0x120E SWAP2 SWAP1 PUSH2 0x2CE3 JUMP JUMPDEST PUSH1 0x40 MLOAD DUP1 SWAP2 SUB SWAP1 LOG3 POP POP JUMP JUMPDEST PUSH2 0x1222 PUSH2 0x1723 JUMP JUMPDEST DUP1 PUSH1 0xC DUP2 SWAP1 SSTORE POP POP JUMP JUMPDEST PUSH2 0x1237 DUP5 DUP5 DUP5 PUSH2 0x969 JUMP JUMPDEST PUSH1 0x0 DUP4 PUSH20 0xFFFFFFFFFFFFFFFFFFFFFFFFFFFFFFFFFFFFFFFF AND EXTCODESIZE EQ PUSH2 0x1278 JUMPI PUSH2 0x1262 DUP5 DUP5 DUP5 DUP5 PUSH2 0x1C7A JUMP JUMPDEST PUSH2 0x1277 JUMPI PUSH2 0x1276 PUSH4 0xD1A57ED6 PUSH1 0xE0 SHL PUSH2 0x15EA JUMP JUMPDEST JUMPDEST JUMPDEST POP POP POP POP JUMP JUMPDEST PUSH2 0x1286 PUSH2 0x239A JUMP JUMPDEST PUSH2 0x128E PUSH2 0x17A1 JUMP JUMPDEST DUP3 LT PUSH2 0x12ED JUMPI PUSH2 0x129C PUSH2 0x17A6 JUMP JUMPDEST DUP3 GT ISZERO PUSH2 0x12B3 JUMPI PUSH2 0x12AC DUP3 PUSH2 0x1DB9 JUMP JUMPDEST SWAP1 POP PUSH2 0x12EE JUMP JUMPDEST PUSH2 0x12BB PUSH2 0x1A95 JUMP JUMPDEST DUP3 LT ISZERO PUSH2 0x12EC JUMPI JUMPDEST PUSH2 0x12CC DUP3 PUSH2 0x1DE4 JUMP JUMPDEST PUSH2 0x12DC JUMPI DUP2 PUSH1 0x1 SWAP1 SUB SWAP2 POP PUSH2 0x12C3 JUMP JUMPDEST PUSH2 0x12E5 DUP3 PUSH2 0x1DB9 JUMP JUMPDEST SWAP1 POP PUSH2 0x12EE JUMP JUMPDEST JUMPDEST JUMPDEST SWAP2 SWAP1 POP JUMP JUMPDEST PUSH1 0x40 MLOAD DUP1 PUSH1 0x40 ADD PUSH1 0x40 MSTORE DUP1 PUSH1 0x5 DUP2 MSTORE PUSH1 0x20 ADD PUSH32 0x2E6A736F6E000000000000000000000000000000000000000000000000000000 DUP2 MSTORE POP DUP2 JUMP JUMPDEST PUSH1 0x60 PUSH2 0x1337 DUP3 PUSH2 0x153D JUMP JUMPDEST PUSH2 0x136D JUMPI PUSH1 0x40 MLOAD PUSH32 0x77B1A4E000000000000000000000000000000000000000000000000000000000 DUP2 MSTORE PUSH1 0x4 ADD PUSH1 0x40 MLOAD DUP1 SWAP2 SUB SWAP1 REVERT JUMPDEST PUSH1 0x0 PUSH2 0x1377 PUSH2 0x1E04 JUMP JUMPDEST SWAP1 POP PUSH1 0x0 DUP2 MLOAD GT PUSH2 0x1397 JUMPI PUSH1 0x40 MLOAD DUP1 PUSH1 0x20 ADD PUSH1 0x40 MSTORE DUP1 PUSH1 0x0 DUP2 MSTORE POP PUSH2 0x13F9 JUMP JUMPDEST DUP1 PUSH2 0x13A1 DUP5 PUSH2 0x1E96 JUMP JUMPDEST PUSH1 0x40 MLOAD DUP1 PUSH1 0x40 ADD PUSH1 0x40 MSTORE DUP1 PUSH1 0x5 DUP2 MSTORE PUSH1 0x20 ADD PUSH32 0x2E6A736F6E000000000000000000000000000000000000000000000000000000 DUP2 MSTORE POP PUSH1 0x40 MLOAD PUSH1 0x20 ADD PUSH2 0x13E9 SWAP4 SWAP3 SWAP2 SWAP1 PUSH2 0x2BF2 JUMP JUMPDEST PUSH1 0x40 MLOAD PUSH1 0x20 DUP2 DUP4 SUB SUB DUP2 MSTORE SWAP1 PUSH1 0x40 MSTORE JUMPDEST SWAP2 POP POP SWAP2 SWAP1 POP JUMP JUMPDEST PUSH32 0x0 DUP2 JUMP JUMPDEST PUSH1 0x0 PUSH1 0x7 PUSH1 0x0 DUP5 PUSH20 0xFFFFFFFFFFFFFFFFFFFFFFFFFFFFFFFFFFFFFFFF AND PUSH20 0xFFFFFFFFFFFFFFFFFFFFFFFFFFFFFFFFFFFFFFFF AND DUP2 MSTORE PUSH1 0x20 ADD SWAP1 DUP2 MSTORE PUSH1 0x20 ADD PUSH1 0x0 KECCAK256 PUSH1 0x0 DUP4 PUSH20 0xFFFFFFFFFFFFFFFFFFFFFFFFFFFFFFFFFFFFFFFF AND PUSH20 0xFFFFFFFFFFFFFFFFFFFFFFFFFFFFFFFFFFFFFFFF AND DUP2 MSTORE PUSH1 0x20 ADD SWAP1 DUP2 MSTORE PUSH1 0x20 ADD PUSH1 0x0 KECCAK256 PUSH1 0x0 SWAP1 SLOAD SWAP1 PUSH2 0x100 EXP SWAP1 DIV PUSH1 0xFF AND SWAP1 POP SWAP3 SWAP2 POP POP JUMP JUMPDEST PUSH2 0x14C1 PUSH2 0x1723 JUMP JUMPDEST PUSH1 0x0 PUSH20 0xFFFFFFFFFFFFFFFFFFFFFFFFFFFFFFFFFFFFFFFF AND DUP2 PUSH20 0xFFFFFFFFFFFFFFFFFFFFFFFFFFFFFFFFFFFFFFFF AND EQ ISZERO PUSH2 0x1531 JUMPI PUSH1 0x40 MLOAD PUSH32 0x8C379A000000000000000000000000000000000000000000000000000000000 DUP2 MSTORE PUSH1 0x4 ADD PUSH2 0x1528 SWAP1 PUSH2 0x2D20 JUMP JUMPDEST PUSH1 0x40 MLOAD DUP1 SWAP2 SUB SWAP1 REVERT JUMPDEST PUSH2 0x153A DUP2 PUSH2 0x19CF JUMP JUMPDEST POP JUMP JUMPDEST PUSH1 0x0 DUP2 PUSH2 0x1548 PUSH2 0x17A1 JUMP JUMPDEST GT PUSH2 0x15E4 JUMPI PUSH2 0x1555 PUSH2 0x17A6 JUMP JUMPDEST DUP3 GT ISZERO PUSH2 0x157F JUMPI PUSH2 0x1578 PUSH1 0x4 PUSH1 0x0 DUP5 DUP2 MSTORE PUSH1 0x20 ADD SWAP1 DUP2 MSTORE PUSH1 0x20 ADD PUSH1 0x0 KECCAK256 SLOAD PUSH2 0x1FF7 JUMP JUMPDEST SWAP1 POP PUSH2 0x15E5 JUMP JUMPDEST PUSH1 0x0 SLOAD DUP3 LT ISZERO PUSH2 0x15E3 JUMPI PUSH1 0x0 JUMPDEST PUSH1 0x0 PUSH1 0x4 PUSH1 0x0 DUP6 DUP2 MSTORE PUSH1 0x20 ADD SWAP1 DUP2 MSTORE PUSH1 0x20 ADD PUSH1 0x0 KECCAK256 SLOAD SWAP2 POP DUP2 EQ ISZERO PUSH2 0x15BC JUMPI DUP3 PUSH2 0x15B5 SWAP1 PUSH2 0x30CB JUMP JUMPDEST SWAP3 POP PUSH2 0x158C JUMP JUMPDEST PUSH1 0x0 PUSH29 0x100000000000000000000000000000000000000000000000000000000 DUP3 AND EQ SWAP2 POP POP JUMPDEST JUMPDEST JUMPDEST SWAP2 SWAP1 POP JUMP JUMPDEST DUP1 PUSH1 0x0 MSTORE PUSH1 0x4 PUSH1 0x0 REVERT JUMPDEST PUSH1 0x0 PUSH2 0x15FF DUP4 PUSH2 0xD6F JUMP JUMPDEST SWAP1 POP DUP2 DUP1 ISZERO PUSH2 0x1641 JUMPI POP DUP1 PUSH20 0xFFFFFFFFFFFFFFFFFFFFFFFFFFFFFFFFFFFFFFFF AND PUSH2 0x1628 PUSH2 0x1924 JUMP JUMPDEST PUSH20 0xFFFFFFFFFFFFFFFFFFFFFFFFFFFFFFFFFFFFFFFF AND EQ ISZERO JUMPDEST ISZERO PUSH2 0x166D JUMPI PUSH2 0x1657 DUP2 PUSH2 0x1652 PUSH2 0x1924 JUMP JUMPDEST PUSH2 0x1425 JUMP JUMPDEST PUSH2 0x166C JUMPI PUSH2 0x166B PUSH4 0xCFB3B942 PUSH1 0xE0 SHL PUSH2 0x15EA JUMP JUMPDEST JUMPDEST JUMPDEST DUP4 PUSH1 0x6 PUSH1 0x0 DUP6 DUP2 MSTORE PUSH1 0x20 ADD SWAP1 DUP2 MSTORE PUSH1 0x20 ADD PUSH1 0x0 KECCAK256 PUSH1 0x0 ADD PUSH1 0x0 PUSH2 0x100 EXP DUP2 SLOAD DUP2 PUSH20 0xFFFFFFFFFFFFFFFFFFFFFFFFFFFFFFFFFFFFFFFF MUL NOT AND SWAP1 DUP4 PUSH20 0xFFFFFFFFFFFFFFFFFFFFFFFFFFFFFFFFFFFFFFFF AND MUL OR SWAP1 SSTORE POP DUP3 DUP5 PUSH20 0xFFFFFFFFFFFFFFFFFFFFFFFFFFFFFFFFFFFFFFFF AND DUP3 PUSH20 0xFFFFFFFFFFFFFFFFFFFFFFFFFFFFFFFFFFFFFFFF AND PUSH32 0x8C5BE1E5EBEC7D5BD14F71427D1E84F3DD0314C0F7B2291E5B200AC8C7C3B925 PUSH1 0x40 MLOAD PUSH1 0x40 MLOAD DUP1 SWAP2 SUB SWAP1 LOG4 POP POP POP POP JUMP JUMPDEST PUSH2 0x172B PUSH2 0x2038 JUMP JUMPDEST PUSH20 0xFFFFFFFFFFFFFFFFFFFFFFFFFFFFFFFFFFFFFFFF AND PUSH2 0x1749 PUSH2 0xF36 JUMP JUMPDEST PUSH20 0xFFFFFFFFFFFFFFFFFFFFFFFFFFFFFFFFFFFFFFFF AND EQ PUSH2 0x179F JUMPI PUSH1 0x40 MLOAD PUSH32 0x8C379A000000000000000000000000000000000000000000000000000000000 DUP2 MSTORE PUSH1 0x4 ADD PUSH2 0x1796 SWAP1 PUSH2 0x2D40 JUMP JUMPDEST PUSH1 0x40 MLOAD DUP1 SWAP2 SUB SWAP1 REVERT JUMPDEST JUMP JUMPDEST PUSH1 0x0 SWAP1 JUMP JUMPDEST PUSH1 0x0 PUSH32 0xFFFFFFFFFFFFFFFFFFFFFFFFFFFFFFFFFFFFFFFFFFFFFFFFFFFFFFFFFFFFFFFF SWAP1 POP SWAP1 JUMP JUMPDEST PUSH1 0x0 DUP2 PUSH2 0x17D9 PUSH2 0x17A1 JUMP JUMPDEST GT PUSH2 0x18E7 JUMPI PUSH1 0x4 PUSH1 0x0 DUP4 DUP2 MSTORE PUSH1 0x20 ADD SWAP1 DUP2 MSTORE PUSH1 0x20 ADD PUSH1 0x0 KECCAK256 SLOAD SWAP1 POP PUSH2 0x17FC PUSH2 0x17A6 JUMP JUMPDEST DUP3 GT ISZERO PUSH2 0x1827 JUMPI PUSH2 0x180C DUP2 PUSH2 0x1FF7 JUMP JUMPDEST ISZERO PUSH2 0x1816 JUMPI PUSH2 0x18F8 JUMP JUMPDEST PUSH2 0x1826 PUSH4 0xDF2D9B42 PUSH1 0xE0 SHL PUSH2 0x15EA JUMP JUMPDEST JUMPDEST PUSH1 0x0 DUP2 EQ ISZERO PUSH2 0x18B9 JUMPI PUSH1 0x0 SLOAD DUP3 LT PUSH2 0x184A JUMPI PUSH2 0x1849 PUSH4 0xDF2D9B42 PUSH1 0xE0 SHL PUSH2 0x15EA JUMP JUMPDEST JUMPDEST JUMPDEST PUSH1 0x4 PUSH1 0x0 DUP4 PUSH1 0x1 SWAP1 SUB SWAP4 POP DUP4 DUP2 MSTORE PUSH1 0x20 ADD SWAP1 DUP2 MSTORE PUSH1 0x20 ADD PUSH1 0x0 KECCAK256 SLOAD SWAP1 POP PUSH1 0x0 DUP2 EQ ISZERO PUSH2 0x1876 JUMPI PUSH2 0x18B4 JUMP JUMPDEST PUSH1 0x0 PUSH29 0x100000000000000000000000000000000000000000000000000000000 DUP3 AND EQ ISZERO PUSH2 0x18A3 JUMPI PUSH2 0x18F8 JUMP JUMPDEST PUSH2 0x18B3 PUSH4 0xDF2D9B42 PUSH1 0xE0 SHL PUSH2 0x15EA JUMP JUMPDEST JUMPDEST PUSH2 0x184B JUMP JUMPDEST PUSH1 0x0 PUSH29 0x100000000000000000000000000000000000000000000000000000000 DUP3 AND EQ ISZERO PUSH2 0x18E6 JUMPI PUSH2 0x18F8 JUMP JUMPDEST JUMPDEST PUSH2 0x18F7 PUSH4 0xDF2D9B42 PUSH1 0xE0 SHL PUSH2 0x15EA JUMP JUMPDEST JUMPDEST SWAP2 SWAP1 POP JUMP JUMPDEST PUSH1 0x0 DUP1 PUSH1 0x0 PUSH1 0x6 PUSH1 0x0 DUP6 DUP2 MSTORE PUSH1 0x20 ADD SWAP1 DUP2 MSTORE PUSH1 0x20 ADD PUSH1 0x0 KECCAK256 SWAP1 POP DUP1 SWAP3 POP DUP3 SLOAD SWAP2 POP POP SWAP2 POP SWAP2 JUMP JUMPDEST PUSH1 0x0 CALLER SWAP1 POP SWAP1 JUMP JUMPDEST PUSH1 0x0 PUSH20 0xFFFFFFFFFFFFFFFFFFFFFFFFFFFFFFFFFFFFFFFF DUP4 AND SWAP3 POP PUSH20 0xFFFFFFFFFFFFFFFFFFFFFFFFFFFFFFFFFFFFFFFF DUP3 AND SWAP2 POP DUP4 DUP3 EQ DUP4 DUP4 EQ OR SWAP1 POP SWAP4 SWAP3 POP POP POP JUMP JUMPDEST POP POP POP POP JUMP JUMPDEST PUSH1 0x0 DUP1 PUSH1 0xE8 DUP4 SWAP1 SHR SWAP1 POP PUSH1 0xE8 PUSH2 0x198D DUP7 DUP7 DUP5 PUSH2 0x2040 JUMP JUMPDEST PUSH3 0xFFFFFF AND SWAP1 SHL SWAP2 POP POP SWAP4 SWAP3 POP POP POP JUMP JUMPDEST PUSH1 0x0 PUSH20 0xFFFFFFFFFFFFFFFFFFFFFFFFFFFFFFFFFFFFFFFF DUP4 AND SWAP3 POP DUP2 TIMESTAMP PUSH1 0xA0 SHL OR DUP4 OR SWAP1 POP SWAP3 SWAP2 POP POP JUMP JUMPDEST POP POP POP POP JUMP JUMPDEST PUSH1 0x0 PUSH1 0x9 PUSH1 0x0 SWAP1 SLOAD SWAP1 PUSH2 0x100 EXP SWAP1 DIV PUSH20 0xFFFFFFFFFFFFFFFFFFFFFFFFFFFFFFFFFFFFFFFF AND SWAP1 POP DUP2 PUSH1 0x9 PUSH1 0x0 PUSH2 0x100 EXP DUP2 SLOAD DUP2 PUSH20 0xFFFFFFFFFFFFFFFFFFFFFFFFFFFFFFFFFFFFFFFF MUL NOT AND SWAP1 DUP4 PUSH20 0xFFFFFFFFFFFFFFFFFFFFFFFFFFFFFFFFFFFFFFFF AND MUL OR SWAP1 SSTORE POP DUP2 PUSH20 0xFFFFFFFFFFFFFFFFFFFFFFFFFFFFFFFFFFFFFFFF AND DUP2 PUSH20 0xFFFFFFFFFFFFFFFFFFFFFFFFFFFFFFFFFFFFFFFF AND PUSH32 0x8BE0079C531659141344CD1FD0A4F28419497F9722A3DAAFE3B4186F6B6457E0 PUSH1 0x40 MLOAD PUSH1 0x40 MLOAD DUP1 SWAP2 SUB SWAP1 LOG3 POP POP JUMP JUMPDEST PUSH1 0x0 DUP1 SLOAD SWAP1 POP SWAP1 JUMP JUMPDEST PUSH1 0x60 DUP2 DUP4 LT PUSH2 0x1AB8 JUMPI PUSH2 0x1AB7 PUSH4 0x32C1995A PUSH1 0xE0 SHL PUSH2 0x15EA JUMP JUMPDEST JUMPDEST PUSH2 0x1AC0 PUSH2 0x17A1 JUMP JUMPDEST DUP4 LT ISZERO PUSH2 0x1AD2 JUMPI PUSH2 0x1ACF PUSH2 0x17A1 JUMP JUMPDEST SWAP3 POP JUMPDEST PUSH1 0x0 PUSH2 0x1ADC PUSH2 0x1A95 JUMP JUMPDEST SWAP1 POP PUSH1 0x0 PUSH32 0xFFFFFFFFFFFFFFFFFFFFFFFFFFFFFFFFFFFFFFFFFFFFFFFFFFFFFFFFFFFFFFFF PUSH2 0x1B09 PUSH2 0x17A6 JUMP JUMPDEST EQ ISZERO PUSH2 0x1B15 JUMPI DUP2 PUSH2 0x1B17 JUMP JUMPDEST DUP4 JUMPDEST SWAP1 POP DUP1 DUP5 LT PUSH2 0x1B24 JUMPI DUP1 SWAP4 POP JUMPDEST PUSH1 0x0 PUSH2 0x1B2F DUP8 PUSH2 0xE0F JUMP JUMPDEST SWAP1 POP DUP5 DUP7 LT PUSH2 0x1B3D JUMPI PUSH1 0x0 SWAP1 POP JUMPDEST PUSH1 0x0 DUP2 EQ PUSH2 0x1C52 JUMPI DUP1 DUP7 DUP7 SUB GT PUSH2 0x1B54 JUMPI DUP6 DUP6 SUB SWAP1 POP JUMPDEST PUSH1 0x0 PUSH1 0x40 MLOAD SWAP5 POP PUSH1 0x1 DUP3 ADD PUSH1 0x5 SHL DUP6 ADD SWAP1 POP DUP1 PUSH1 0x40 MSTORE PUSH1 0x0 PUSH2 0x1B75 DUP9 PUSH2 0x127E JUMP JUMPDEST SWAP1 POP PUSH1 0x0 DUP2 PUSH1 0x40 ADD MLOAD PUSH2 0x1B8A JUMPI DUP2 PUSH1 0x0 ADD MLOAD SWAP1 POP JUMPDEST PUSH1 0x0 JUMPDEST PUSH32 0xFFFFFFFFFFFFFFFFFFFFFFFFFFFFFFFFFFFFFFFFFFFFFFFFFFFFFFFFFFFFFFFF PUSH2 0x1BB6 PUSH2 0x17A6 JUMP JUMPDEST EQ PUSH2 0x1BE6 JUMPI DUP7 DUP11 EQ ISZERO PUSH2 0x1BD1 JUMPI PUSH1 0x1 PUSH2 0x1BCD PUSH2 0x17A6 JUMP JUMPDEST ADD SWAP10 POP JUMPDEST PUSH2 0x1BD9 PUSH2 0x17A6 JUMP JUMPDEST DUP11 GT ISZERO PUSH2 0x1BE5 JUMPI PUSH1 0x0 SWAP2 POP JUMPDEST JUMPDEST PUSH2 0x1BEF DUP11 PUSH2 0x1DB9 JUMP JUMPDEST SWAP3 POP PUSH1 0x40 DUP4 ADD MLOAD PUSH1 0x0 DUP2 EQ PUSH2 0x1C07 JUMPI PUSH1 0x0 SWAP3 POP PUSH2 0x1C2D JUMP JUMPDEST DUP4 MLOAD ISZERO PUSH2 0x1C13 JUMPI DUP4 MLOAD SWAP3 POP JUMPDEST DUP12 DUP4 XOR PUSH1 0x60 SHL PUSH2 0x1C2C JUMPI PUSH1 0x1 DUP3 ADD SWAP2 POP DUP11 DUP3 PUSH1 0x5 SHL DUP11 ADD MSTORE JUMPDEST JUMPDEST POP PUSH1 0x1 DUP11 ADD SWAP10 POP DUP4 PUSH1 0x40 MSTORE DUP9 DUP11 EQ DUP1 PUSH2 0x1C45 JUMPI POP DUP5 DUP2 EQ JUMPDEST ISZERO PUSH2 0x1B8D JUMPI DUP1 DUP9 MSTORE POP POP POP POP JUMPDEST POP POP POP SWAP4 SWAP3 POP POP POP JUMP JUMPDEST PUSH2 0x1C76 DUP3 DUP3 PUSH1 0x40 MLOAD DUP1 PUSH1 0x20 ADD PUSH1 0x40 MSTORE DUP1 PUSH1 0x0 DUP2 MSTORE POP PUSH2 0x2049 JUMP JUMPDEST POP POP JUMP JUMPDEST PUSH1 0x0 DUP4 PUSH20 0xFFFFFFFFFFFFFFFFFFFFFFFFFFFFFFFFFFFFFFFF AND PUSH4 0x150B7A02 PUSH2 0x1CA0 PUSH2 0x1924 JUMP JUMPDEST DUP8 DUP7 DUP7 PUSH1 0x40 MLOAD DUP6 PUSH4 0xFFFFFFFF AND PUSH1 0xE0 SHL DUP2 MSTORE PUSH1 0x4 ADD PUSH2 0x1CC2 SWAP5 SWAP4 SWAP3 SWAP2 SWAP1 PUSH2 0x2C53 JUMP JUMPDEST PUSH1 0x20 PUSH1 0x40 MLOAD DUP1 DUP4 SUB DUP2 PUSH1 0x0 DUP8 DUP1 EXTCODESIZE ISZERO DUP1 ISZERO PUSH2 0x1CDC JUMPI PUSH1 0x0 DUP1 REVERT JUMPDEST POP GAS CALL SWAP3 POP POP POP DUP1 ISZERO PUSH2 0x1D0D JUMPI POP PUSH1 0x40 MLOAD RETURNDATASIZE PUSH1 0x1F NOT PUSH1 0x1F DUP3 ADD AND DUP3 ADD DUP1 PUSH1 0x40 MSTORE POP DUP2 ADD SWAP1 PUSH2 0x1D0A SWAP2 SWAP1 PUSH2 0x2835 JUMP JUMPDEST PUSH1 0x1 JUMPDEST PUSH2 0x1D66 JUMPI RETURNDATASIZE DUP1 PUSH1 0x0 DUP2 EQ PUSH2 0x1D3D JUMPI PUSH1 0x40 MLOAD SWAP2 POP PUSH1 0x1F NOT PUSH1 0x3F RETURNDATASIZE ADD AND DUP3 ADD PUSH1 0x40 MSTORE RETURNDATASIZE DUP3 MSTORE RETURNDATASIZE PUSH1 0x0 PUSH1 0x20 DUP5 ADD RETURNDATACOPY PUSH2 0x1D42 JUMP JUMPDEST PUSH1 0x60 SWAP2 POP JUMPDEST POP PUSH1 0x0 DUP2 MLOAD EQ ISZERO PUSH2 0x1D5E JUMPI PUSH2 0x1D5D PUSH4 0xD1A57ED6 PUSH1 0xE0 SHL PUSH2 0x15EA JUMP JUMPDEST JUMPDEST DUP1 MLOAD DUP2 PUSH1 0x20 ADD REVERT JUMPDEST PUSH4 0x150B7A02 PUSH1 0xE0 SHL PUSH28 0xFFFFFFFFFFFFFFFFFFFFFFFFFFFFFFFFFFFFFFFFFFFFFFFFFFFFFFFF NOT AND DUP2 PUSH28 0xFFFFFFFFFFFFFFFFFFFFFFFFFFFFFFFFFFFFFFFFFFFFFFFFFFFFFFFF NOT AND EQ SWAP2 POP POP SWAP5 SWAP4 POP POP POP POP JUMP JUMPDEST PUSH2 0x1DC1 PUSH2 0x239A JUMP JUMPDEST PUSH2 0x1DDD PUSH1 0x4 PUSH1 0x0 DUP5 DUP2 MSTORE PUSH1 0x20 ADD SWAP1 DUP2 MSTORE PUSH1 0x20 ADD PUSH1 0x0 KECCAK256 SLOAD PUSH2 0x20C5 JUMP JUMPDEST SWAP1 POP SWAP2 SWAP1 POP JUMP JUMPDEST PUSH1 0x0 DUP1 PUSH1 0x4 PUSH1 0x0 DUP5 DUP2 MSTORE PUSH1 0x20 ADD SWAP1 DUP2 MSTORE PUSH1 0x20 ADD PUSH1 0x0 KECCAK256 SLOAD EQ ISZERO SWAP1 POP SWAP2 SWAP1 POP JUMP JUMPDEST PUSH1 0x60 PUSH1 0xA DUP1 SLOAD PUSH2 0x1E13 SWAP1 PUSH2 0x30F5 JUMP JUMPDEST DUP1 PUSH1 0x1F ADD PUSH1 0x20 DUP1 SWAP2 DIV MUL PUSH1 0x20 ADD PUSH1 0x40 MLOAD SWAP1 DUP2 ADD PUSH1 0x40 MSTORE DUP1 SWAP3 SWAP2 SWAP1 DUP2 DUP2 MSTORE PUSH1 0x20 ADD DUP3 DUP1 SLOAD PUSH2 0x1E3F SWAP1 PUSH2 0x30F5 JUMP JUMPDEST DUP1 ISZERO PUSH2 0x1E8C JUMPI DUP1 PUSH1 0x1F LT PUSH2 0x1E61 JUMPI PUSH2 0x100 DUP1 DUP4 SLOAD DIV MUL DUP4 MSTORE SWAP2 PUSH1 0x20 ADD SWAP2 PUSH2 0x1E8C JUMP JUMPDEST DUP3 ADD SWAP2 SWAP1 PUSH1 0x0 MSTORE PUSH1 0x20 PUSH1 0x0 KECCAK256 SWAP1 JUMPDEST DUP2 SLOAD DUP2 MSTORE SWAP1 PUSH1 0x1 ADD SWAP1 PUSH1 0x20 ADD DUP1 DUP4 GT PUSH2 0x1E6F JUMPI DUP3 SWAP1 SUB PUSH1 0x1F AND DUP3 ADD SWAP2 JUMPDEST POP POP POP POP POP SWAP1 POP SWAP1 JUMP JUMPDEST PUSH1 0x60 PUSH1 0x0 DUP3 EQ ISZERO PUSH2 0x1EDE JUMPI PUSH1 0x40 MLOAD DUP1 PUSH1 0x40 ADD PUSH1 0x40 MSTORE DUP1 PUSH1 0x1 DUP2 MSTORE PUSH1 0x20 ADD PUSH32 0x3000000000000000000000000000000000000000000000000000000000000000 DUP2 MSTORE POP SWAP1 POP PUSH2 0x1FF2 JUMP JUMPDEST PUSH1 0x0 DUP3 SWAP1 POP PUSH1 0x0 JUMPDEST PUSH1 0x0 DUP3 EQ PUSH2 0x1F10 JUMPI DUP1 DUP1 PUSH2 0x1EF9 SWAP1 PUSH2 0x3158 JUMP JUMPDEST SWAP2 POP POP PUSH1 0xA DUP3 PUSH2 0x1F09 SWAP2 SWAP1 PUSH2 0x2F33 JUMP JUMPDEST SWAP2 POP PUSH2 0x1EE6 JUMP JUMPDEST PUSH1 0x0 DUP2 PUSH8 0xFFFFFFFFFFFFFFFF DUP2 GT ISZERO PUSH2 0x1F2C JUMPI PUSH2 0x1F2B PUSH2 0x328E JUMP JUMPDEST JUMPDEST PUSH1 0x40 MLOAD SWAP1 DUP1 DUP3 MSTORE DUP1 PUSH1 0x1F ADD PUSH1 0x1F NOT AND PUSH1 0x20 ADD DUP3 ADD PUSH1 0x40 MSTORE DUP1 ISZERO PUSH2 0x1F5E JUMPI DUP2 PUSH1 0x20 ADD PUSH1 0x1 DUP3 MUL DUP1 CALLDATASIZE DUP4 CALLDATACOPY DUP1 DUP3 ADD SWAP2 POP POP SWAP1 POP JUMPDEST POP SWAP1 POP JUMPDEST PUSH1 0x0 DUP6 EQ PUSH2 0x1FEB JUMPI PUSH1 0x1 DUP3 PUSH2 0x1F77 SWAP2 SWAP1 PUSH2 0x2FBE JUMP JUMPDEST SWAP2 POP PUSH1 0xA DUP6 PUSH2 0x1F86 SWAP2 SWAP1 PUSH2 0x31A1 JUMP JUMPDEST PUSH1 0x30 PUSH2 0x1F92 SWAP2 SWAP1 PUSH2 0x2EDD JUMP JUMPDEST PUSH1 0xF8 SHL DUP2 DUP4 DUP2 MLOAD DUP2 LT PUSH2 0x1FA8 JUMPI PUSH2 0x1FA7 PUSH2 0x325F JUMP JUMPDEST JUMPDEST PUSH1 0x20 ADD ADD SWAP1 PUSH31 0xFFFFFFFFFFFFFFFFFFFFFFFFFFFFFFFFFFFFFFFFFFFFFFFFFFFFFFFFFFFFFF NOT AND SWAP1 DUP2 PUSH1 0x0 BYTE SWAP1 MSTORE8 POP PUSH1 0xA DUP6 PUSH2 0x1FE4 SWAP2 SWAP1 PUSH2 0x2F33 JUMP JUMPDEST SWAP5 POP PUSH2 0x1F62 JUMP JUMPDEST DUP1 SWAP4 POP POP POP POP JUMPDEST SWAP2 SWAP1 POP JUMP JUMPDEST PUSH1 0x0 PUSH29 0x100000000000000000000000000000000000000000000000000000000 DUP3 AND PUSH20 0xFFFFFFFFFFFFFFFFFFFFFFFFFFFFFFFFFFFFFFFF DUP4 AND GT SWAP1 POP SWAP2 SWAP1 POP JUMP JUMPDEST PUSH1 0x0 CALLER SWAP1 POP SWAP1 JUMP JUMPDEST PUSH1 0x0 SWAP4 SWAP3 POP POP POP JUMP JUMPDEST PUSH2 0x2053 DUP4 DUP4 PUSH2 0x217B JUMP JUMPDEST PUSH1 0x0 DUP4 PUSH20 0xFFFFFFFFFFFFFFFFFFFFFFFFFFFFFFFFFFFFFFFF AND EXTCODESIZE EQ PUSH2 0x20C0 JUMPI PUSH1 0x0 DUP1 SLOAD SWAP1 POP PUSH1 0x0 DUP4 DUP3 SUB SWAP1 POP JUMPDEST PUSH2 0x2093 PUSH1 0x0 DUP7 DUP4 DUP1 PUSH1 0x1 ADD SWAP5 POP DUP7 PUSH2 0x1C7A JUMP JUMPDEST PUSH2 0x20A8 JUMPI PUSH2 0x20A7 PUSH4 0xD1A57ED6 PUSH1 0xE0 SHL PUSH2 0x15EA JUMP JUMPDEST JUMPDEST DUP2 DUP2 LT PUSH2 0x2080 JUMPI DUP2 PUSH1 0x0 SLOAD EQ PUSH2 0x20BD JUMPI PUSH1 0x0 DUP1 REVERT JUMPDEST POP POP JUMPDEST POP POP POP JUMP JUMPDEST PUSH2 0x20CD PUSH2 0x239A JUMP JUMPDEST DUP2 DUP2 PUSH1 0x0 ADD SWAP1 PUSH20 0xFFFFFFFFFFFFFFFFFFFFFFFFFFFFFFFFFFFFFFFF AND SWAP1 DUP2 PUSH20 0xFFFFFFFFFFFFFFFFFFFFFFFFFFFFFFFFFFFFFFFF AND DUP2 MSTORE POP POP PUSH1 0xA0 DUP3 SWAP1 SHR DUP2 PUSH1 0x20 ADD SWAP1 PUSH8 0xFFFFFFFFFFFFFFFF AND SWAP1 DUP2 PUSH8 0xFFFFFFFFFFFFFFFF AND DUP2 MSTORE POP POP PUSH1 0x0 PUSH29 0x100000000000000000000000000000000000000000000000000000000 DUP4 AND EQ ISZERO DUP2 PUSH1 0x40 ADD SWAP1 ISZERO ISZERO SWAP1 DUP2 ISZERO ISZERO DUP2 MSTORE POP POP PUSH1 0xE8 DUP3 SWAP1 SHR DUP2 PUSH1 0x60 ADD SWAP1 PUSH3 0xFFFFFF AND SWAP1 DUP2 PUSH3 0xFFFFFF AND DUP2 MSTORE POP POP SWAP2 SWAP1 POP JUMP JUMPDEST PUSH1 0x0 DUP1 SLOAD SWAP1 POP PUSH1 0x0 DUP3 EQ ISZERO PUSH2 0x219B JUMPI PUSH2 0x219A PUSH4 0xB562E8DD PUSH1 0xE0 SHL PUSH2 0x15EA JUMP JUMPDEST JUMPDEST PUSH2 0x21A8 PUSH1 0x0 DUP5 DUP4 DUP6 PUSH2 0x1970 JUMP JUMPDEST PUSH2 0x21C8 DUP4 PUSH2 0x21B9 PUSH1 0x0 DUP7 PUSH1 0x0 PUSH2 0x1976 JUMP JUMPDEST PUSH2 0x21C2 DUP6 PUSH2 0x2304 JUMP JUMPDEST OR PUSH2 0x199E JUMP JUMPDEST PUSH1 0x4 PUSH1 0x0 DUP4 DUP2 MSTORE PUSH1 0x20 ADD SWAP1 DUP2 MSTORE PUSH1 0x20 ADD PUSH1 0x0 KECCAK256 DUP2 SWAP1 SSTORE POP PUSH1 0x1 PUSH1 0x40 PUSH1 0x1 SWAP1 SHL OR DUP3 MUL PUSH1 0x5 PUSH1 0x0 DUP6 PUSH20 0xFFFFFFFFFFFFFFFFFFFFFFFFFFFFFFFFFFFFFFFF AND PUSH20 0xFFFFFFFFFFFFFFFFFFFFFFFFFFFFFFFFFFFFFFFF AND DUP2 MSTORE PUSH1 0x20 ADD SWAP1 DUP2 MSTORE PUSH1 0x20 ADD PUSH1 0x0 KECCAK256 PUSH1 0x0 DUP3 DUP3 SLOAD ADD SWAP3 POP POP DUP2 SWAP1 SSTORE POP PUSH1 0x0 PUSH20 0xFFFFFFFFFFFFFFFFFFFFFFFFFFFFFFFFFFFFFFFF DUP5 PUSH20 0xFFFFFFFFFFFFFFFFFFFFFFFFFFFFFFFFFFFFFFFF AND AND SWAP1 POP PUSH1 0x0 DUP2 EQ ISZERO PUSH2 0x2281 JUMPI PUSH2 0x2280 PUSH4 0x2E076300 PUSH1 0xE0 SHL PUSH2 0x15EA JUMP JUMPDEST JUMPDEST PUSH1 0x0 DUP4 DUP4 ADD SWAP1 POP PUSH1 0x0 DUP4 SWAP1 POP PUSH2 0x2295 PUSH2 0x17A6 JUMP JUMPDEST PUSH1 0x1 DUP4 SUB GT ISZERO PUSH2 0x22B0 JUMPI PUSH2 0x22AF PUSH4 0x81647E3A PUSH1 0xE0 SHL PUSH2 0x15EA JUMP JUMPDEST JUMPDEST JUMPDEST DUP1 DUP4 PUSH1 0x0 PUSH32 0xDDF252AD1BE2C89B69C2B068FC378DAA952BA7F163C4A11628F55A4DF523B3EF PUSH1 0x0 DUP1 LOG4 DUP2 DUP2 PUSH1 0x1 ADD SWAP2 POP DUP2 EQ ISZERO PUSH2 0x22B1 JUMPI DUP2 PUSH1 0x0 DUP2 SWAP1 SSTORE POP POP POP POP PUSH2 0x22FF PUSH1 0x0 DUP5 DUP4 DUP6 PUSH2 0x19C9 JUMP JUMPDEST POP POP POP JUMP JUMPDEST PUSH1 0x0 PUSH1 0x1 DUP3 EQ PUSH1 0xE1 SHL SWAP1 POP SWAP2 SWAP1 POP JUMP JUMPDEST DUP3 DUP1 SLOAD PUSH2 0x2320 SWAP1 PUSH2 0x30F5 JUMP JUMPDEST SWAP1 PUSH1 0x0 MSTORE PUSH1 0x20 PUSH1 0x0 KECCAK256 SWAP1 PUSH1 0x1F ADD PUSH1 0x20 SWAP1 DIV DUP2 ADD SWAP3 DUP3 PUSH2 0x2342 JUMPI PUSH1 0x0 DUP6 SSTORE PUSH2 0x2389 JUMP JUMPDEST DUP3 PUSH1 0x1F LT PUSH2 0x235B JUMPI DUP1 MLOAD PUSH1 0xFF NOT AND DUP4 DUP1 ADD OR DUP6 SSTORE PUSH2 0x2389 JUMP JUMPDEST DUP3 DUP1 ADD PUSH1 0x1 ADD DUP6 SSTORE DUP3 ISZERO PUSH2 0x2389 JUMPI SWAP2 DUP3 ADD JUMPDEST DUP3 DUP2 GT ISZERO PUSH2 0x2388 JUMPI DUP3 MLOAD DUP3 SSTORE SWAP2 PUSH1 0x20 ADD SWAP2 SWAP1 PUSH1 0x1 ADD SWAP1 PUSH2 0x236D JUMP JUMPDEST JUMPDEST POP SWAP1 POP PUSH2 0x2396 SWAP2 SWAP1 PUSH2 0x23E9 JUMP JUMPDEST POP SWAP1 JUMP JUMPDEST PUSH1 0x40 MLOAD DUP1 PUSH1 0x80 ADD PUSH1 0x40 MSTORE DUP1 PUSH1 0x0 PUSH20 0xFFFFFFFFFFFFFFFFFFFFFFFFFFFFFFFFFFFFFFFF AND DUP2 MSTORE PUSH1 0x20 ADD PUSH1 0x0 PUSH8 0xFFFFFFFFFFFFFFFF AND DUP2 MSTORE PUSH1 0x20 ADD PUSH1 0x0 ISZERO ISZERO DUP2 MSTORE PUSH1 0x20 ADD PUSH1 0x0 PUSH3 0xFFFFFF AND DUP2 MSTORE POP SWAP1 JUMP JUMPDEST JUMPDEST DUP1 DUP3 GT ISZERO PUSH2 0x2402 JUMPI PUSH1 0x0 DUP2 PUSH1 0x0 SWAP1 SSTORE POP PUSH1 0x1 ADD PUSH2 0x23EA JUMP JUMPDEST POP SWAP1 JUMP JUMPDEST PUSH1 0x0 PUSH2 0x2419 PUSH2 0x2414 DUP5 PUSH2 0x2DBB JUMP JUMPDEST PUSH2 0x2D96 JUMP JUMPDEST SWAP1 POP DUP3 DUP2 MSTORE PUSH1 0x20 DUP2 ADD DUP5 DUP5 DUP5 ADD GT ISZERO PUSH2 0x2435 JUMPI PUSH2 0x2434 PUSH2 0x32CC JUMP JUMPDEST JUMPDEST PUSH2 0x2440 DUP5 DUP3 DUP6 PUSH2 0x3089 JUMP JUMPDEST POP SWAP4 SWAP3 POP POP POP JUMP JUMPDEST PUSH1 0x0 PUSH2 0x245B PUSH2 0x2456 DUP5 PUSH2 0x2DEC JUMP JUMPDEST PUSH2 0x2D96 JUMP JUMPDEST SWAP1 POP DUP3 DUP2 MSTORE PUSH1 0x20 DUP2 ADD DUP5 DUP5 DUP5 ADD GT ISZERO PUSH2 0x2477 JUMPI PUSH2 0x2476 PUSH2 0x32CC JUMP JUMPDEST JUMPDEST PUSH2 0x2482 DUP5 DUP3 DUP6 PUSH2 0x3089 JUMP JUMPDEST POP SWAP4 SWAP3 POP POP POP JUMP JUMPDEST PUSH1 0x0 DUP2 CALLDATALOAD SWAP1 POP PUSH2 0x2499 DUP2 PUSH2 0x3367 JUMP JUMPDEST SWAP3 SWAP2 POP POP JUMP JUMPDEST PUSH1 0x0 DUP1 DUP4 PUSH1 0x1F DUP5 ADD SLT PUSH2 0x24B5 JUMPI PUSH2 0x24B4 PUSH2 0x32C2 JUMP JUMPDEST JUMPDEST DUP3 CALLDATALOAD SWAP1 POP PUSH8 0xFFFFFFFFFFFFFFFF DUP2 GT ISZERO PUSH2 0x24D2 JUMPI PUSH2 0x24D1 PUSH2 0x32BD JUMP JUMPDEST JUMPDEST PUSH1 0x20 DUP4 ADD SWAP2 POP DUP4 PUSH1 0x20 DUP3 MUL DUP4 ADD GT ISZERO PUSH2 0x24EE JUMPI PUSH2 0x24ED PUSH2 0x32C7 JUMP JUMPDEST JUMPDEST SWAP3 POP SWAP3 SWAP1 POP JUMP JUMPDEST PUSH1 0x0 DUP2 CALLDATALOAD SWAP1 POP PUSH2 0x2504 DUP2 PUSH2 0x337E JUMP JUMPDEST SWAP3 SWAP2 POP POP JUMP JUMPDEST PUSH1 0x0 DUP2 CALLDATALOAD SWAP1 POP PUSH2 0x2519 DUP2 PUSH2 0x3395 JUMP JUMPDEST SWAP3 SWAP2 POP POP JUMP JUMPDEST PUSH1 0x0 DUP2 MLOAD SWAP1 POP PUSH2 0x252E DUP2 PUSH2 0x3395 JUMP JUMPDEST SWAP3 SWAP2 POP POP JUMP JUMPDEST PUSH1 0x0 DUP3 PUSH1 0x1F DUP4 ADD SLT PUSH2 0x2549 JUMPI PUSH2 0x2548 PUSH2 0x32C2 JUMP JUMPDEST JUMPDEST DUP2 CALLDATALOAD PUSH2 0x2559 DUP5 DUP3 PUSH1 0x20 DUP7 ADD PUSH2 0x2406 JUMP JUMPDEST SWAP2 POP POP SWAP3 SWAP2 POP POP JUMP JUMPDEST PUSH1 0x0 DUP3 PUSH1 0x1F DUP4 ADD SLT PUSH2 0x2577 JUMPI PUSH2 0x2576 PUSH2 0x32C2 JUMP JUMPDEST JUMPDEST DUP2 CALLDATALOAD PUSH2 0x2587 DUP5 DUP3 PUSH1 0x20 DUP7 ADD PUSH2 0x2448 JUMP JUMPDEST SWAP2 POP POP SWAP3 SWAP2 POP POP JUMP JUMPDEST PUSH1 0x0 DUP2 CALLDATALOAD SWAP1 POP PUSH2 0x259F DUP2 PUSH2 0x33AC JUMP JUMPDEST SWAP3 SWAP2 POP POP JUMP JUMPDEST PUSH1 0x0 PUSH1 0x20 DUP3 DUP5 SUB SLT ISZERO PUSH2 0x25BB JUMPI PUSH2 0x25BA PUSH2 0x32D6 JUMP JUMPDEST JUMPDEST PUSH1 0x0 PUSH2 0x25C9 DUP5 DUP3 DUP6 ADD PUSH2 0x248A JUMP JUMPDEST SWAP2 POP POP SWAP3 SWAP2 POP POP JUMP JUMPDEST PUSH1 0x0 DUP1 PUSH1 0x40 DUP4 DUP6 SUB SLT ISZERO PUSH2 0x25E9 JUMPI PUSH2 0x25E8 PUSH2 0x32D6 JUMP JUMPDEST JUMPDEST PUSH1 0x0 PUSH2 0x25F7 DUP6 DUP3 DUP7 ADD PUSH2 0x248A JUMP JUMPDEST SWAP3 POP POP PUSH1 0x20 PUSH2 0x2608 DUP6 DUP3 DUP7 ADD PUSH2 0x248A JUMP JUMPDEST SWAP2 POP POP SWAP3 POP SWAP3 SWAP1 POP JUMP JUMPDEST PUSH1 0x0 DUP1 PUSH1 0x0 PUSH1 0x60 DUP5 DUP7 SUB SLT ISZERO PUSH2 0x262B JUMPI PUSH2 0x262A PUSH2 0x32D6 JUMP JUMPDEST JUMPDEST PUSH1 0x0 PUSH2 0x2639 DUP7 DUP3 DUP8 ADD PUSH2 0x248A JUMP JUMPDEST SWAP4 POP POP PUSH1 0x20 PUSH2 0x264A DUP7 DUP3 DUP8 ADD PUSH2 0x248A JUMP JUMPDEST SWAP3 POP POP PUSH1 0x40 PUSH2 0x265B DUP7 DUP3 DUP8 ADD PUSH2 0x2590 JUMP JUMPDEST SWAP2 POP POP SWAP3 POP SWAP3 POP SWAP3 JUMP JUMPDEST PUSH1 0x0 DUP1 PUSH1 0x0 DUP1 PUSH1 0x80 DUP6 DUP8 SUB SLT ISZERO PUSH2 0x267F JUMPI PUSH2 0x267E PUSH2 0x32D6 JUMP JUMPDEST JUMPDEST PUSH1 0x0 PUSH2 0x268D DUP8 DUP3 DUP9 ADD PUSH2 0x248A JUMP JUMPDEST SWAP5 POP POP PUSH1 0x20 PUSH2 0x269E DUP8 DUP3 DUP9 ADD PUSH2 0x248A JUMP JUMPDEST SWAP4 POP POP PUSH1 0x40 PUSH2 0x26AF DUP8 DUP3 DUP9 ADD PUSH2 0x2590 JUMP JUMPDEST SWAP3 POP POP PUSH1 0x60 DUP6 ADD CALLDATALOAD PUSH8 0xFFFFFFFFFFFFFFFF DUP2 GT ISZERO PUSH2 0x26D0 JUMPI PUSH2 0x26CF PUSH2 0x32D1 JUMP JUMPDEST JUMPDEST PUSH2 0x26DC DUP8 DUP3 DUP9 ADD PUSH2 0x2534 JUMP JUMPDEST SWAP2 POP POP SWAP3 SWAP6 SWAP2 SWAP5 POP SWAP3 POP JUMP JUMPDEST PUSH1 0x0 DUP1 PUSH1 0x40 DUP4 DUP6 SUB SLT ISZERO PUSH2 0x26FF JUMPI PUSH2 0x26FE PUSH2 0x32D6 JUMP JUMPDEST JUMPDEST PUSH1 0x0 PUSH2 0x270D DUP6 DUP3 DUP7 ADD PUSH2 0x248A JUMP JUMPDEST SWAP3 POP POP PUSH1 0x20 PUSH2 0x271E DUP6 DUP3 DUP7 ADD PUSH2 0x24F5 JUMP JUMPDEST SWAP2 POP POP SWAP3 POP SWAP3 SWAP1 POP JUMP JUMPDEST PUSH1 0x0 DUP1 PUSH1 0x40 DUP4 DUP6 SUB SLT ISZERO PUSH2 0x273F JUMPI PUSH2 0x273E PUSH2 0x32D6 JUMP JUMPDEST JUMPDEST PUSH1 0x0 PUSH2 0x274D DUP6 DUP3 DUP7 ADD PUSH2 0x248A JUMP JUMPDEST SWAP3 POP POP PUSH1 0x20 PUSH2 0x275E DUP6 DUP3 DUP7 ADD PUSH2 0x2590 JUMP JUMPDEST SWAP2 POP POP SWAP3 POP SWAP3 SWAP1 POP JUMP JUMPDEST PUSH1 0x0 DUP1 PUSH1 0x0 PUSH1 0x60 DUP5 DUP7 SUB SLT ISZERO PUSH2 0x2781 JUMPI PUSH2 0x2780 PUSH2 0x32D6 JUMP JUMPDEST JUMPDEST PUSH1 0x0 PUSH2 0x278F DUP7 DUP3 DUP8 ADD PUSH2 0x248A JUMP JUMPDEST SWAP4 POP POP PUSH1 0x20 PUSH2 0x27A0 DUP7 DUP3 DUP8 ADD PUSH2 0x2590 JUMP JUMPDEST SWAP3 POP POP PUSH1 0x40 PUSH2 0x27B1 DUP7 DUP3 DUP8 ADD PUSH2 0x2590 JUMP JUMPDEST SWAP2 POP POP SWAP3 POP SWAP3 POP SWAP3 JUMP JUMPDEST PUSH1 0x0 DUP1 PUSH1 0x20 DUP4 DUP6 SUB SLT ISZERO PUSH2 0x27D2 JUMPI PUSH2 0x27D1 PUSH2 0x32D6 JUMP JUMPDEST JUMPDEST PUSH1 0x0 DUP4 ADD CALLDATALOAD PUSH8 0xFFFFFFFFFFFFFFFF DUP2 GT ISZERO PUSH2 0x27F0 JUMPI PUSH2 0x27EF PUSH2 0x32D1 JUMP JUMPDEST JUMPDEST PUSH2 0x27FC DUP6 DUP3 DUP7 ADD PUSH2 0x249F JUMP JUMPDEST SWAP3 POP SWAP3 POP POP SWAP3 POP SWAP3 SWAP1 POP JUMP JUMPDEST PUSH1 0x0 PUSH1 0x20 DUP3 DUP5 SUB SLT ISZERO PUSH2 0x281E JUMPI PUSH2 0x281D PUSH2 0x32D6 JUMP JUMPDEST JUMPDEST PUSH1 0x0 PUSH2 0x282C DUP5 DUP3 DUP6 ADD PUSH2 0x250A JUMP JUMPDEST SWAP2 POP POP SWAP3 SWAP2 POP POP JUMP JUMPDEST PUSH1 0x0 PUSH1 0x20 DUP3 DUP5 SUB SLT ISZERO PUSH2 0x284B JUMPI PUSH2 0x284A PUSH2 0x32D6 JUMP JUMPDEST JUMPDEST PUSH1 0x0 PUSH2 0x2859 DUP5 DUP3 DUP6 ADD PUSH2 0x251F JUMP JUMPDEST SWAP2 POP POP SWAP3 SWAP2 POP POP JUMP JUMPDEST PUSH1 0x0 PUSH1 0x20 DUP3 DUP5 SUB SLT ISZERO PUSH2 0x2878 JUMPI PUSH2 0x2877 PUSH2 0x32D6 JUMP JUMPDEST JUMPDEST PUSH1 0x0 DUP3 ADD CALLDATALOAD PUSH8 0xFFFFFFFFFFFFFFFF DUP2 GT ISZERO PUSH2 0x2896 JUMPI PUSH2 0x2895 PUSH2 0x32D1 JUMP JUMPDEST JUMPDEST PUSH2 0x28A2 DUP5 DUP3 DUP6 ADD PUSH2 0x2562 JUMP JUMPDEST SWAP2 POP POP SWAP3 SWAP2 POP POP JUMP JUMPDEST PUSH1 0x0 PUSH1 0x20 DUP3 DUP5 SUB SLT ISZERO PUSH2 0x28C1 JUMPI PUSH2 0x28C0 PUSH2 0x32D6 JUMP JUMPDEST JUMPDEST PUSH1 0x0 PUSH2 0x28CF DUP5 DUP3 DUP6 ADD PUSH2 0x2590 JUMP JUMPDEST SWAP2 POP POP SWAP3 SWAP2 POP POP JUMP JUMPDEST PUSH1 0x0 PUSH2 0x28E4 DUP4 DUP4 PUSH2 0x2B0C JUMP JUMPDEST PUSH1 0x80 DUP4 ADD SWAP1 POP SWAP3 SWAP2 POP POP JUMP JUMPDEST PUSH1 0x0 PUSH2 0x28FC DUP4 DUP4 PUSH2 0x2BC5 JUMP JUMPDEST PUSH1 0x20 DUP4 ADD SWAP1 POP SWAP3 SWAP2 POP POP JUMP JUMPDEST PUSH2 0x2911 DUP2 PUSH2 0x2FF2 JUMP JUMPDEST DUP3 MSTORE POP POP JUMP JUMPDEST PUSH2 0x2920 DUP2 PUSH2 0x2FF2 JUMP JUMPDEST DUP3 MSTORE POP POP JUMP JUMPDEST PUSH1 0x0 PUSH2 0x2931 DUP3 PUSH2 0x2E3D JUMP JUMPDEST PUSH2 0x293B DUP2 DUP6 PUSH2 0x2E83 JUMP JUMPDEST SWAP4 POP PUSH2 0x2946 DUP4 PUSH2 0x2E1D JUMP JUMPDEST DUP1 PUSH1 0x0 JUMPDEST DUP4 DUP2 LT ISZERO PUSH2 0x2977 JUMPI DUP2 MLOAD PUSH2 0x295E DUP9 DUP3 PUSH2 0x28D8 JUMP JUMPDEST SWAP8 POP PUSH2 0x2969 DUP4 PUSH2 0x2E69 JUMP JUMPDEST SWAP3 POP POP PUSH1 0x1 DUP2 ADD SWAP1 POP PUSH2 0x294A JUMP JUMPDEST POP DUP6 SWAP4 POP POP POP POP SWAP3 SWAP2 POP POP JUMP JUMPDEST PUSH1 0x0 PUSH2 0x298F DUP3 PUSH2 0x2E48 JUMP JUMPDEST PUSH2 0x2999 DUP2 DUP6 PUSH2 0x2E94 JUMP JUMPDEST SWAP4 POP PUSH2 0x29A4 DUP4 PUSH2 0x2E2D JUMP JUMPDEST DUP1 PUSH1 0x0 JUMPDEST DUP4 DUP2 LT ISZERO PUSH2 0x29D5 JUMPI DUP2 MLOAD PUSH2 0x29BC DUP9 DUP3 PUSH2 0x28F0 JUMP JUMPDEST SWAP8 POP PUSH2 0x29C7 DUP4 PUSH2 0x2E76 JUMP JUMPDEST SWAP3 POP POP PUSH1 0x1 DUP2 ADD SWAP1 POP PUSH2 0x29A8 JUMP JUMPDEST POP DUP6 SWAP4 POP POP POP POP SWAP3 SWAP2 POP POP JUMP JUMPDEST PUSH2 0x29EB DUP2 PUSH2 0x3004 JUMP JUMPDEST DUP3 MSTORE POP POP JUMP JUMPDEST PUSH2 0x29FA DUP2 PUSH2 0x3004 JUMP JUMPDEST DUP3 MSTORE POP POP JUMP JUMPDEST PUSH1 0x0 PUSH2 0x2A0B DUP3 PUSH2 0x2E53 JUMP JUMPDEST PUSH2 0x2A15 DUP2 DUP6 PUSH2 0x2EA5 JUMP JUMPDEST SWAP4 POP PUSH2 0x2A25 DUP2 DUP6 PUSH1 0x20 DUP7 ADD PUSH2 0x3098 JUMP JUMPDEST PUSH2 0x2A2E DUP2 PUSH2 0x32DB JUMP JUMPDEST DUP5 ADD SWAP2 POP POP SWAP3 SWAP2 POP POP JUMP JUMPDEST PUSH1 0x0 PUSH2 0x2A44 DUP3 PUSH2 0x2E5E JUMP JUMPDEST PUSH2 0x2A4E DUP2 DUP6 PUSH2 0x2EC1 JUMP JUMPDEST SWAP4 POP PUSH2 0x2A5E DUP2 DUP6 PUSH1 0x20 DUP7 ADD PUSH2 0x3098 JUMP JUMPDEST PUSH2 0x2A67 DUP2 PUSH2 0x32DB JUMP JUMPDEST DUP5 ADD SWAP2 POP POP SWAP3 SWAP2 POP POP JUMP JUMPDEST PUSH1 0x0 PUSH2 0x2A7D DUP3 PUSH2 0x2E5E JUMP JUMPDEST PUSH2 0x2A87 DUP2 DUP6 PUSH2 0x2ED2 JUMP JUMPDEST SWAP4 POP PUSH2 0x2A97 DUP2 DUP6 PUSH1 0x20 DUP7 ADD PUSH2 0x3098 JUMP JUMPDEST DUP1 DUP5 ADD SWAP2 POP POP SWAP3 SWAP2 POP POP JUMP JUMPDEST PUSH1 0x0 PUSH2 0x2AB0 PUSH1 0x26 DUP4 PUSH2 0x2EC1 JUMP JUMPDEST SWAP2 POP PUSH2 0x2ABB DUP3 PUSH2 0x32EC JUMP JUMPDEST PUSH1 0x40 DUP3 ADD SWAP1 POP SWAP2 SWAP1 POP JUMP JUMPDEST PUSH1 0x0 PUSH2 0x2AD3 PUSH1 0x20 DUP4 PUSH2 0x2EC1 JUMP JUMPDEST SWAP2 POP PUSH2 0x2ADE DUP3 PUSH2 0x333B JUMP JUMPDEST PUSH1 0x20 DUP3 ADD SWAP1 POP SWAP2 SWAP1 POP JUMP JUMPDEST PUSH1 0x0 PUSH2 0x2AF6 PUSH1 0x0 DUP4 PUSH2 0x2EB6 JUMP JUMPDEST SWAP2 POP PUSH2 0x2B01 DUP3 PUSH2 0x3364 JUMP JUMPDEST PUSH1 0x0 DUP3 ADD SWAP1 POP SWAP2 SWAP1 POP JUMP JUMPDEST PUSH1 0x80 DUP3 ADD PUSH1 0x0 DUP3 ADD MLOAD PUSH2 0x2B22 PUSH1 0x0 DUP6 ADD DUP3 PUSH2 0x2908 JUMP JUMPDEST POP PUSH1 0x20 DUP3 ADD MLOAD PUSH2 0x2B35 PUSH1 0x20 DUP6 ADD DUP3 PUSH2 0x2BE3 JUMP JUMPDEST POP PUSH1 0x40 DUP3 ADD MLOAD PUSH2 0x2B48 PUSH1 0x40 DUP6 ADD DUP3 PUSH2 0x29E2 JUMP JUMPDEST POP PUSH1 0x60 DUP3 ADD MLOAD PUSH2 0x2B5B PUSH1 0x60 DUP6 ADD DUP3 PUSH2 0x2BB6 JUMP JUMPDEST POP POP POP POP JUMP JUMPDEST PUSH1 0x80 DUP3 ADD PUSH1 0x0 DUP3 ADD MLOAD PUSH2 0x2B77 PUSH1 0x0 DUP6 ADD DUP3 PUSH2 0x2908 JUMP JUMPDEST POP PUSH1 0x20 DUP3 ADD MLOAD PUSH2 0x2B8A PUSH1 0x20 DUP6 ADD DUP3 PUSH2 0x2BE3 JUMP JUMPDEST POP PUSH1 0x40 DUP3 ADD MLOAD PUSH2 0x2B9D PUSH1 0x40 DUP6 ADD DUP3 PUSH2 0x29E2 JUMP JUMPDEST POP PUSH1 0x60 DUP3 ADD MLOAD PUSH2 0x2BB0 PUSH1 0x60 DUP6 ADD DUP3 PUSH2 0x2BB6 JUMP JUMPDEST POP POP POP POP JUMP JUMPDEST PUSH2 0x2BBF DUP2 PUSH2 0x305C JUMP JUMPDEST DUP3 MSTORE POP POP JUMP JUMPDEST PUSH2 0x2BCE DUP2 PUSH2 0x306B JUMP JUMPDEST DUP3 MSTORE POP POP JUMP JUMPDEST PUSH2 0x2BDD DUP2 PUSH2 0x306B JUMP JUMPDEST DUP3 MSTORE POP POP JUMP JUMPDEST PUSH2 0x2BEC DUP2 PUSH2 0x3075 JUMP JUMPDEST DUP3 MSTORE POP POP JUMP JUMPDEST PUSH1 0x0 PUSH2 0x2BFE DUP3 DUP7 PUSH2 0x2A72 JUMP JUMPDEST SWAP2 POP PUSH2 0x2C0A DUP3 DUP6 PUSH2 0x2A72 JUMP JUMPDEST SWAP2 POP PUSH2 0x2C16 DUP3 DUP5 PUSH2 0x2A72 JUMP JUMPDEST SWAP2 POP DUP2 SWAP1 POP SWAP5 SWAP4 POP POP POP POP JUMP JUMPDEST PUSH1 0x0 PUSH2 0x2C2E DUP3 PUSH2 0x2AE9 JUMP JUMPDEST SWAP2 POP DUP2 SWAP1 POP SWAP2 SWAP1 POP JUMP JUMPDEST PUSH1 0x0 PUSH1 0x20 DUP3 ADD SWAP1 POP PUSH2 0x2C4D PUSH1 0x0 DUP4 ADD DUP5 PUSH2 0x2917 JUMP JUMPDEST SWAP3 SWAP2 POP POP JUMP JUMPDEST PUSH1 0x0 PUSH1 0x80 DUP3 ADD SWAP1 POP PUSH2 0x2C68 PUSH1 0x0 DUP4 ADD DUP8 PUSH2 0x2917 JUMP JUMPDEST PUSH2 0x2C75 PUSH1 0x20 DUP4 ADD DUP7 PUSH2 0x2917 JUMP JUMPDEST PUSH2 0x2C82 PUSH1 0x40 DUP4 ADD DUP6 PUSH2 0x2BD4 JUMP JUMPDEST DUP2 DUP2 SUB PUSH1 0x60 DUP4 ADD MSTORE PUSH2 0x2C94 DUP2 DUP5 PUSH2 0x2A00 JUMP JUMPDEST SWAP1 POP SWAP6 SWAP5 POP POP POP POP POP JUMP JUMPDEST PUSH1 0x0 PUSH1 0x20 DUP3 ADD SWAP1 POP DUP2 DUP2 SUB PUSH1 0x0 DUP4 ADD MSTORE PUSH2 0x2CB9 DUP2 DUP5 PUSH2 0x2926 JUMP JUMPDEST SWAP1 POP SWAP3 SWAP2 POP POP JUMP JUMPDEST PUSH1 0x0 PUSH1 0x20 DUP3 ADD SWAP1 POP DUP2 DUP2 SUB PUSH1 0x0 DUP4 ADD MSTORE PUSH2 0x2CDB DUP2 DUP5 PUSH2 0x2984 JUMP JUMPDEST SWAP1 POP SWAP3 SWAP2 POP POP JUMP JUMPDEST PUSH1 0x0 PUSH1 0x20 DUP3 ADD SWAP1 POP PUSH2 0x2CF8 PUSH1 0x0 DUP4 ADD DUP5 PUSH2 0x29F1 JUMP JUMPDEST SWAP3 SWAP2 POP POP JUMP JUMPDEST PUSH1 0x0 PUSH1 0x20 DUP3 ADD SWAP1 POP DUP2 DUP2 SUB PUSH1 0x0 DUP4 ADD MSTORE PUSH2 0x2D18 DUP2 DUP5 PUSH2 0x2A39 JUMP JUMPDEST SWAP1 POP SWAP3 SWAP2 POP POP JUMP JUMPDEST PUSH1 0x0 PUSH1 0x20 DUP3 ADD SWAP1 POP DUP2 DUP2 SUB PUSH1 0x0 DUP4 ADD MSTORE PUSH2 0x2D39 DUP2 PUSH2 0x2AA3 JUMP JUMPDEST SWAP1 POP SWAP2 SWAP1 POP JUMP JUMPDEST PUSH1 0x0 PUSH1 0x20 DUP3 ADD SWAP1 POP DUP2 DUP2 SUB PUSH1 0x0 DUP4 ADD MSTORE PUSH2 0x2D59 DUP2 PUSH2 0x2AC6 JUMP JUMPDEST SWAP1 POP SWAP2 SWAP1 POP JUMP JUMPDEST PUSH1 0x0 PUSH1 0x80 DUP3 ADD SWAP1 POP PUSH2 0x2D75 PUSH1 0x0 DUP4 ADD DUP5 PUSH2 0x2B61 JUMP JUMPDEST SWAP3 SWAP2 POP POP JUMP JUMPDEST PUSH1 0x0 PUSH1 0x20 DUP3 ADD SWAP1 POP PUSH2 0x2D90 PUSH1 0x0 DUP4 ADD DUP5 PUSH2 0x2BD4 JUMP JUMPDEST SWAP3 SWAP2 POP POP JUMP JUMPDEST PUSH1 0x0 PUSH2 0x2DA0 PUSH2 0x2DB1 JUMP JUMPDEST SWAP1 POP PUSH2 0x2DAC DUP3 DUP3 PUSH2 0x3127 JUMP JUMPDEST SWAP2 SWAP1 POP JUMP JUMPDEST PUSH1 0x0 PUSH1 0x40 MLOAD SWAP1 POP SWAP1 JUMP JUMPDEST PUSH1 0x0 PUSH8 0xFFFFFFFFFFFFFFFF DUP3 GT ISZERO PUSH2 0x2DD6 JUMPI PUSH2 0x2DD5 PUSH2 0x328E JUMP JUMPDEST JUMPDEST PUSH2 0x2DDF DUP3 PUSH2 0x32DB JUMP JUMPDEST SWAP1 POP PUSH1 0x20 DUP2 ADD SWAP1 POP SWAP2 SWAP1 POP JUMP JUMPDEST PUSH1 0x0 PUSH8 0xFFFFFFFFFFFFFFFF DUP3 GT ISZERO PUSH2 0x2E07 JUMPI PUSH2 0x2E06 PUSH2 0x328E JUMP JUMPDEST JUMPDEST PUSH2 0x2E10 DUP3 PUSH2 0x32DB JUMP JUMPDEST SWAP1 POP PUSH1 0x20 DUP2 ADD SWAP1 POP SWAP2 SWAP1 POP JUMP JUMPDEST PUSH1 0x0 DUP2 SWAP1 POP PUSH1 0x20 DUP3 ADD SWAP1 POP SWAP2 SWAP1 POP JUMP JUMPDEST PUSH1 0x0 DUP2 SWAP1 POP PUSH1 0x20 DUP3 ADD SWAP1 POP SWAP2 SWAP1 POP JUMP JUMPDEST PUSH1 0x0 DUP2 MLOAD SWAP1 POP SWAP2 SWAP1 POP JUMP JUMPDEST PUSH1 0x0 DUP2 MLOAD SWAP1 POP SWAP2 SWAP1 POP JUMP JUMPDEST PUSH1 0x0 DUP2 MLOAD SWAP1 POP SWAP2 SWAP1 POP JUMP JUMPDEST PUSH1 0x0 DUP2 MLOAD SWAP1 POP SWAP2 SWAP1 POP JUMP JUMPDEST PUSH1 0x0 PUSH1 0x20 DUP3 ADD SWAP1 POP SWAP2 SWAP1 POP JUMP JUMPDEST PUSH1 0x0 PUSH1 0x20 DUP3 ADD SWAP1 POP SWAP2 SWAP1 POP JUMP JUMPDEST PUSH1 0x0 DUP3 DUP3 MSTORE PUSH1 0x20 DUP3 ADD SWAP1 POP SWAP3 SWAP2 POP POP JUMP JUMPDEST PUSH1 0x0 DUP3 DUP3 MSTORE PUSH1 0x20 DUP3 ADD SWAP1 POP SWAP3 SWAP2 POP POP JUMP JUMPDEST PUSH1 0x0 DUP3 DUP3 MSTORE PUSH1 0x20 DUP3 ADD SWAP1 POP SWAP3 SWAP2 POP POP JUMP JUMPDEST PUSH1 0x0 DUP2 SWAP1 POP SWAP3 SWAP2 POP POP JUMP JUMPDEST PUSH1 0x0 DUP3 DUP3 MSTORE PUSH1 0x20 DUP3 ADD SWAP1 POP SWAP3 SWAP2 POP POP JUMP JUMPDEST PUSH1 0x0 DUP2 SWAP1 POP SWAP3 SWAP2 POP POP JUMP JUMPDEST PUSH1 0x0 PUSH2 0x2EE8 DUP3 PUSH2 0x306B JUMP JUMPDEST SWAP2 POP PUSH2 0x2EF3 DUP4 PUSH2 0x306B JUMP JUMPDEST SWAP3 POP DUP3 PUSH32 0xFFFFFFFFFFFFFFFFFFFFFFFFFFFFFFFFFFFFFFFFFFFFFFFFFFFFFFFFFFFFFFFF SUB DUP3 GT ISZERO PUSH2 0x2F28 JUMPI PUSH2 0x2F27 PUSH2 0x31D2 JUMP JUMPDEST JUMPDEST DUP3 DUP3 ADD SWAP1 POP SWAP3 SWAP2 POP POP JUMP JUMPDEST PUSH1 0x0 PUSH2 0x2F3E DUP3 PUSH2 0x306B JUMP JUMPDEST SWAP2 POP PUSH2 0x2F49 DUP4 PUSH2 0x306B JUMP JUMPDEST SWAP3 POP DUP3 PUSH2 0x2F59 JUMPI PUSH2 0x2F58 PUSH2 0x3201 JUMP JUMPDEST JUMPDEST DUP3 DUP3 DIV SWAP1 POP SWAP3 SWAP2 POP POP JUMP JUMPDEST PUSH1 0x0 PUSH2 0x2F6F DUP3 PUSH2 0x306B JUMP JUMPDEST SWAP2 POP PUSH2 0x2F7A DUP4 PUSH2 0x306B JUMP JUMPDEST SWAP3 POP DUP2 PUSH32 0xFFFFFFFFFFFFFFFFFFFFFFFFFFFFFFFFFFFFFFFFFFFFFFFFFFFFFFFFFFFFFFFF DIV DUP4 GT DUP3 ISZERO ISZERO AND ISZERO PUSH2 0x2FB3 JUMPI PUSH2 0x2FB2 PUSH2 0x31D2 JUMP JUMPDEST JUMPDEST DUP3 DUP3 MUL SWAP1 POP SWAP3 SWAP2 POP POP JUMP JUMPDEST PUSH1 0x0 PUSH2 0x2FC9 DUP3 PUSH2 0x306B JUMP JUMPDEST SWAP2 POP PUSH2 0x2FD4 DUP4 PUSH2 0x306B JUMP JUMPDEST SWAP3 POP DUP3 DUP3 LT ISZERO PUSH2 0x2FE7 JUMPI PUSH2 0x2FE6 PUSH2 0x31D2 JUMP JUMPDEST JUMPDEST DUP3 DUP3 SUB SWAP1 POP SWAP3 SWAP2 POP POP JUMP JUMPDEST PUSH1 0x0 PUSH2 0x2FFD DUP3 PUSH2 0x303C JUMP JUMPDEST SWAP1 POP SWAP2 SWAP1 POP JUMP JUMPDEST PUSH1 0x0 DUP2 ISZERO ISZERO SWAP1 POP SWAP2 SWAP1 POP JUMP JUMPDEST PUSH1 0x0 PUSH32 0xFFFFFFFF00000000000000000000000000000000000000000000000000000000 DUP3 AND SWAP1 POP SWAP2 SWAP1 POP JUMP JUMPDEST PUSH1 0x0 PUSH20 0xFFFFFFFFFFFFFFFFFFFFFFFFFFFFFFFFFFFFFFFF DUP3 AND SWAP1 POP SWAP2 SWAP1 POP JUMP JUMPDEST PUSH1 0x0 PUSH3 0xFFFFFF DUP3 AND SWAP1 POP SWAP2 SWAP1 POP JUMP JUMPDEST PUSH1 0x0 DUP2 SWAP1 POP SWAP2 SWAP1 POP JUMP JUMPDEST PUSH1 0x0 PUSH8 0xFFFFFFFFFFFFFFFF DUP3 AND SWAP1 POP SWAP2 SWAP1 POP JUMP JUMPDEST DUP3 DUP2 DUP4 CALLDATACOPY PUSH1 0x0 DUP4 DUP4 ADD MSTORE POP POP POP JUMP JUMPDEST PUSH1 0x0 JUMPDEST DUP4 DUP2 LT ISZERO PUSH2 0x30B6 JUMPI DUP1 DUP3 ADD MLOAD DUP2 DUP5 ADD MSTORE PUSH1 0x20 DUP2 ADD SWAP1 POP PUSH2 0x309B JUMP JUMPDEST DUP4 DUP2 GT ISZERO PUSH2 0x30C5 JUMPI PUSH1 0x0 DUP5 DUP5 ADD MSTORE JUMPDEST POP POP POP POP JUMP JUMPDEST PUSH1 0x0 PUSH2 0x30D6 DUP3 PUSH2 0x306B JUMP JUMPDEST SWAP2 POP PUSH1 0x0 DUP3 EQ ISZERO PUSH2 0x30EA JUMPI PUSH2 0x30E9 PUSH2 0x31D2 JUMP JUMPDEST JUMPDEST PUSH1 0x1 DUP3 SUB SWAP1 POP SWAP2 SWAP1 POP JUMP JUMPDEST PUSH1 0x0 PUSH1 0x2 DUP3 DIV SWAP1 POP PUSH1 0x1 DUP3 AND DUP1 PUSH2 0x310D JUMPI PUSH1 0x7F DUP3 AND SWAP2 POP JUMPDEST PUSH1 0x20 DUP3 LT DUP2 EQ ISZERO PUSH2 0x3121 JUMPI PUSH2 0x3120 PUSH2 0x3230 JUMP JUMPDEST JUMPDEST POP SWAP2 SWAP1 POP JUMP JUMPDEST PUSH2 0x3130 DUP3 PUSH2 0x32DB JUMP JUMPDEST DUP2 ADD DUP2 DUP2 LT PUSH8 0xFFFFFFFFFFFFFFFF DUP3 GT OR ISZERO PUSH2 0x314F JUMPI PUSH2 0x314E PUSH2 0x328E JUMP JUMPDEST JUMPDEST DUP1 PUSH1 0x40 MSTORE POP POP POP JUMP JUMPDEST PUSH1 0x0 PUSH2 0x3163 DUP3 PUSH2 0x306B JUMP JUMPDEST SWAP2 POP PUSH32 0xFFFFFFFFFFFFFFFFFFFFFFFFFFFFFFFFFFFFFFFFFFFFFFFFFFFFFFFFFFFFFFFF DUP3 EQ ISZERO PUSH2 0x3196 JUMPI PUSH2 0x3195 PUSH2 0x31D2 JUMP JUMPDEST JUMPDEST PUSH1 0x1 DUP3 ADD SWAP1 POP SWAP2 SWAP1 POP JUMP JUMPDEST PUSH1 0x0 PUSH2 0x31AC DUP3 PUSH2 0x306B JUMP JUMPDEST SWAP2 POP PUSH2 0x31B7 DUP4 PUSH2 0x306B JUMP JUMPDEST SWAP3 POP DUP3 PUSH2 0x31C7 JUMPI PUSH2 0x31C6 PUSH2 0x3201 JUMP JUMPDEST JUMPDEST DUP3 DUP3 MOD SWAP1 POP SWAP3 SWAP2 POP POP JUMP JUMPDEST PUSH32 0x4E487B7100000000000000000000000000000000000000000000000000000000 PUSH1 0x0 MSTORE PUSH1 0x11 PUSH1 0x4 MSTORE PUSH1 0x24 PUSH1 0x0 REVERT JUMPDEST PUSH32 0x4E487B7100000000000000000000000000000000000000000000000000000000 PUSH1 0x0 MSTORE PUSH1 0x12 PUSH1 0x4 MSTORE PUSH1 0x24 PUSH1 0x0 REVERT JUMPDEST PUSH32 0x4E487B7100000000000000000000000000000000000000000000000000000000 PUSH1 0x0 MSTORE PUSH1 0x22 PUSH1 0x4 MSTORE PUSH1 0x24 PUSH1 0x0 REVERT JUMPDEST PUSH32 0x4E487B7100000000000000000000000000000000000000000000000000000000 PUSH1 0x0 MSTORE PUSH1 0x32 PUSH1 0x4 MSTORE PUSH1 0x24 PUSH1 0x0 REVERT JUMPDEST PUSH32 0x4E487B7100000000000000000000000000000000000000000000000000000000 PUSH1 0x0 MSTORE PUSH1 0x41 PUSH1 0x4 MSTORE PUSH1 0x24 PUSH1 0x0 REVERT JUMPDEST PUSH1 0x0 DUP1 REVERT JUMPDEST PUSH1 0x0 DUP1 REVERT JUMPDEST PUSH1 0x0 DUP1 REVERT JUMPDEST PUSH1 0x0 DUP1 REVERT JUMPDEST PUSH1 0x0 DUP1 REVERT JUMPDEST PUSH1 0x0 DUP1 REVERT JUMPDEST PUSH1 0x0 PUSH1 0x1F NOT PUSH1 0x1F DUP4 ADD AND SWAP1 POP SWAP2 SWAP1 POP JUMP JUMPDEST PUSH32 0x4F776E61626C653A206E6577206F776E657220697320746865207A65726F2061 PUSH1 0x0 DUP3 ADD MSTORE PUSH32 0x6464726573730000000000000000000000000000000000000000000000000000 PUSH1 0x20 DUP3 ADD MSTORE POP JUMP JUMPDEST PUSH32 0x4F776E61626C653A2063616C6C6572206973206E6F7420746865206F776E6572 PUSH1 0x0 DUP3 ADD MSTORE POP JUMP JUMPDEST POP JUMP JUMPDEST PUSH2 0x3370 DUP2 PUSH2 0x2FF2 JUMP JUMPDEST DUP2 EQ PUSH2 0x337B JUMPI PUSH1 0x0 DUP1 REVERT JUMPDEST POP JUMP JUMPDEST PUSH2 0x3387 DUP2 PUSH2 0x3004 JUMP JUMPDEST DUP2 EQ PUSH2 0x3392 JUMPI PUSH1 0x0 DUP1 REVERT JUMPDEST POP JUMP JUMPDEST PUSH2 0x339E DUP2 PUSH2 0x3010 JUMP JUMPDEST DUP2 EQ PUSH2 0x33A9 JUMPI PUSH1 0x0 DUP1 REVERT JUMPDEST POP JUMP JUMPDEST PUSH2 0x33B5 DUP2 PUSH2 0x306B JUMP JUMPDEST DUP2 EQ PUSH2 0x33C0 JUMPI PUSH1 0x0 DUP1 REVERT JUMPDEST POP JUMP INVALID LOG2 PUSH5 0x6970667358 0x22 SLT KECCAK256 0xAA 0xCE 0x2A 0xCB 0xB7 0xC1 DUP3 0xC6 0xB3 0xB1 0xC9 PUSH12 0xC794F50780E07808B10186A3 SLOAD 0x4A 0xF6 MLOAD 0xC6 SWAP8 LOG1 0xE7 PUSH5 0x736F6C6343 STOP ADDMOD SMOD STOP CALLER "
        },
        "methodIdentifiers": {
          "approve(address,uint256)": "095ea7b3",
          "balanceOf(address)": "70a08231",
          "baseExtension()": "c6682862",
          "baseURI()": "6c0360eb",
          "cost()": "13faede6",
          "explicitOwnershipOf(uint256)": "c23dc68f",
          "explicitOwnershipsOf(uint256[])": "5bbb2177",
          "getApproved(uint256)": "081812fc",
          "isApprovedForAll(address,address)": "e985e9c5",
          "maxMintAmountPerTx()": "94354fd0",
          "maxSupply()": "d5abeb01",
          "mint(uint256)": "a0712d68",
          "name()": "06fdde03",
          "owner()": "8da5cb5b",
          "ownerOf(uint256)": "6352211e",
          "pause(uint256)": "136439dd",
          "paused()": "5c975abb",
          "renounceOwnership()": "715018a6",
          "safeTransferFrom(address,address,uint256)": "42842e0e",
          "safeTransferFrom(address,address,uint256,bytes)": "b88d4fde",
          "setApprovalForAll(address,bool)": "a22cb465",
          "setBaseURI(string)": "55f804b3",
          "setCost(uint256)": "44a0d68a",
          "setMaxMintAmountPerTx(uint256)": "b071401b",
          "supportsInterface(bytes4)": "01ffc9a7",
          "symbol()": "95d89b41",
          "tokenURI(uint256)": "c87b56dd",
          "tokensOfOwner(address)": "8462151c",
          "tokensOfOwnerIn(address,uint256,uint256)": "99a2557a",
          "totalSupply()": "18160ddd",
          "transferFrom(address,address,uint256)": "23b872dd",
          "transferOwnership(address)": "f2fde38b",
          "withdraw()": "3ccfd60b"
        }
      }
    }
  }
}