{
  "_format": "hh-sol-artifact-1",
  "contractName": "KryptoPunks",
  "sourceName": "contracts/KryptoPunks.sol",
  "abi": [
    {
      "inputs": [
        {
          "internalType": "uint256",
          "name": "_maxSupply",
          "type": "uint256"
        },
        {
          "internalType": "uint256",
          "name": "_cost",
          "type": "uint256"
        },
        {
          "internalType": "uint256",
          "name": "_maxMintAmountPerTx",
          "type": "uint256"
        }
      ],
      "stateMutability": "nonpayable",
      "type": "constructor"
    },
    {
      "inputs": [],
      "name": "ApprovalCallerNotOwnerNorApproved",
      "type": "error"
    },
    {
      "inputs": [],
      "name": "ApprovalQueryForNonexistentToken",
      "type": "error"
    },
    {
      "inputs": [],
      "name": "BalanceQueryForZeroAddress",
      "type": "error"
    },
    {
      "inputs": [],
      "name": "InvalidQueryRange",
      "type": "error"
    },
    {
      "inputs": [],
      "name": "KryptoPunks__ContractIsPaused",
      "type": "error"
    },
    {
      "inputs": [],
      "name": "KryptoPunks__InsufficientFunds",
      "type": "error"
    },
    {
      "inputs": [],
      "name": "KryptoPunks__InvalidMintAmount",
      "type": "error"
    },
    {
      "inputs": [],
      "name": "KryptoPunks__MaxMintAmountExceeded",
      "type": "error"
    },
    {
      "inputs": [],
      "name": "KryptoPunks__NftSupplyLimitExceeded",
      "type": "error"
    },
    {
      "inputs": [],
      "name": "KryptoPunks__QueryForNonExistentToken",
      "type": "error"
    },
    {
      "inputs": [],
      "name": "MintERC2309QuantityExceedsLimit",
      "type": "error"
    },
    {
      "inputs": [],
      "name": "MintToZeroAddress",
      "type": "error"
    },
    {
      "inputs": [],
      "name": "MintZeroQuantity",
      "type": "error"
    },
    {
      "inputs": [],
      "name": "NotCompatibleWithSpotMints",
      "type": "error"
    },
    {
      "inputs": [],
      "name": "OwnerQueryForNonexistentToken",
      "type": "error"
    },
    {
      "inputs": [],
      "name": "OwnershipNotInitializedForExtraData",
      "type": "error"
    },
    {
      "inputs": [],
      "name": "SequentialMintExceedsLimit",
      "type": "error"
    },
    {
      "inputs": [],
      "name": "SequentialUpToTooSmall",
      "type": "error"
    },
    {
      "inputs": [],
      "name": "SpotMintTokenIdTooSmall",
      "type": "error"
    },
    {
      "inputs": [],
      "name": "TokenAlreadyExists",
      "type": "error"
    },
    {
      "inputs": [],
      "name": "TransferCallerNotOwnerNorApproved",
      "type": "error"
    },
    {
      "inputs": [],
      "name": "TransferFromIncorrectOwner",
      "type": "error"
    },
    {
      "inputs": [],
      "name": "TransferToNonERC721ReceiverImplementer",
      "type": "error"
    },
    {
      "inputs": [],
      "name": "TransferToZeroAddress",
      "type": "error"
    },
    {
      "inputs": [],
      "name": "URIQueryForNonexistentToken",
      "type": "error"
    },
    {
      "anonymous": false,
      "inputs": [
        {
          "indexed": true,
          "internalType": "address",
          "name": "owner",
          "type": "address"
        },
        {
          "indexed": true,
          "internalType": "address",
          "name": "approved",
          "type": "address"
        },
        {
          "indexed": true,
          "internalType": "uint256",
          "name": "tokenId",
          "type": "uint256"
        }
      ],
      "name": "Approval",
      "type": "event"
    },
    {
      "anonymous": false,
      "inputs": [
        {
          "indexed": true,
          "internalType": "address",
          "name": "owner",
          "type": "address"
        },
        {
          "indexed": true,
          "internalType": "address",
          "name": "operator",
          "type": "address"
        },
        {
          "indexed": false,
          "internalType": "bool",
          "name": "approved",
          "type": "bool"
        }
      ],
      "name": "ApprovalForAll",
      "type": "event"
    },
    {
      "anonymous": false,
      "inputs": [
        {
          "indexed": true,
          "internalType": "uint256",
          "name": "fromTokenId",
          "type": "uint256"
        },
        {
          "indexed": false,
          "internalType": "uint256",
          "name": "toTokenId",
          "type": "uint256"
        },
        {
          "indexed": true,
          "internalType": "address",
          "name": "from",
          "type": "address"
        },
        {
          "indexed": true,
          "internalType": "address",
          "name": "to",
          "type": "address"
        }
      ],
      "name": "ConsecutiveTransfer",
      "type": "event"
    },
    {
      "anonymous": false,
      "inputs": [
        {
          "indexed": true,
          "internalType": "address",
          "name": "previousOwner",
          "type": "address"
        },
        {
          "indexed": true,
          "internalType": "address",
          "name": "newOwner",
          "type": "address"
        }
      ],
      "name": "OwnershipTransferred",
      "type": "event"
    },
    {
      "anonymous": false,
      "inputs": [
        {
          "indexed": true,
          "internalType": "address",
          "name": "from",
          "type": "address"
        },
        {
          "indexed": true,
          "internalType": "address",
          "name": "to",
          "type": "address"
        },
        {
          "indexed": true,
          "internalType": "uint256",
          "name": "tokenId",
          "type": "uint256"
        }
      ],
      "name": "Transfer",
      "type": "event"
    },
    {
      "inputs": [
        {
          "internalType": "address",
          "name": "to",
          "type": "address"
        },
        {
          "internalType": "uint256",
          "name": "tokenId",
          "type": "uint256"
        }
      ],
      "name": "approve",
      "outputs": [],
      "stateMutability": "payable",
      "type": "function"
    },
    {
      "inputs": [
        {
          "internalType": "address",
          "name": "owner",
          "type": "address"
        }
      ],
      "name": "balanceOf",
      "outputs": [
        {
          "internalType": "uint256",
          "name": "",
          "type": "uint256"
        }
      ],
      "stateMutability": "view",
      "type": "function"
    },
    {
      "inputs": [],
      "name": "baseExtension",
      "outputs": [
        {
          "internalType": "string",
          "name": "",
          "type": "string"
        }
      ],
      "stateMutability": "view",
      "type": "function"
    },
    {
      "inputs": [],
      "name": "baseURI",
      "outputs": [
        {
          "internalType": "string",
          "name": "",
          "type": "string"
        }
      ],
      "stateMutability": "view",
      "type": "function"
    },
    {
      "inputs": [],
      "name": "cost",
      "outputs": [
        {
          "internalType": "uint256",
          "name": "",
          "type": "uint256"
        }
      ],
      "stateMutability": "view",
      "type": "function"
    },
    {
      "inputs": [
        {
          "internalType": "uint256",
          "name": "tokenId",
          "type": "uint256"
        }
      ],
      "name": "explicitOwnershipOf",
      "outputs": [
        {
          "components": [
            {
              "internalType": "address",
              "name": "addr",
              "type": "address"
            },
            {
              "internalType": "uint64",
              "name": "startTimestamp",
              "type": "uint64"
            },
            {
              "internalType": "bool",
              "name": "burned",
              "type": "bool"
            },
            {
              "internalType": "uint24",
              "name": "extraData",
              "type": "uint24"
            }
          ],
          "internalType": "struct IERC721A.TokenOwnership",
          "name": "ownership",
          "type": "tuple"
        }
      ],
      "stateMutability": "view",
      "type": "function"
    },
    {
      "inputs": [
        {
          "internalType": "uint256[]",
          "name": "tokenIds",
          "type": "uint256[]"
        }
      ],
      "name": "explicitOwnershipsOf",
      "outputs": [
        {
          "components": [
            {
              "internalType": "address",
              "name": "addr",
              "type": "address"
            },
            {
              "internalType": "uint64",
              "name": "startTimestamp",
              "type": "uint64"
            },
            {
              "internalType": "bool",
              "name": "burned",
              "type": "bool"
            },
            {
              "internalType": "uint24",
              "name": "extraData",
              "type": "uint24"
            }
          ],
          "internalType": "struct IERC721A.TokenOwnership[]",
          "name": "",
          "type": "tuple[]"
        }
      ],
      "stateMutability": "view",
      "type": "function"
    },
    {
      "inputs": [
        {
          "internalType": "uint256",
          "name": "tokenId",
          "type": "uint256"
        }
      ],
      "name": "getApproved",
      "outputs": [
        {
          "internalType": "address",
          "name": "",
          "type": "address"
        }
      ],
      "stateMutability": "view",
      "type": "function"
    },
    {
      "inputs": [
        {
          "internalType": "address",
          "name": "owner",
          "type": "address"
        },
        {
          "internalType": "address",
          "name": "operator",
          "type": "address"
        }
      ],
      "name": "isApprovedForAll",
      "outputs": [
        {
          "internalType": "bool",
          "name": "",
          "type": "bool"
        }
      ],
      "stateMutability": "view",
      "type": "function"
    },
    {
      "inputs": [],
      "name": "maxMintAmountPerTx",
      "outputs": [
        {
          "internalType": "uint256",
          "name": "",
          "type": "uint256"
        }
      ],
      "stateMutability": "view",
      "type": "function"
    },
    {
      "inputs": [],
      "name": "maxSupply",
      "outputs": [
        {
          "internalType": "uint256",
          "name": "",
          "type": "uint256"
        }
      ],
      "stateMutability": "view",
      "type": "function"
    },
    {
      "inputs": [
        {
          "internalType": "uint256",
          "name": "_mintAmount",
          "type": "uint256"
        }
      ],
      "name": "mint",
      "outputs": [],
      "stateMutability": "payable",
      "type": "function"
    },
    {
      "inputs": [],
      "name": "name",
      "outputs": [
        {
          "internalType": "string",
          "name": "",
          "type": "string"
        }
      ],
      "stateMutability": "view",
      "type": "function"
    },
    {
      "inputs": [],
      "name": "owner",
      "outputs": [
        {
          "internalType": "address",
          "name": "",
          "type": "address"
        }
      ],
      "stateMutability": "view",
      "type": "function"
    },
    {
      "inputs": [
        {
          "internalType": "uint256",
          "name": "tokenId",
          "type": "uint256"
        }
      ],
      "name": "ownerOf",
      "outputs": [
        {
          "internalType": "address",
          "name": "",
          "type": "address"
        }
      ],
      "stateMutability": "view",
      "type": "function"
    },
    {
      "inputs": [
        {
          "internalType": "uint256",
          "name": "_state",
          "type": "uint256"
        }
      ],
      "name": "pause",
      "outputs": [],
      "stateMutability": "payable",
      "type": "function"
    },
    {
      "inputs": [],
      "name": "paused",
      "outputs": [
        {
          "internalType": "uint256",
          "name": "",
          "type": "uint256"
        }
      ],
      "stateMutability": "view",
      "type": "function"
    },
    {
      "inputs": [],
      "name": "renounceOwnership",
      "outputs": [],
      "stateMutability": "nonpayable",
      "type": "function"
    },
    {
      "inputs": [
        {
          "internalType": "address",
          "name": "from",
          "type": "address"
        },
        {
          "internalType": "address",
          "name": "to",
          "type": "address"
        },
        {
          "internalType": "uint256",
          "name": "tokenId",
          "type": "uint256"
        }
      ],
      "name": "safeTransferFrom",
      "outputs": [],
      "stateMutability": "payable",
      "type": "function"
    },
    {
      "inputs": [
        {
          "internalType": "address",
          "name": "from",
          "type": "address"
        },
        {
          "internalType": "address",
          "name": "to",
          "type": "address"
        },
        {
          "internalType": "uint256",
          "name": "tokenId",
          "type": "uint256"
        },
        {
          "internalType": "bytes",
          "name": "_data",
          "type": "bytes"
        }
      ],
      "name": "safeTransferFrom",
      "outputs": [],
      "stateMutability": "payable",
      "type": "function"
    },
    {
      "inputs": [
        {
          "internalType": "address",
          "name": "operator",
          "type": "address"
        },
        {
          "internalType": "bool",
          "name": "approved",
          "type": "bool"
        }
      ],
      "name": "setApprovalForAll",
      "outputs": [],
      "stateMutability": "nonpayable",
      "type": "function"
    },
    {
      "inputs": [
        {
          "internalType": "string",
          "name": "_newBaseURI",
          "type": "string"
        }
      ],
      "name": "setBaseURI",
      "outputs": [],
      "stateMutability": "payable",
      "type": "function"
    },
    {
      "inputs": [
        {
          "internalType": "uint256",
          "name": "_newCost",
          "type": "uint256"
        }
      ],
      "name": "setCost",
      "outputs": [],
      "stateMutability": "payable",
      "type": "function"
    },
    {
      "inputs": [
        {
          "internalType": "uint256",
          "name": "_newmaxMintAmount",
          "type": "uint256"
        }
      ],
      "name": "setMaxMintAmountPerTx",
      "outputs": [],
      "stateMutability": "payable",
      "type": "function"
    },
    {
      "inputs": [
        {
          "internalType": "bytes4",
          "name": "interfaceId",
          "type": "bytes4"
        }
      ],
      "name": "supportsInterface",
      "outputs": [
        {
          "internalType": "bool",
          "name": "",
          "type": "bool"
        }
      ],
      "stateMutability": "view",
      "type": "function"
    },
    {
      "inputs": [],
      "name": "symbol",
      "outputs": [
        {
          "internalType": "string",
          "name": "",
          "type": "string"
        }
      ],
      "stateMutability": "view",
      "type": "function"
    },
    {
      "inputs": [
        {
          "internalType": "uint256",
          "name": "tokenId",
          "type": "uint256"
        }
      ],
      "name": "tokenURI",
      "outputs": [
        {
          "internalType": "string",
          "name": "",
          "type": "string"
        }
      ],
      "stateMutability": "view",
      "type": "function"
    },
    {
      "inputs": [
        {
          "internalType": "address",
          "name": "owner",
          "type": "address"
        }
      ],
      "name": "tokensOfOwner",
      "outputs": [
        {
          "internalType": "uint256[]",
          "name": "",
          "type": "uint256[]"
        }
      ],
      "stateMutability": "view",
      "type": "function"
    },
    {
      "inputs": [
        {
          "internalType": "address",
          "name": "owner",
          "type": "address"
        },
        {
          "internalType": "uint256",
          "name": "start",
          "type": "uint256"
        },
        {
          "internalType": "uint256",
          "name": "stop",
          "type": "uint256"
        }
      ],
      "name": "tokensOfOwnerIn",
      "outputs": [
        {
          "internalType": "uint256[]",
          "name": "",
          "type": "uint256[]"
        }
      ],
      "stateMutability": "view",
      "type": "function"
    },
    {
      "inputs": [],
      "name": "totalSupply",
      "outputs": [
        {
          "internalType": "uint256",
          "name": "result",
          "type": "uint256"
        }
      ],
      "stateMutability": "view",
      "type": "function"
    },
    {
      "inputs": [
        {
          "internalType": "address",
          "name": "from",
          "type": "address"
        },
        {
          "internalType": "address",
          "name": "to",
          "type": "address"
        },
        {
          "internalType": "uint256",
          "name": "tokenId",
          "type": "uint256"
        }
      ],
      "name": "transferFrom",
      "outputs": [],
      "stateMutability": "payable",
      "type": "function"
    },
    {
      "inputs": [
        {
          "internalType": "address",
          "name": "newOwner",
          "type": "address"
        }
      ],
      "name": "transferOwnership",
      "outputs": [],
      "stateMutability": "nonpayable",
      "type": "function"
    },
    {
      "inputs": [],
      "name": "withdraw",
      "outputs": [],
      "stateMutability": "payable",
      "type": "function"
    }
  ],
  "bytecode": "0x60a06040526001600d553480156200001657600080fd5b50604051620038433803806200384383398181016040528101906200003c91906200033d565b6040518060400160405280601881526020017f4b727970746f2050756e6b7320436f6c6c65637469626c6500000000000000008152506040518060400160405280600381526020017f4b504300000000000000000000000000000000000000000000000000000000008152508160029080519060200190620000c092919062000276565b508060039080519060200190620000d992919062000276565b50620000ea6200017160201b60201c565b600081905550620001006200017160201b60201c565b620001106200017660201b60201c565b101562000130576200012f63fed8210f60e01b6200019e60201b60201c565b5b50506200015262000146620001a860201b60201c565b620001b060201b60201c565b81600b8190555080600c81905550826080818152505050505062000427565b600090565b60007fffffffffffffffffffffffffffffffffffffffffffffffffffffffffffffffff905090565b8060005260046000fd5b600033905090565b6000600960009054906101000a900473ffffffffffffffffffffffffffffffffffffffff16905081600960006101000a81548173ffffffffffffffffffffffffffffffffffffffff021916908373ffffffffffffffffffffffffffffffffffffffff1602179055508173ffffffffffffffffffffffffffffffffffffffff168173ffffffffffffffffffffffffffffffffffffffff167f8be0079c531659141344cd1fd0a4f28419497f9722a3daafe3b4186f6b6457e060405160405180910390a35050565b8280546200028490620003a3565b90600052602060002090601f016020900481019282620002a85760008555620002f4565b82601f10620002c357805160ff1916838001178555620002f4565b82800160010185558215620002f4579182015b82811115620002f3578251825591602001919060010190620002d6565b5b50905062000303919062000307565b5090565b5b808211156200032257600081600090555060010162000308565b5090565b60008151905062000337816200040d565b92915050565b60008060006060848603121562000359576200035862000408565b5b6000620003698682870162000326565b93505060206200037c8682870162000326565b92505060406200038f8682870162000326565b9150509250925092565b6000819050919050565b60006002820490506001821680620003bc57607f821691505b60208210811415620003d357620003d2620003d9565b5b50919050565b7f4e487b7100000000000000000000000000000000000000000000000000000000600052602260045260246000fd5b600080fd5b620004188162000399565b81146200042457600080fd5b50565b6080516133f96200044a6000396000818161101c015261140301526133f96000f3fe6080604052600436106101ee5760003560e01c806370a082311161010d578063a22cb465116100a0578063c66828621161006f578063c668286214610679578063c87b56dd146106a4578063d5abeb01146106e1578063e985e9c51461070c578063f2fde38b14610749576101ee565b8063a22cb465146105db578063b071401b14610604578063b88d4fde14610620578063c23dc68f1461063c576101ee565b806394354fd0116100dc57806394354fd01461052c57806395d89b411461055757806399a2557a14610582578063a0712d68146105bf576101ee565b806370a0823114610470578063715018a6146104ad5780638462151c146104c45780638da5cb5b14610501576101ee565b80633ccfd60b116101855780635bbb2177116101545780635bbb2177146103a05780635c975abb146103dd5780636352211e146104085780636c0360eb14610445576101ee565b80633ccfd60b1461034257806342842e0e1461034c57806344a0d68a1461036857806355f804b314610384576101ee565b8063136439dd116101c1578063136439dd146102b457806313faede6146102d057806318160ddd146102fb57806323b872dd14610326576101ee565b806301ffc9a7146101f357806306fdde0314610230578063081812fc1461025b578063095ea7b314610298575b600080fd5b3480156101ff57600080fd5b5061021a60048036038101906102159190612808565b610772565b6040516102279190612ce3565b60405180910390f35b34801561023c57600080fd5b50610245610804565b6040516102529190612cfe565b60405180910390f35b34801561026757600080fd5b50610282600480360381019061027d91906128ab565b610896565b60405161028f9190612c38565b60405180910390f35b6102b260048036038101906102ad9190612728565b6108f4565b005b6102ce60048036038101906102c991906128ab565b610904565b005b3480156102dc57600080fd5b506102e5610916565b6040516102f29190612d7b565b60405180910390f35b34801561030757600080fd5b5061031061091c565b60405161031d9190612d7b565b60405180910390f35b610340600480360381019061033b9190612612565b610969565b005b61034a610c2d565b005b61036660048036038101906103619190612612565b610cb5565b005b610382600480360381019061037d91906128ab565b610cd5565b005b61039e60048036038101906103999190612862565b610ce7565b005b3480156103ac57600080fd5b506103c760048036038101906103c291906127bb565b610d09565b6040516103d49190612c9f565b60405180910390f35b3480156103e957600080fd5b506103f2610d69565b6040516103ff9190612d7b565b60405180910390f35b34801561041457600080fd5b5061042f600480360381019061042a91906128ab565b610d6f565b60405161043c9190612c38565b60405180910390f35b34801561045157600080fd5b5061045a610d81565b6040516104679190612cfe565b60405180910390f35b34801561047c57600080fd5b50610497600480360381019061049291906125a5565b610e0f565b6040516104a49190612d7b565b60405180910390f35b3480156104b957600080fd5b506104c2610ea7565b005b3480156104d057600080fd5b506104eb60048036038101906104e691906125a5565b610ebb565b6040516104f89190612cc1565b60405180910390f35b34801561050d57600080fd5b50610516610f36565b6040516105239190612c38565b60405180910390f35b34801561053857600080fd5b50610541610f60565b60405161054e9190612d7b565b60405180910390f35b34801561056357600080fd5b5061056c610f66565b6040516105799190612cfe565b60405180910390f35b34801561058e57600080fd5b506105a960048036038101906105a49190612768565b610ff8565b6040516105b69190612cc1565b60405180910390f35b6105d960048036038101906105d491906128ab565b61100e565b005b3480156105e757600080fd5b5061060260048036038101906105fd91906126e8565b61110f565b005b61061e600480360381019061061991906128ab565b61121a565b005b61063a60048036038101906106359190612665565b61122c565b005b34801561064857600080fd5b50610663600480360381019061065e91906128ab565b61127e565b6040516106709190612d60565b60405180910390f35b34801561068557600080fd5b5061068e6112f3565b60405161069b9190612cfe565b60405180910390f35b3480156106b057600080fd5b506106cb60048036038101906106c691906128ab565b61132c565b6040516106d89190612cfe565b60405180910390f35b3480156106ed57600080fd5b506106f6611401565b6040516107039190612d7b565b60405180910390f35b34801561071857600080fd5b50610733600480360381019061072e91906125d2565b611425565b6040516107409190612ce3565b60405180910390f35b34801561075557600080fd5b50610770600480360381019061076b91906125a5565b6114b9565b005b60006301ffc9a760e01b827bffffffffffffffffffffffffffffffffffffffffffffffffffffffff191614806107cd57506380ac58cd60e01b827bffffffffffffffffffffffffffffffffffffffffffffffffffffffff1916145b806107fd5750635b5e139f60e01b827bffffffffffffffffffffffffffffffffffffffffffffffffffffffff1916145b9050919050565b606060028054610813906130f5565b80601f016020809104026020016040519081016040528092919081815260200182805461083f906130f5565b801561088c5780601f106108615761010080835404028352916020019161088c565b820191906000526020600020905b81548152906001019060200180831161086f57829003601f168201915b5050505050905090565b60006108a18261153d565b6108b6576108b563cf4700e460e01b6115ea565b5b6006600083815260200190815260200160002060000160009054906101000a900473ffffffffffffffffffffffffffffffffffffffff169050919050565b610900828260016115f4565b5050565b61090c611723565b80600d8190555050565b600b5481565b60006109266117a1565b600154600054030390507fffffffffffffffffffffffffffffffffffffffffffffffffffffffffffffffff6109596117a6565b1461096657600854810190505b90565b6000610974826117ce565b905073ffffffffffffffffffffffffffffffffffffffff8473ffffffffffffffffffffffffffffffffffffffff161693508373ffffffffffffffffffffffffffffffffffffffff168173ffffffffffffffffffffffffffffffffffffffff16146109e9576109e863a114810060e01b6115ea565b5b6000806109f5846118fd565b91509150610a0b8187610a06611924565b61192c565b610a3657610a2086610a1b611924565b611425565b610a3557610a346359c896be60e01b6115ea565b5b5b610a438686866001611970565b8015610a4e57600082555b600560008773ffffffffffffffffffffffffffffffffffffffff1673ffffffffffffffffffffffffffffffffffffffff168152602001908152602001600020600081546001900391905081905550600560008673ffffffffffffffffffffffffffffffffffffffff1673ffffffffffffffffffffffffffffffffffffffff1681526020019081526020016000206000815460010191905081905550610b1c85610af8888887611976565b7c02000000000000000000000000000000000000000000000000000000001761199e565b600460008681526020019081526020016000208190555060007c020000000000000000000000000000000000000000000000000000000084161415610ba4576000600185019050600060046000838152602001908152602001600020541415610ba2576000548114610ba1578360046000838152602001908152602001600020819055505b5b505b600073ffffffffffffffffffffffffffffffffffffffff8673ffffffffffffffffffffffffffffffffffffffff161690508481887fddf252ad1be2c89b69c2b068fc378daa952ba7f163c4a11628f55a4df523b3ef600080a46000811415610c1757610c1663ea553b3460e01b6115ea565b5b610c2487878760016119c9565b50505050505050565b610c35611723565b6000610c3f610f36565b73ffffffffffffffffffffffffffffffffffffffff1647604051610c6290612c23565b60006040518083038185875af1925050503d8060008114610c9f576040519150601f19603f3d011682016040523d82523d6000602084013e610ca4565b606091505b5050905080610cb257600080fd5b50565b610cd08383836040518060200160405280600081525061122c565b505050565b610cdd611723565b80600b8190555050565b610cef611723565b80600a9080519060200190610d05929190612314565b5050565b606080600084849050905060405191508082528060051b90508060208301016040525b60008114610d5e5760006020820391508186013590506000610d4d8261127e565b905080836020860101525050610d2c565b819250505092915050565b600d5481565b6000610d7a826117ce565b9050919050565b600a8054610d8e906130f5565b80601f0160208091040260200160405190810160405280929190818152602001828054610dba906130f5565b8015610e075780601f10610ddc57610100808354040283529160200191610e07565b820191906000526020600020905b815481529060010190602001808311610dea57829003601f168201915b505050505081565b60008073ffffffffffffffffffffffffffffffffffffffff168273ffffffffffffffffffffffffffffffffffffffff161415610e5657610e55638f4eb60460e01b6115ea565b5b67ffffffffffffffff600560008473ffffffffffffffffffffffffffffffffffffffff1673ffffffffffffffffffffffffffffffffffffffff16815260200190815260200160002054169050919050565b610eaf611723565b610eb960006119cf565b565b60607fffffffffffffffffffffffffffffffffffffffffffffffffffffffffffffffff610ee66117a6565b14610efc57610efb63bdba09d760e01b6115ea565b5b6000610f066117a1565b90506000610f12611a95565b90506060818314610f2b57610f28858484611a9e565b90505b809350505050919050565b6000600960009054906101000a900473ffffffffffffffffffffffffffffffffffffffff16905090565b600c5481565b606060038054610f75906130f5565b80601f0160208091040260200160405190810160405280929190818152602001828054610fa1906130f5565b8015610fee5780601f10610fc357610100808354040283529160200191610fee565b820191906000526020600020905b815481529060010190602001808311610fd157829003601f168201915b5050505050905090565b6060611005848484611a9e565b90509392505050565b600061101861091c565b90507f000000000000000000000000000000000000000000000000000000000000000082826110479190612edd565b111561107f576040517f96bd0f2300000000000000000000000000000000000000000000000000000000815260040160405180910390fd5b611087610f36565b73ffffffffffffffffffffffffffffffffffffffff163373ffffffffffffffffffffffffffffffffffffffff16146111015781600b546110c79190612f64565b341015611100576040517f45bd468900000000000000000000000000000000000000000000000000000000815260040160405180910390fd5b5b61110b3383611c5c565b5050565b806007600061111c611924565b73ffffffffffffffffffffffffffffffffffffffff1673ffffffffffffffffffffffffffffffffffffffff16815260200190815260200160002060008473ffffffffffffffffffffffffffffffffffffffff1673ffffffffffffffffffffffffffffffffffffffff16815260200190815260200160002060006101000a81548160ff0219169083151502179055508173ffffffffffffffffffffffffffffffffffffffff166111c9611924565b73ffffffffffffffffffffffffffffffffffffffff167f17307eab39ab6107e8899845ad3d59bd9653f200f220920489ca2b5937696c318360405161120e9190612ce3565b60405180910390a35050565b611222611723565b80600c8190555050565b611237848484610969565b60008373ffffffffffffffffffffffffffffffffffffffff163b146112785761126284848484611c7a565b6112775761127663d1a57ed660e01b6115ea565b5b5b50505050565b61128661239a565b61128e6117a1565b82106112ed5761129c6117a6565b8211156112b3576112ac82611db9565b90506112ee565b6112bb611a95565b8210156112ec575b6112cc82611de4565b6112dc57816001900391506112c3565b6112e582611db9565b90506112ee565b5b5b919050565b6040518060400160405280600581526020017f2e6a736f6e00000000000000000000000000000000000000000000000000000081525081565b60606113378261153d565b61136d576040517f77b1a4e000000000000000000000000000000000000000000000000000000000815260040160405180910390fd5b6000611377611e04565b9050600081511161139757604051806020016040528060008152506113f9565b806113a184611e96565b6040518060400160405280600581526020017f2e6a736f6e0000000000000000000000000000000000000000000000000000008152506040516020016113e993929190612bf2565b6040516020818303038152906040525b915050919050565b7f000000000000000000000000000000000000000000000000000000000000000081565b6000600760008473ffffffffffffffffffffffffffffffffffffffff1673ffffffffffffffffffffffffffffffffffffffff16815260200190815260200160002060008373ffffffffffffffffffffffffffffffffffffffff1673ffffffffffffffffffffffffffffffffffffffff16815260200190815260200160002060009054906101000a900460ff16905092915050565b6114c1611723565b600073ffffffffffffffffffffffffffffffffffffffff168173ffffffffffffffffffffffffffffffffffffffff161415611531576040517f08c379a000000000000000000000000000000000000000000000000000000000815260040161152890612d20565b60405180910390fd5b61153a816119cf565b50565b6000816115486117a1565b116115e4576115556117a6565b82111561157f576115786004600084815260200190815260200160002054611ff7565b90506115e5565b6000548210156115e35760005b6000600460008581526020019081526020016000205491508114156115bc57826115b5906130cb565b925061158c565b60007c01000000000000000000000000000000000000000000000000000000008216149150505b5b5b919050565b8060005260046000fd5b60006115ff83610d6f565b905081801561164157508073ffffffffffffffffffffffffffffffffffffffff16611628611924565b73ffffffffffffffffffffffffffffffffffffffff1614155b1561166d5761165781611652611924565b611425565b61166c5761166b63cfb3b94260e01b6115ea565b5b5b836006600085815260200190815260200160002060000160006101000a81548173ffffffffffffffffffffffffffffffffffffffff021916908373ffffffffffffffffffffffffffffffffffffffff160217905550828473ffffffffffffffffffffffffffffffffffffffff168273ffffffffffffffffffffffffffffffffffffffff167f8c5be1e5ebec7d5bd14f71427d1e84f3dd0314c0f7b2291e5b200ac8c7c3b92560405160405180910390a450505050565b61172b612038565b73ffffffffffffffffffffffffffffffffffffffff16611749610f36565b73ffffffffffffffffffffffffffffffffffffffff161461179f576040517f08c379a000000000000000000000000000000000000000000000000000000000815260040161179690612d40565b60405180910390fd5b565b600090565b60007fffffffffffffffffffffffffffffffffffffffffffffffffffffffffffffffff905090565b6000816117d96117a1565b116118e757600460008381526020019081526020016000205490506117fc6117a6565b8211156118275761180c81611ff7565b15611816576118f8565b61182663df2d9b4260e01b6115ea565b5b60008114156118b957600054821061184a5761184963df2d9b4260e01b6115ea565b5b5b60046000836001900393508381526020019081526020016000205490506000811415611876576118b4565b60007c0100000000000000000000000000000000000000000000000000000000821614156118a3576118f8565b6118b363df2d9b4260e01b6115ea565b5b61184b565b60007c0100000000000000000000000000000000000000000000000000000000821614156118e6576118f8565b5b6118f763df2d9b4260e01b6115ea565b5b919050565b60008060006006600085815260200190815260200160002090508092508254915050915091565b600033905090565b600073ffffffffffffffffffffffffffffffffffffffff8316925073ffffffffffffffffffffffffffffffffffffffff821691508382148383141790509392505050565b50505050565b60008060e883901c905060e861198d868684612040565b62ffffff16901b9150509392505050565b600073ffffffffffffffffffffffffffffffffffffffff83169250814260a01b178317905092915050565b50505050565b6000600960009054906101000a900473ffffffffffffffffffffffffffffffffffffffff16905081600960006101000a81548173ffffffffffffffffffffffffffffffffffffffff021916908373ffffffffffffffffffffffffffffffffffffffff1602179055508173ffffffffffffffffffffffffffffffffffffffff168173ffffffffffffffffffffffffffffffffffffffff167f8be0079c531659141344cd1fd0a4f28419497f9722a3daafe3b4186f6b6457e060405160405180910390a35050565b60008054905090565b6060818310611ab857611ab76332c1995a60e01b6115ea565b5b611ac06117a1565b831015611ad257611acf6117a1565b92505b6000611adc611a95565b905060007fffffffffffffffffffffffffffffffffffffffffffffffffffffffffffffffff611b096117a6565b1415611b155781611b17565b835b9050808410611b24578093505b6000611b2f87610e0f565b9050848610611b3d57600090505b60008114611c52578086860311611b545785850390505b600060405194506001820160051b85019050806040526000611b758861127e565b905060008160400151611b8a57816000015190505b60005b7fffffffffffffffffffffffffffffffffffffffffffffffffffffffffffffffff611bb66117a6565b14611be657868a1415611bd1576001611bcd6117a6565b0199505b611bd96117a6565b8a1115611be557600091505b5b611bef8a611db9565b9250604083015160008114611c075760009250611c2d565b835115611c1357835192505b8b831860601b611c2c576001820191508a8260051b8a01525b5b5060018a01995083604052888a1480611c4557508481145b15611b8d57808852505050505b5050509392505050565b611c76828260405180602001604052806000815250612049565b5050565b60008373ffffffffffffffffffffffffffffffffffffffff1663150b7a02611ca0611924565b8786866040518563ffffffff1660e01b8152600401611cc29493929190612c53565b602060405180830381600087803b158015611cdc57600080fd5b505af1925050508015611d0d57506040513d601f19601f82011682018060405250810190611d0a9190612835565b60015b611d66573d8060008114611d3d576040519150601f19603f3d011682016040523d82523d6000602084013e611d42565b606091505b50600081511415611d5e57611d5d63d1a57ed660e01b6115ea565b5b805181602001fd5b63150b7a0260e01b7bffffffffffffffffffffffffffffffffffffffffffffffffffffffff1916817bffffffffffffffffffffffffffffffffffffffffffffffffffffffff191614915050949350505050565b611dc161239a565b611ddd60046000848152602001908152602001600020546120c5565b9050919050565b600080600460008481526020019081526020016000205414159050919050565b6060600a8054611e13906130f5565b80601f0160208091040260200160405190810160405280929190818152602001828054611e3f906130f5565b8015611e8c5780601f10611e6157610100808354040283529160200191611e8c565b820191906000526020600020905b815481529060010190602001808311611e6f57829003601f168201915b5050505050905090565b60606000821415611ede576040518060400160405280600181526020017f30000000000000000000000000000000000000000000000000000000000000008152509050611ff2565b600082905060005b60008214611f10578080611ef990613158565b915050600a82611f099190612f33565b9150611ee6565b60008167ffffffffffffffff811115611f2c57611f2b61328e565b5b6040519080825280601f01601f191660200182016040528015611f5e5781602001600182028036833780820191505090505b5090505b60008514611feb57600182611f779190612fbe565b9150600a85611f8691906131a1565b6030611f929190612edd565b60f81b818381518110611fa857611fa761325f565b5b60200101907effffffffffffffffffffffffffffffffffffffffffffffffffffffffffffff1916908160001a905350600a85611fe49190612f33565b9450611f62565b8093505050505b919050565b60007c0100000000000000000000000000000000000000000000000000000000821673ffffffffffffffffffffffffffffffffffffffff8316119050919050565b600033905090565b60009392505050565b612053838361217b565b60008373ffffffffffffffffffffffffffffffffffffffff163b146120c057600080549050600083820390505b6120936000868380600101945086611c7a565b6120a8576120a763d1a57ed660e01b6115ea565b5b8181106120805781600054146120bd57600080fd5b50505b505050565b6120cd61239a565b81816000019073ffffffffffffffffffffffffffffffffffffffff16908173ffffffffffffffffffffffffffffffffffffffff168152505060a082901c816020019067ffffffffffffffff16908167ffffffffffffffff168152505060007c01000000000000000000000000000000000000000000000000000000008316141581604001901515908115158152505060e882901c816060019062ffffff16908162ffffff1681525050919050565b600080549050600082141561219b5761219a63b562e8dd60e01b6115ea565b5b6121a86000848385611970565b6121c8836121b96000866000611976565b6121c285612304565b1761199e565b6004600083815260200190815260200160002081905550600160406001901b178202600560008573ffffffffffffffffffffffffffffffffffffffff1673ffffffffffffffffffffffffffffffffffffffff16815260200190815260200160002060008282540192505081905550600073ffffffffffffffffffffffffffffffffffffffff8473ffffffffffffffffffffffffffffffffffffffff16169050600081141561228157612280632e07630060e01b6115ea565b5b6000838301905060008390506122956117a6565b6001830311156122b0576122af6381647e3a60e01b6115ea565b5b5b808360007fddf252ad1be2c89b69c2b068fc378daa952ba7f163c4a11628f55a4df523b3ef600080a4818160010191508114156122b157816000819055505050506122ff60008483856119c9565b505050565b60006001821460e11b9050919050565b828054612320906130f5565b90600052602060002090601f0160209004810192826123425760008555612389565b82601f1061235b57805160ff1916838001178555612389565b82800160010185558215612389579182015b8281111561238857825182559160200191906001019061236d565b5b50905061239691906123e9565b5090565b6040518060800160405280600073ffffffffffffffffffffffffffffffffffffffff168152602001600067ffffffffffffffff168152602001600015158152602001600062ffffff1681525090565b5b808211156124025760008160009055506001016123ea565b5090565b600061241961241484612dbb565b612d96565b905082815260208101848484011115612435576124346132cc565b5b612440848285613089565b509392505050565b600061245b61245684612dec565b612d96565b905082815260208101848484011115612477576124766132cc565b5b612482848285613089565b509392505050565b60008135905061249981613367565b92915050565b60008083601f8401126124b5576124b46132c2565b5b8235905067ffffffffffffffff8111156124d2576124d16132bd565b5b6020830191508360208202830111156124ee576124ed6132c7565b5b9250929050565b6000813590506125048161337e565b92915050565b60008135905061251981613395565b92915050565b60008151905061252e81613395565b92915050565b600082601f830112612549576125486132c2565b5b8135612559848260208601612406565b91505092915050565b600082601f830112612577576125766132c2565b5b8135612587848260208601612448565b91505092915050565b60008135905061259f816133ac565b92915050565b6000602082840312156125bb576125ba6132d6565b5b60006125c98482850161248a565b91505092915050565b600080604083850312156125e9576125e86132d6565b5b60006125f78582860161248a565b92505060206126088582860161248a565b9150509250929050565b60008060006060848603121561262b5761262a6132d6565b5b60006126398682870161248a565b935050602061264a8682870161248a565b925050604061265b86828701612590565b9150509250925092565b6000806000806080858703121561267f5761267e6132d6565b5b600061268d8782880161248a565b945050602061269e8782880161248a565b93505060406126af87828801612590565b925050606085013567ffffffffffffffff8111156126d0576126cf6132d1565b5b6126dc87828801612534565b91505092959194509250565b600080604083850312156126ff576126fe6132d6565b5b600061270d8582860161248a565b925050602061271e858286016124f5565b9150509250929050565b6000806040838503121561273f5761273e6132d6565b5b600061274d8582860161248a565b925050602061275e85828601612590565b9150509250929050565b600080600060608486031215612781576127806132d6565b5b600061278f8682870161248a565b93505060206127a086828701612590565b92505060406127b186828701612590565b9150509250925092565b600080602083850312156127d2576127d16132d6565b5b600083013567ffffffffffffffff8111156127f0576127ef6132d1565b5b6127fc8582860161249f565b92509250509250929050565b60006020828403121561281e5761281d6132d6565b5b600061282c8482850161250a565b91505092915050565b60006020828403121561284b5761284a6132d6565b5b60006128598482850161251f565b91505092915050565b600060208284031215612878576128776132d6565b5b600082013567ffffffffffffffff811115612896576128956132d1565b5b6128a284828501612562565b91505092915050565b6000602082840312156128c1576128c06132d6565b5b60006128cf84828501612590565b91505092915050565b60006128e48383612b0c565b60808301905092915050565b60006128fc8383612bc5565b60208301905092915050565b61291181612ff2565b82525050565b61292081612ff2565b82525050565b600061293182612e3d565b61293b8185612e83565b935061294683612e1d565b8060005b8381101561297757815161295e88826128d8565b975061296983612e69565b92505060018101905061294a565b5085935050505092915050565b600061298f82612e48565b6129998185612e94565b93506129a483612e2d565b8060005b838110156129d55781516129bc88826128f0565b97506129c783612e76565b9250506001810190506129a8565b5085935050505092915050565b6129eb81613004565b82525050565b6129fa81613004565b82525050565b6000612a0b82612e53565b612a158185612ea5565b9350612a25818560208601613098565b612a2e816132db565b840191505092915050565b6000612a4482612e5e565b612a4e8185612ec1565b9350612a5e818560208601613098565b612a67816132db565b840191505092915050565b6000612a7d82612e5e565b612a878185612ed2565b9350612a97818560208601613098565b80840191505092915050565b6000612ab0602683612ec1565b9150612abb826132ec565b604082019050919050565b6000612ad3602083612ec1565b9150612ade8261333b565b602082019050919050565b6000612af6600083612eb6565b9150612b0182613364565b600082019050919050565b608082016000820151612b226000850182612908565b506020820151612b356020850182612be3565b506040820151612b4860408501826129e2565b506060820151612b5b6060850182612bb6565b50505050565b608082016000820151612b776000850182612908565b506020820151612b8a6020850182612be3565b506040820151612b9d60408501826129e2565b506060820151612bb06060850182612bb6565b50505050565b612bbf8161305c565b82525050565b612bce8161306b565b82525050565b612bdd8161306b565b82525050565b612bec81613075565b82525050565b6000612bfe8286612a72565b9150612c0a8285612a72565b9150612c168284612a72565b9150819050949350505050565b6000612c2e82612ae9565b9150819050919050565b6000602082019050612c4d6000830184612917565b92915050565b6000608082019050612c686000830187612917565b612c756020830186612917565b612c826040830185612bd4565b8181036060830152612c948184612a00565b905095945050505050565b60006020820190508181036000830152612cb98184612926565b905092915050565b60006020820190508181036000830152612cdb8184612984565b905092915050565b6000602082019050612cf860008301846129f1565b92915050565b60006020820190508181036000830152612d188184612a39565b905092915050565b60006020820190508181036000830152612d3981612aa3565b9050919050565b60006020820190508181036000830152612d5981612ac6565b9050919050565b6000608082019050612d756000830184612b61565b92915050565b6000602082019050612d906000830184612bd4565b92915050565b6000612da0612db1565b9050612dac8282613127565b919050565b6000604051905090565b600067ffffffffffffffff821115612dd657612dd561328e565b5b612ddf826132db565b9050602081019050919050565b600067ffffffffffffffff821115612e0757612e0661328e565b5b612e10826132db565b9050602081019050919050565b6000819050602082019050919050565b6000819050602082019050919050565b600081519050919050565b600081519050919050565b600081519050919050565b600081519050919050565b6000602082019050919050565b6000602082019050919050565b600082825260208201905092915050565b600082825260208201905092915050565b600082825260208201905092915050565b600081905092915050565b600082825260208201905092915050565b600081905092915050565b6000612ee88261306b565b9150612ef38361306b565b9250827fffffffffffffffffffffffffffffffffffffffffffffffffffffffffffffffff03821115612f2857612f276131d2565b5b828201905092915050565b6000612f3e8261306b565b9150612f498361306b565b925082612f5957612f58613201565b5b828204905092915050565b6000612f6f8261306b565b9150612f7a8361306b565b9250817fffffffffffffffffffffffffffffffffffffffffffffffffffffffffffffffff0483118215151615612fb357612fb26131d2565b5b828202905092915050565b6000612fc98261306b565b9150612fd48361306b565b925082821015612fe757612fe66131d2565b5b828203905092915050565b6000612ffd8261303c565b9050919050565b60008115159050919050565b60007fffffffff0000000000000000000000000000000000000000000000000000000082169050919050565b600073ffffffffffffffffffffffffffffffffffffffff82169050919050565b600062ffffff82169050919050565b6000819050919050565b600067ffffffffffffffff82169050919050565b82818337600083830152505050565b60005b838110156130b657808201518184015260208101905061309b565b838111156130c5576000848401525b50505050565b60006130d68261306b565b915060008214156130ea576130e96131d2565b5b600182039050919050565b6000600282049050600182168061310d57607f821691505b6020821081141561312157613120613230565b5b50919050565b613130826132db565b810181811067ffffffffffffffff8211171561314f5761314e61328e565b5b80604052505050565b60006131638261306b565b91507fffffffffffffffffffffffffffffffffffffffffffffffffffffffffffffffff821415613196576131956131d2565b5b600182019050919050565b60006131ac8261306b565b91506131b78361306b565b9250826131c7576131c6613201565b5b828206905092915050565b7f4e487b7100000000000000000000000000000000000000000000000000000000600052601160045260246000fd5b7f4e487b7100000000000000000000000000000000000000000000000000000000600052601260045260246000fd5b7f4e487b7100000000000000000000000000000000000000000000000000000000600052602260045260246000fd5b7f4e487b7100000000000000000000000000000000000000000000000000000000600052603260045260246000fd5b7f4e487b7100000000000000000000000000000000000000000000000000000000600052604160045260246000fd5b600080fd5b600080fd5b600080fd5b600080fd5b600080fd5b600080fd5b6000601f19601f8301169050919050565b7f4f776e61626c653a206e6577206f776e657220697320746865207a65726f206160008201527f6464726573730000000000000000000000000000000000000000000000000000602082015250565b7f4f776e61626c653a2063616c6c6572206973206e6f7420746865206f776e6572600082015250565b50565b61337081612ff2565b811461337b57600080fd5b50565b61338781613004565b811461339257600080fd5b50565b61339e81613010565b81146133a957600080fd5b50565b6133b58161306b565b81146133c057600080fd5b5056fea2646970667358221220aace2acbb7c182c6b3b1c96bc794f50780e07808b10186a3544af651c697a1e764736f6c63430008070033",
  "linkReferences": {},
  "deployedLinkReferences": {}
}